{
  "_format": "hh-sol-artifact-1",
  "contractName": "KlayverProfile",
  "sourceName": "contracts/KlayverProfile.sol",
  "abi": [
    {
      "inputs": [
        {
          "internalType": "string",
          "name": "_name",
          "type": "string"
        },
        {
          "internalType": "uint256",
          "name": "_monthlyCharge",
          "type": "uint256"
        },
        {
          "internalType": "string",
          "name": "_bio",
          "type": "string"
        },
        {
          "internalType": "string",
          "name": "_profession",
          "type": "string"
        },
        {
          "internalType": "string",
          "name": "_skills",
          "type": "string"
        }
      ],
      "name": "createAProfile",
      "outputs": [],
      "stateMutability": "nonpayable",
      "type": "function"
    },
    {
      "inputs": [
        {
          "internalType": "address",
          "name": "",
          "type": "address"
        }
      ],
      "name": "profileByAddress",
      "outputs": [
        {
          "internalType": "string",
          "name": "name",
          "type": "string"
        },
        {
          "internalType": "uint256",
          "name": "monthlyCharge",
          "type": "uint256"
        },
        {
          "internalType": "string",
          "name": "bio",
          "type": "string"
        },
        {
          "internalType": "string",
          "name": "profession",
          "type": "string"
        },
        {
          "internalType": "string",
          "name": "skills",
          "type": "string"
        }
      ],
      "stateMutability": "view",
      "type": "function"
    },
    {
      "inputs": [
        {
          "internalType": "address",
          "name": "",
          "type": "address"
        }
      ],
      "name": "profileExists",
      "outputs": [
        {
          "internalType": "bool",
          "name": "",
          "type": "bool"
        }
      ],
      "stateMutability": "view",
      "type": "function"
    },
    {
      "inputs": [
        {
          "internalType": "uint256",
          "name": "",
          "type": "uint256"
        }
      ],
      "name": "profiles",
      "outputs": [
        {
          "internalType": "string",
          "name": "name",
          "type": "string"
        },
        {
          "internalType": "uint256",
          "name": "monthlyCharge",
          "type": "uint256"
        },
        {
          "internalType": "string",
          "name": "bio",
          "type": "string"
        },
        {
          "internalType": "string",
          "name": "profession",
          "type": "string"
        },
        {
          "internalType": "string",
          "name": "skills",
          "type": "string"
        }
      ],
      "stateMutability": "view",
      "type": "function"
    },
    {
      "inputs": [],
      "name": "retrieveAllProfile",
      "outputs": [
        {
          "components": [
            {
              "internalType": "string",
              "name": "name",
              "type": "string"
            },
            {
              "internalType": "uint256",
              "name": "monthlyCharge",
              "type": "uint256"
            },
            {
              "internalType": "string",
              "name": "bio",
              "type": "string"
            },
            {
              "internalType": "string",
              "name": "profession",
              "type": "string"
            },
            {
              "internalType": "string",
              "name": "skills",
              "type": "string"
            }
          ],
          "internalType": "struct KlayverProfile.Profile[]",
          "name": "",
          "type": "tuple[]"
        }
      ],
      "stateMutability": "view",
      "type": "function"
    },
    {
      "inputs": [
        {
          "internalType": "address",
          "name": "_owner",
          "type": "address"
        }
      ],
      "name": "retrieveUserDetail",
      "outputs": [
        {
          "components": [
            {
              "internalType": "string",
              "name": "name",
              "type": "string"
            },
            {
              "internalType": "uint256",
              "name": "monthlyCharge",
              "type": "uint256"
            },
            {
              "internalType": "string",
              "name": "bio",
              "type": "string"
            },
            {
              "internalType": "string",
              "name": "profession",
              "type": "string"
            },
            {
              "internalType": "string",
              "name": "skills",
              "type": "string"
            }
          ],
          "internalType": "struct KlayverProfile.Profile",
          "name": "",
          "type": "tuple"
        }
      ],
      "stateMutability": "view",
      "type": "function"
    }
  ],
  "bytecode": "0x608060405234801561001057600080fd5b506119d7806100206000396000f3fe608060405234801561001057600080fd5b50600436106100625760003560e01c806305cfa06f146100675780637d5b14de146100975780638315c86c146100b3578063ad97daf3146100e3578063c36fe3d614610117578063edbd51d81461014b575b600080fd5b610081600480360381019061007c9190610ef0565b610169565b60405161008e9190610f38565b60405180910390f35b6100b160048036038101906100ac91906110cf565b610189565b005b6100cd60048036038101906100c89190610ef0565b610437565b6040516100da91906112d3565b60405180910390f35b6100fd60048036038101906100f89190610ef0565b6106e2565b60405161010e95949392919061134e565b60405180910390f35b610131600480360381019061012c91906113bd565b610938565b60405161014295949392919061134e565b60405180910390f35b610153610b9e565b6040516101609190611537565b60405180910390f35b60036020528060005260406000206000915054906101000a900460ff1681565b600360003373ffffffffffffffffffffffffffffffffffffffff1673ffffffffffffffffffffffffffffffffffffffff16815260200190815260200160002060009054906101000a900460ff1615610216576040517f08c379a000000000000000000000000000000000000000000000000000000000815260040161020d906115a5565b60405180910390fd5b6000600260003373ffffffffffffffffffffffffffffffffffffffff1673ffffffffffffffffffffffffffffffffffffffff16815260200190815260200160002090508581600001908161026a91906117d1565b508481600101819055508381600201908161028591906117d1565b508281600301908161029791906117d1565b50818160040190816102a991906117d1565b506001819080600181540180825580915050600190039060005260206000209060050201600090919091909150600082018160000190816102ea91906118b9565b50600182015481600101556002820181600201908161030991906118b9565b506003820181600301908161031e91906118b9565b506004820181600401908161033391906118b9565b50505080600260003373ffffffffffffffffffffffffffffffffffffffff1673ffffffffffffffffffffffffffffffffffffffff1681526020019081526020016000206000820181600001908161038a91906118b9565b5060018201548160010155600282018160020190816103a991906118b9565b50600382018160030190816103be91906118b9565b50600482018160040190816103d391906118b9565b509050506001600360003373ffffffffffffffffffffffffffffffffffffffff1673ffffffffffffffffffffffffffffffffffffffff16815260200190815260200160002060006101000a81548160ff021916908315150217905550505050505050565b61043f610e4f565b600260008373ffffffffffffffffffffffffffffffffffffffff1673ffffffffffffffffffffffffffffffffffffffff1681526020019081526020016000206040518060a0016040529081600082018054610499906115f4565b80601f01602080910402602001604051908101604052809291908181526020018280546104c5906115f4565b80156105125780601f106104e757610100808354040283529160200191610512565b820191906000526020600020905b8154815290600101906020018083116104f557829003601f168201915b5050505050815260200160018201548152602001600282018054610535906115f4565b80601f0160208091040260200160405190810160405280929190818152602001828054610561906115f4565b80156105ae5780601f10610583576101008083540402835291602001916105ae565b820191906000526020600020905b81548152906001019060200180831161059157829003601f168201915b505050505081526020016003820180546105c7906115f4565b80601f01602080910402602001604051908101604052809291908181526020018280546105f3906115f4565b80156106405780601f1061061557610100808354040283529160200191610640565b820191906000526020600020905b81548152906001019060200180831161062357829003601f168201915b50505050508152602001600482018054610659906115f4565b80601f0160208091040260200160405190810160405280929190818152602001828054610685906115f4565b80156106d25780601f106106a7576101008083540402835291602001916106d2565b820191906000526020600020905b8154815290600101906020018083116106b557829003601f168201915b5050505050815250509050919050565b6002602052806000526040600020600091509050806000018054610705906115f4565b80601f0160208091040260200160405190810160405280929190818152602001828054610731906115f4565b801561077e5780601f106107535761010080835404028352916020019161077e565b820191906000526020600020905b81548152906001019060200180831161076157829003601f168201915b505050505090806001015490806002018054610799906115f4565b80601f01602080910402602001604051908101604052809291908181526020018280546107c5906115f4565b80156108125780601f106107e757610100808354040283529160200191610812565b820191906000526020600020905b8154815290600101906020018083116107f557829003601f168201915b505050505090806003018054610827906115f4565b80601f0160208091040260200160405190810160405280929190818152602001828054610853906115f4565b80156108a05780601f10610875576101008083540402835291602001916108a0565b820191906000526020600020905b81548152906001019060200180831161088357829003601f168201915b5050505050908060040180546108b5906115f4565b80601f01602080910402602001604051908101604052809291908181526020018280546108e1906115f4565b801561092e5780601f106109035761010080835404028352916020019161092e565b820191906000526020600020905b81548152906001019060200180831161091157829003601f168201915b5050505050905085565b6001818154811061094857600080fd5b906000526020600020906005020160009150905080600001805461096b906115f4565b80601f0160208091040260200160405190810160405280929190818152602001828054610997906115f4565b80156109e45780601f106109b9576101008083540402835291602001916109e4565b820191906000526020600020905b8154815290600101906020018083116109c757829003601f168201915b5050505050908060010154908060020180546109ff906115f4565b80601f0160208091040260200160405190810160405280929190818152602001828054610a2b906115f4565b8015610a785780601f10610a4d57610100808354040283529160200191610a78565b820191906000526020600020905b815481529060010190602001808311610a5b57829003601f168201915b505050505090806003018054610a8d906115f4565b80601f0160208091040260200160405190810160405280929190818152602001828054610ab9906115f4565b8015610b065780601f10610adb57610100808354040283529160200191610b06565b820191906000526020600020905b815481529060010190602001808311610ae957829003601f168201915b505050505090806004018054610b1b906115f4565b80601f0160208091040260200160405190810160405280929190818152602001828054610b47906115f4565b8015610b945780601f10610b6957610100808354040283529160200191610b94565b820191906000526020600020905b815481529060010190602001808311610b7757829003601f168201915b5050505050905085565b60606001805480602002602001604051908101604052809291908181526020016000905b82821015610e4657838290600052602060002090600502016040518060a0016040529081600082018054610bf5906115f4565b80601f0160208091040260200160405190810160405280929190818152602001828054610c21906115f4565b8015610c6e5780601f10610c4357610100808354040283529160200191610c6e565b820191906000526020600020905b815481529060010190602001808311610c5157829003601f168201915b5050505050815260200160018201548152602001600282018054610c91906115f4565b80601f0160208091040260200160405190810160405280929190818152602001828054610cbd906115f4565b8015610d0a5780601f10610cdf57610100808354040283529160200191610d0a565b820191906000526020600020905b815481529060010190602001808311610ced57829003601f168201915b50505050508152602001600382018054610d23906115f4565b80601f0160208091040260200160405190810160405280929190818152602001828054610d4f906115f4565b8015610d9c5780601f10610d7157610100808354040283529160200191610d9c565b820191906000526020600020905b815481529060010190602001808311610d7f57829003601f168201915b50505050508152602001600482018054610db5906115f4565b80601f0160208091040260200160405190810160405280929190818152602001828054610de1906115f4565b8015610e2e5780601f10610e0357610100808354040283529160200191610e2e565b820191906000526020600020905b815481529060010190602001808311610e1157829003601f168201915b50505050508152505081526020019060010190610bc2565b50505050905090565b6040518060a0016040528060608152602001600081526020016060815260200160608152602001606081525090565b6000604051905090565b600080fd5b600080fd5b600073ffffffffffffffffffffffffffffffffffffffff82169050919050565b6000610ebd82610e92565b9050919050565b610ecd81610eb2565b8114610ed857600080fd5b50565b600081359050610eea81610ec4565b92915050565b600060208284031215610f0657610f05610e88565b5b6000610f1484828501610edb565b91505092915050565b60008115159050919050565b610f3281610f1d565b82525050565b6000602082019050610f4d6000830184610f29565b92915050565b600080fd5b600080fd5b6000601f19601f8301169050919050565b7f4e487b7100000000000000000000000000000000000000000000000000000000600052604160045260246000fd5b610fa682610f5d565b810181811067ffffffffffffffff82111715610fc557610fc4610f6e565b5b80604052505050565b6000610fd8610e7e565b9050610fe48282610f9d565b919050565b600067ffffffffffffffff82111561100457611003610f6e565b5b61100d82610f5d565b9050602081019050919050565b82818337600083830152505050565b600061103c61103784610fe9565b610fce565b90508281526020810184848401111561105857611057610f58565b5b61106384828561101a565b509392505050565b600082601f8301126110805761107f610f53565b5b8135611090848260208601611029565b91505092915050565b6000819050919050565b6110ac81611099565b81146110b757600080fd5b50565b6000813590506110c9816110a3565b92915050565b600080600080600060a086880312156110eb576110ea610e88565b5b600086013567ffffffffffffffff81111561110957611108610e8d565b5b6111158882890161106b565b9550506020611126888289016110ba565b945050604086013567ffffffffffffffff81111561114757611146610e8d565b5b6111538882890161106b565b935050606086013567ffffffffffffffff81111561117457611173610e8d565b5b6111808882890161106b565b925050608086013567ffffffffffffffff8111156111a1576111a0610e8d565b5b6111ad8882890161106b565b9150509295509295909350565b600081519050919050565b600082825260208201905092915050565b60005b838110156111f45780820151818401526020810190506111d9565b60008484015250505050565b600061120b826111ba565b61121581856111c5565b93506112258185602086016111d6565b61122e81610f5d565b840191505092915050565b61124281611099565b82525050565b600060a08301600083015184820360008601526112658282611200565b915050602083015161127a6020860182611239565b50604083015184820360408601526112928282611200565b915050606083015184820360608601526112ac8282611200565b915050608083015184820360808601526112c68282611200565b9150508091505092915050565b600060208201905081810360008301526112ed8184611248565b905092915050565b600082825260208201905092915050565b6000611311826111ba565b61131b81856112f5565b935061132b8185602086016111d6565b61133481610f5d565b840191505092915050565b61134881611099565b82525050565b600060a08201905081810360008301526113688188611306565b9050611377602083018761133f565b81810360408301526113898186611306565b9050818103606083015261139d8185611306565b905081810360808301526113b18184611306565b90509695505050505050565b6000602082840312156113d3576113d2610e88565b5b60006113e1848285016110ba565b91505092915050565b600081519050919050565b600082825260208201905092915050565b6000819050602082019050919050565b600060a08301600083015184820360008601526114338282611200565b91505060208301516114486020860182611239565b50604083015184820360408601526114608282611200565b9150506060830151848203606086015261147a8282611200565b915050608083015184820360808601526114948282611200565b9150508091505092915050565b60006114ad8383611416565b905092915050565b6000602082019050919050565b60006114cd826113ea565b6114d781856113f5565b9350836020820285016114e985611406565b8060005b85811015611525578484038952815161150685826114a1565b9450611511836114b5565b925060208a019950506001810190506114ed565b50829750879550505050505092915050565b6000602082019050818103600083015261155181846114c2565b905092915050565b7f50726f66696c6520616c72656164792065786973747300000000000000000000600082015250565b600061158f6016836112f5565b915061159a82611559565b602082019050919050565b600060208201905081810360008301526115be81611582565b9050919050565b7f4e487b7100000000000000000000000000000000000000000000000000000000600052602260045260246000fd5b6000600282049050600182168061160c57607f821691505b60208210810361161f5761161e6115c5565b5b50919050565b60008190508160005260206000209050919050565b60006020601f8301049050919050565b600082821b905092915050565b6000600883026116877fffffffffffffffffffffffffffffffffffffffffffffffffffffffffffffffff8261164a565b611691868361164a565b95508019841693508086168417925050509392505050565b6000819050919050565b60006116ce6116c96116c484611099565b6116a9565b611099565b9050919050565b6000819050919050565b6116e8836116b3565b6116fc6116f4826116d5565b848454611657565b825550505050565b600090565b611711611704565b61171c8184846116df565b505050565b5b8181101561174057611735600082611709565b600181019050611722565b5050565b601f8211156117855761175681611625565b61175f8461163a565b8101602085101561176e578190505b61178261177a8561163a565b830182611721565b50505b505050565b600082821c905092915050565b60006117a86000198460080261178a565b1980831691505092915050565b60006117c18383611797565b9150826002028217905092915050565b6117da826111ba565b67ffffffffffffffff8111156117f3576117f2610f6e565b5b6117fd82546115f4565b611808828285611744565b600060209050601f83116001811461183b5760008415611829578287015190505b61183385826117b5565b86555061189b565b601f19841661184986611625565b60005b828110156118715784890151825560018201915060208501945060208101905061184c565b8683101561188e578489015161188a601f891682611797565b8355505b6001600288020188555050505b505050505050565b6000815490506118b2816115f4565b9050919050565b8181036118c757505061199f565b6118d0826118a3565b67ffffffffffffffff8111156118e9576118e8610f6e565b5b6118f382546115f4565b6118fe828285611744565b6000601f83116001811461192d576000841561191b578287015490505b61192585826117b5565b865550611998565b601f19841661193b87611625565b965061194686611625565b60005b8281101561196e57848901548255600182019150600185019450602081019050611949565b8683101561198b5784890154611987601f891682611797565b8355505b6001600288020188555050505b5050505050505b56fea2646970667358221220e79695fcaf905e0cef35c0d4bba5a92dd3312416f499667c4f7716eb91daba0464736f6c63430008110033",
  "linkReferences": {},
  "deployedLinkReferences": {}
}