{
  "_format": "hh-sol-artifact-1",
  "contractName": "KlayverProfile",
  "sourceName": "contracts/KlayverProfile.sol",
  "abi": [
    {
      "inputs": [
        {
          "internalType": "string",
          "name": "_name",
          "type": "string"
        },
        {
          "internalType": "string",
          "name": "_profilePic",
          "type": "string"
        },
        {
          "internalType": "address",
          "name": "_tokenAddress",
          "type": "address"
        },
        {
          "internalType": "uint256",
          "name": "_monthlyCharge",
          "type": "uint256"
        },
        {
          "internalType": "string",
          "name": "_bio",
          "type": "string"
        },
        {
          "internalType": "string",
          "name": "_profession",
          "type": "string"
        },
        {
          "internalType": "string[]",
          "name": "_skills",
          "type": "string[]"
        }
      ],
      "name": "createAProfile",
      "outputs": [],
      "stateMutability": "nonpayable",
      "type": "function"
    },
    {
      "inputs": [
        {
          "internalType": "address",
          "name": "",
          "type": "address"
        }
      ],
      "name": "profileByAddress",
      "outputs": [
        {
          "internalType": "string",
          "name": "name",
          "type": "string"
        },
        {
          "internalType": "string",
          "name": "profilePic",
          "type": "string"
        },
        {
          "internalType": "address",
          "name": "profileTokenAddress",
          "type": "address"
        },
        {
          "internalType": "uint256",
          "name": "monthlyCharge",
          "type": "uint256"
        },
        {
          "internalType": "uint256",
          "name": "tokenBalance",
          "type": "uint256"
        },
        {
          "internalType": "string",
          "name": "bio",
          "type": "string"
        },
        {
          "internalType": "string",
          "name": "profession",
          "type": "string"
        }
      ],
      "stateMutability": "view",
      "type": "function"
    },
    {
      "inputs": [
        {
          "internalType": "address",
          "name": "",
          "type": "address"
        }
      ],
      "name": "profileExists",
      "outputs": [
        {
          "internalType": "bool",
          "name": "",
          "type": "bool"
        }
      ],
      "stateMutability": "view",
      "type": "function"
    },
    {
      "inputs": [
        {
          "internalType": "uint256",
          "name": "",
          "type": "uint256"
        }
      ],
      "name": "profiles",
      "outputs": [
        {
          "internalType": "string",
          "name": "name",
          "type": "string"
        },
        {
          "internalType": "string",
          "name": "profilePic",
          "type": "string"
        },
        {
          "internalType": "address",
          "name": "profileTokenAddress",
          "type": "address"
        },
        {
          "internalType": "uint256",
          "name": "monthlyCharge",
          "type": "uint256"
        },
        {
          "internalType": "uint256",
          "name": "tokenBalance",
          "type": "uint256"
        },
        {
          "internalType": "string",
          "name": "bio",
          "type": "string"
        },
        {
          "internalType": "string",
          "name": "profession",
          "type": "string"
        }
      ],
      "stateMutability": "view",
      "type": "function"
    },
    {
      "inputs": [],
      "name": "retrieveAllProfile",
      "outputs": [
        {
          "components": [
            {
              "internalType": "string",
              "name": "name",
              "type": "string"
            },
            {
              "internalType": "string",
              "name": "profilePic",
              "type": "string"
            },
            {
              "internalType": "address",
              "name": "profileTokenAddress",
              "type": "address"
            },
            {
              "internalType": "uint256",
              "name": "monthlyCharge",
              "type": "uint256"
            },
            {
              "internalType": "uint256",
              "name": "tokenBalance",
              "type": "uint256"
            },
            {
              "internalType": "string",
              "name": "bio",
              "type": "string"
            },
            {
              "internalType": "string",
              "name": "profession",
              "type": "string"
            },
            {
              "internalType": "string[]",
              "name": "skills",
              "type": "string[]"
            },
            {
              "internalType": "string[]",
              "name": "reviews",
              "type": "string[]"
            }
          ],
          "internalType": "struct KlayverProfile.Profile[]",
          "name": "",
          "type": "tuple[]"
        }
      ],
      "stateMutability": "view",
      "type": "function"
    },
    {
      "inputs": [
        {
          "internalType": "address",
          "name": "_owner",
          "type": "address"
        }
      ],
      "name": "retrieveUserDetail",
      "outputs": [
        {
          "components": [
            {
              "internalType": "string",
              "name": "name",
              "type": "string"
            },
            {
              "internalType": "string",
              "name": "profilePic",
              "type": "string"
            },
            {
              "internalType": "address",
              "name": "profileTokenAddress",
              "type": "address"
            },
            {
              "internalType": "uint256",
              "name": "monthlyCharge",
              "type": "uint256"
            },
            {
              "internalType": "uint256",
              "name": "tokenBalance",
              "type": "uint256"
            },
            {
              "internalType": "string",
              "name": "bio",
              "type": "string"
            },
            {
              "internalType": "string",
              "name": "profession",
              "type": "string"
            },
            {
              "internalType": "string[]",
              "name": "skills",
              "type": "string[]"
            },
            {
              "internalType": "string[]",
              "name": "reviews",
              "type": "string[]"
            }
          ],
          "internalType": "struct KlayverProfile.Profile",
          "name": "",
          "type": "tuple"
        }
      ],
      "stateMutability": "view",
      "type": "function"
    }
  ],
  "bytecode": "0x608060405234801561001057600080fd5b5061243e806100206000396000f3fe608060405234801561001057600080fd5b50600436106100625760003560e01c806305cfa06f1461006757806378a97f0d146100975780638315c86c146100b3578063ad97daf3146100e3578063c36fe3d614610119578063edbd51d81461014f575b600080fd5b610081600480360381019061007c9190611678565b61016d565b60405161008e91906116c0565b60405180910390f35b6100b160048036038101906100ac919061193d565b61018d565b005b6100cd60048036038101906100c89190611678565b6105d7565b6040516100da9190611cb2565b60405180910390f35b6100fd60048036038101906100f89190611678565b610a95565b6040516101109796959493929190611d3c565b60405180910390f35b610133600480360381019061012e9190611dc7565b610d17565b6040516101469796959493929190611d3c565b60405180910390f35b610157610fa9565b6040516101649190611f9e565b60405180910390f35b60026020528060005260406000206000915054906101000a900460ff1681565b600260003373ffffffffffffffffffffffffffffffffffffffff1673ffffffffffffffffffffffffffffffffffffffff16815260200190815260200160002060009054906101000a900460ff161561021a576040517f08c379a00000000000000000000000000000000000000000000000000000000081526004016102119061200c565b60405180910390fd5b6000600160003373ffffffffffffffffffffffffffffffffffffffff1673ffffffffffffffffffffffffffffffffffffffff16815260200190815260200160002090508781600001908161026e9190612238565b50868160010190816102809190612238565b50858160020160006101000a81548173ffffffffffffffffffffffffffffffffffffffff021916908373ffffffffffffffffffffffffffffffffffffffff160217905550848160030181905550838160050190816102de9190612238565b50828160060190816102f09190612238565b508181600701908051906020019061030992919061146d565b5060008190806001815401808255809150506001900390600052602060002090600902016000909190919091506000820181600001908161034a9190612320565b506001820181600101908161035f9190612320565b506002820160009054906101000a900473ffffffffffffffffffffffffffffffffffffffff168160020160006101000a81548173ffffffffffffffffffffffffffffffffffffffff021916908373ffffffffffffffffffffffffffffffffffffffff1602179055506003820154816003015560048201548160040155600582018160050190816103ef9190612320565b50600682018160060190816104049190612320565b50600782018160070190805461041b9291906114c6565b5060088201816008019080546104329291906114c6565b50505080600160003373ffffffffffffffffffffffffffffffffffffffff1673ffffffffffffffffffffffffffffffffffffffff168152602001908152602001600020600082018160000190816104899190612320565b506001820181600101908161049e9190612320565b506002820160009054906101000a900473ffffffffffffffffffffffffffffffffffffffff168160020160006101000a81548173ffffffffffffffffffffffffffffffffffffffff021916908373ffffffffffffffffffffffffffffffffffffffff16021790555060038201548160030155600482015481600401556005820181600501908161052e9190612320565b50600682018160060190816105439190612320565b50600782018160070190805461055a9291906114c6565b5060088201816008019080546105719291906114c6565b509050506001600260003373ffffffffffffffffffffffffffffffffffffffff1673ffffffffffffffffffffffffffffffffffffffff16815260200190815260200160002060006101000a81548160ff0219169083151502179055505050505050505050565b6105df611523565b600160008373ffffffffffffffffffffffffffffffffffffffff1673ffffffffffffffffffffffffffffffffffffffff1681526020019081526020016000206040518061012001604052908160008201805461063a9061205b565b80601f01602080910402602001604051908101604052809291908181526020018280546106669061205b565b80156106b35780601f10610688576101008083540402835291602001916106b3565b820191906000526020600020905b81548152906001019060200180831161069657829003601f168201915b505050505081526020016001820180546106cc9061205b565b80601f01602080910402602001604051908101604052809291908181526020018280546106f89061205b565b80156107455780601f1061071a57610100808354040283529160200191610745565b820191906000526020600020905b81548152906001019060200180831161072857829003601f168201915b505050505081526020016002820160009054906101000a900473ffffffffffffffffffffffffffffffffffffffff1673ffffffffffffffffffffffffffffffffffffffff1673ffffffffffffffffffffffffffffffffffffffff16815260200160038201548152602001600482015481526020016005820180546107c89061205b565b80601f01602080910402602001604051908101604052809291908181526020018280546107f49061205b565b80156108415780601f1061081657610100808354040283529160200191610841565b820191906000526020600020905b81548152906001019060200180831161082457829003601f168201915b5050505050815260200160068201805461085a9061205b565b80601f01602080910402602001604051908101604052809291908181526020018280546108869061205b565b80156108d35780601f106108a8576101008083540402835291602001916108d3565b820191906000526020600020905b8154815290600101906020018083116108b657829003601f168201915b5050505050815260200160078201805480602002602001604051908101604052809291908181526020016000905b828210156109ad5783829060005260206000200180546109209061205b565b80601f016020809104026020016040519081016040528092919081815260200182805461094c9061205b565b80156109995780601f1061096e57610100808354040283529160200191610999565b820191906000526020600020905b81548152906001019060200180831161097c57829003601f168201915b505050505081526020019060010190610901565b50505050815260200160088201805480602002602001604051908101604052809291908181526020016000905b82821015610a865783829060005260206000200180546109f99061205b565b80601f0160208091040260200160405190810160405280929190818152602001828054610a259061205b565b8015610a725780601f10610a4757610100808354040283529160200191610a72565b820191906000526020600020905b815481529060010190602001808311610a5557829003601f168201915b5050505050815260200190600101906109da565b50505050815250509050919050565b6001602052806000526040600020600091509050806000018054610ab89061205b565b80601f0160208091040260200160405190810160405280929190818152602001828054610ae49061205b565b8015610b315780601f10610b0657610100808354040283529160200191610b31565b820191906000526020600020905b815481529060010190602001808311610b1457829003601f168201915b505050505090806001018054610b469061205b565b80601f0160208091040260200160405190810160405280929190818152602001828054610b729061205b565b8015610bbf5780601f10610b9457610100808354040283529160200191610bbf565b820191906000526020600020905b815481529060010190602001808311610ba257829003601f168201915b5050505050908060020160009054906101000a900473ffffffffffffffffffffffffffffffffffffffff1690806003015490806004015490806005018054610c069061205b565b80601f0160208091040260200160405190810160405280929190818152602001828054610c329061205b565b8015610c7f5780601f10610c5457610100808354040283529160200191610c7f565b820191906000526020600020905b815481529060010190602001808311610c6257829003601f168201915b505050505090806006018054610c949061205b565b80601f0160208091040260200160405190810160405280929190818152602001828054610cc09061205b565b8015610d0d5780601f10610ce257610100808354040283529160200191610d0d565b820191906000526020600020905b815481529060010190602001808311610cf057829003601f168201915b5050505050905087565b60008181548110610d2757600080fd5b9060005260206000209060090201600091509050806000018054610d4a9061205b565b80601f0160208091040260200160405190810160405280929190818152602001828054610d769061205b565b8015610dc35780601f10610d9857610100808354040283529160200191610dc3565b820191906000526020600020905b815481529060010190602001808311610da657829003601f168201915b505050505090806001018054610dd89061205b565b80601f0160208091040260200160405190810160405280929190818152602001828054610e049061205b565b8015610e515780601f10610e2657610100808354040283529160200191610e51565b820191906000526020600020905b815481529060010190602001808311610e3457829003601f168201915b5050505050908060020160009054906101000a900473ffffffffffffffffffffffffffffffffffffffff1690806003015490806004015490806005018054610e989061205b565b80601f0160208091040260200160405190810160405280929190818152602001828054610ec49061205b565b8015610f115780601f10610ee657610100808354040283529160200191610f11565b820191906000526020600020905b815481529060010190602001808311610ef457829003601f168201915b505050505090806006018054610f269061205b565b80601f0160208091040260200160405190810160405280929190818152602001828054610f529061205b565b8015610f9f5780601f10610f7457610100808354040283529160200191610f9f565b820191906000526020600020905b815481529060010190602001808311610f8257829003601f168201915b5050505050905087565b60606000805480602002602001604051908101604052809291908181526020016000905b828210156114645783829060005260206000209060090201604051806101200160405290816000820180546110019061205b565b80601f016020809104026020016040519081016040528092919081815260200182805461102d9061205b565b801561107a5780601f1061104f5761010080835404028352916020019161107a565b820191906000526020600020905b81548152906001019060200180831161105d57829003601f168201915b505050505081526020016001820180546110939061205b565b80601f01602080910402602001604051908101604052809291908181526020018280546110bf9061205b565b801561110c5780601f106110e15761010080835404028352916020019161110c565b820191906000526020600020905b8154815290600101906020018083116110ef57829003601f168201915b505050505081526020016002820160009054906101000a900473ffffffffffffffffffffffffffffffffffffffff1673ffffffffffffffffffffffffffffffffffffffff1673ffffffffffffffffffffffffffffffffffffffff168152602001600382015481526020016004820154815260200160058201805461118f9061205b565b80601f01602080910402602001604051908101604052809291908181526020018280546111bb9061205b565b80156112085780601f106111dd57610100808354040283529160200191611208565b820191906000526020600020905b8154815290600101906020018083116111eb57829003601f168201915b505050505081526020016006820180546112219061205b565b80601f016020809104026020016040519081016040528092919081815260200182805461124d9061205b565b801561129a5780601f1061126f5761010080835404028352916020019161129a565b820191906000526020600020905b81548152906001019060200180831161127d57829003601f168201915b5050505050815260200160078201805480602002602001604051908101604052809291908181526020016000905b828210156113745783829060005260206000200180546112e79061205b565b80601f01602080910402602001604051908101604052809291908181526020018280546113139061205b565b80156113605780601f1061133557610100808354040283529160200191611360565b820191906000526020600020905b81548152906001019060200180831161134357829003601f168201915b5050505050815260200190600101906112c8565b50505050815260200160088201805480602002602001604051908101604052809291908181526020016000905b8282101561144d5783829060005260206000200180546113c09061205b565b80601f01602080910402602001604051908101604052809291908181526020018280546113ec9061205b565b80156114395780601f1061140e57610100808354040283529160200191611439565b820191906000526020600020905b81548152906001019060200180831161141c57829003601f168201915b5050505050815260200190600101906113a1565b505050508152505081526020019060010190610fcd565b50505050905090565b8280548282559060005260206000209081019282156114b5579160200282015b828111156114b45782518290816114a49190612238565b509160200191906001019061148d565b5b5090506114c29190611585565b5090565b8280548282559060005260206000209081019282156115125760005260206000209182015b8281111561151157828290816115019190612320565b50916001019190600101906114eb565b5b50905061151f9190611585565b5090565b6040518061012001604052806060815260200160608152602001600073ffffffffffffffffffffffffffffffffffffffff1681526020016000815260200160008152602001606081526020016060815260200160608152602001606081525090565b5b808211156115a5576000818161159c91906115a9565b50600101611586565b5090565b5080546115b59061205b565b6000825580601f106115c757506115e6565b601f0160209004906000526020600020908101906115e591906115e9565b5b50565b5b808211156116025760008160009055506001016115ea565b5090565b6000604051905090565b600080fd5b600080fd5b600073ffffffffffffffffffffffffffffffffffffffff82169050919050565b60006116458261161a565b9050919050565b6116558161163a565b811461166057600080fd5b50565b6000813590506116728161164c565b92915050565b60006020828403121561168e5761168d611610565b5b600061169c84828501611663565b91505092915050565b60008115159050919050565b6116ba816116a5565b82525050565b60006020820190506116d560008301846116b1565b92915050565b600080fd5b600080fd5b6000601f19601f8301169050919050565b7f4e487b7100000000000000000000000000000000000000000000000000000000600052604160045260246000fd5b61172e826116e5565b810181811067ffffffffffffffff8211171561174d5761174c6116f6565b5b80604052505050565b6000611760611606565b905061176c8282611725565b919050565b600067ffffffffffffffff82111561178c5761178b6116f6565b5b611795826116e5565b9050602081019050919050565b82818337600083830152505050565b60006117c46117bf84611771565b611756565b9050828152602081018484840111156117e0576117df6116e0565b5b6117eb8482856117a2565b509392505050565b600082601f830112611808576118076116db565b5b81356118188482602086016117b1565b91505092915050565b6000819050919050565b61183481611821565b811461183f57600080fd5b50565b6000813590506118518161182b565b92915050565b600067ffffffffffffffff821115611872576118716116f6565b5b602082029050602081019050919050565b600080fd5b600061189b61189684611857565b611756565b905080838252602082019050602084028301858111156118be576118bd611883565b5b835b8181101561190557803567ffffffffffffffff8111156118e3576118e26116db565b5b8086016118f089826117f3565b855260208501945050506020810190506118c0565b5050509392505050565b600082601f830112611924576119236116db565b5b8135611934848260208601611888565b91505092915050565b600080600080600080600060e0888a03121561195c5761195b611610565b5b600088013567ffffffffffffffff81111561197a57611979611615565b5b6119868a828b016117f3565b975050602088013567ffffffffffffffff8111156119a7576119a6611615565b5b6119b38a828b016117f3565b96505060406119c48a828b01611663565b95505060606119d58a828b01611842565b945050608088013567ffffffffffffffff8111156119f6576119f5611615565b5b611a028a828b016117f3565b93505060a088013567ffffffffffffffff811115611a2357611a22611615565b5b611a2f8a828b016117f3565b92505060c088013567ffffffffffffffff811115611a5057611a4f611615565b5b611a5c8a828b0161190f565b91505092959891949750929550565b600081519050919050565b600082825260208201905092915050565b60005b83811015611aa5578082015181840152602081019050611a8a565b60008484015250505050565b6000611abc82611a6b565b611ac68185611a76565b9350611ad6818560208601611a87565b611adf816116e5565b840191505092915050565b611af38161163a565b82525050565b611b0281611821565b82525050565b600081519050919050565b600082825260208201905092915050565b6000819050602082019050919050565b6000611b408383611ab1565b905092915050565b6000602082019050919050565b6000611b6082611b08565b611b6a8185611b13565b935083602082028501611b7c85611b24565b8060005b85811015611bb85784840389528151611b998582611b34565b9450611ba483611b48565b925060208a01995050600181019050611b80565b50829750879550505050505092915050565b6000610120830160008301518482036000860152611be88282611ab1565b91505060208301518482036020860152611c028282611ab1565b9150506040830151611c176040860182611aea565b506060830151611c2a6060860182611af9565b506080830151611c3d6080860182611af9565b5060a083015184820360a0860152611c558282611ab1565b91505060c083015184820360c0860152611c6f8282611ab1565b91505060e083015184820360e0860152611c898282611b55565b915050610100830151848203610100860152611ca58282611b55565b9150508091505092915050565b60006020820190508181036000830152611ccc8184611bca565b905092915050565b600082825260208201905092915050565b6000611cf082611a6b565b611cfa8185611cd4565b9350611d0a818560208601611a87565b611d13816116e5565b840191505092915050565b611d278161163a565b82525050565b611d3681611821565b82525050565b600060e0820190508181036000830152611d56818a611ce5565b90508181036020830152611d6a8189611ce5565b9050611d796040830188611d1e565b611d866060830187611d2d565b611d936080830186611d2d565b81810360a0830152611da58185611ce5565b905081810360c0830152611db98184611ce5565b905098975050505050505050565b600060208284031215611ddd57611ddc611610565b5b6000611deb84828501611842565b91505092915050565b600081519050919050565b600082825260208201905092915050565b6000819050602082019050919050565b6000610120830160008301518482036000860152611e3e8282611ab1565b91505060208301518482036020860152611e588282611ab1565b9150506040830151611e6d6040860182611aea565b506060830151611e806060860182611af9565b506080830151611e936080860182611af9565b5060a083015184820360a0860152611eab8282611ab1565b91505060c083015184820360c0860152611ec58282611ab1565b91505060e083015184820360e0860152611edf8282611b55565b915050610100830151848203610100860152611efb8282611b55565b9150508091505092915050565b6000611f148383611e20565b905092915050565b6000602082019050919050565b6000611f3482611df4565b611f3e8185611dff565b935083602082028501611f5085611e10565b8060005b85811015611f8c5784840389528151611f6d8582611f08565b9450611f7883611f1c565b925060208a01995050600181019050611f54565b50829750879550505050505092915050565b60006020820190508181036000830152611fb88184611f29565b905092915050565b7f50726f66696c6520616c72656164792065786973747300000000000000000000600082015250565b6000611ff6601683611cd4565b915061200182611fc0565b602082019050919050565b6000602082019050818103600083015261202581611fe9565b9050919050565b7f4e487b7100000000000000000000000000000000000000000000000000000000600052602260045260246000fd5b6000600282049050600182168061207357607f821691505b6020821081036120865761208561202c565b5b50919050565b60008190508160005260206000209050919050565b60006020601f8301049050919050565b600082821b905092915050565b6000600883026120ee7fffffffffffffffffffffffffffffffffffffffffffffffffffffffffffffffff826120b1565b6120f886836120b1565b95508019841693508086168417925050509392505050565b6000819050919050565b600061213561213061212b84611821565b612110565b611821565b9050919050565b6000819050919050565b61214f8361211a565b61216361215b8261213c565b8484546120be565b825550505050565b600090565b61217861216b565b612183818484612146565b505050565b5b818110156121a75761219c600082612170565b600181019050612189565b5050565b601f8211156121ec576121bd8161208c565b6121c6846120a1565b810160208510156121d5578190505b6121e96121e1856120a1565b830182612188565b50505b505050565b600082821c905092915050565b600061220f600019846008026121f1565b1980831691505092915050565b600061222883836121fe565b9150826002028217905092915050565b61224182611a6b565b67ffffffffffffffff81111561225a576122596116f6565b5b612264825461205b565b61226f8282856121ab565b600060209050601f8311600181146122a25760008415612290578287015190505b61229a858261221c565b865550612302565b601f1984166122b08661208c565b60005b828110156122d8578489015182556001820191506020850194506020810190506122b3565b868310156122f557848901516122f1601f8916826121fe565b8355505b6001600288020188555050505b505050505050565b6000815490506123198161205b565b9050919050565b81810361232e575050612406565b6123378261230a565b67ffffffffffffffff8111156123505761234f6116f6565b5b61235a825461205b565b6123658282856121ab565b6000601f8311600181146123945760008415612382578287015490505b61238c858261221c565b8655506123ff565b601f1984166123a28761208c565b96506123ad8661208c565b60005b828110156123d5578489015482556001820191506001850194506020810190506123b0565b868310156123f257848901546123ee601f8916826121fe565b8355505b6001600288020188555050505b5050505050505b56fea2646970667358221220f86d18a61f5c7243cf5ec8965db1a1eb05a012d7788314b1e8fad1386306a26964736f6c63430008110033",
  "linkReferences": {},
  "deployedLinkReferences": {}
}