{
  "_format": "hh-sol-artifact-1",
  "contractName": "KlayverProfile",
  "sourceName": "contracts/KlayverProfile.sol",
  "abi": [
    {
      "inputs": [
        {
          "internalType": "string",
          "name": "_name",
          "type": "string"
        },
        {
          "internalType": "uint256",
          "name": "_monthlyCharge",
          "type": "uint256"
        },
        {
          "internalType": "string",
          "name": "_bio",
          "type": "string"
        },
        {
          "internalType": "string",
          "name": "_profession",
          "type": "string"
        },
        {
          "internalType": "string",
          "name": "_skills",
          "type": "string"
        }
      ],
      "name": "createAProfile",
      "outputs": [],
      "stateMutability": "nonpayable",
      "type": "function"
    },
    {
      "inputs": [
        {
          "internalType": "address",
          "name": "",
          "type": "address"
        }
      ],
      "name": "profileByAddress",
      "outputs": [
        {
          "internalType": "string",
          "name": "name",
          "type": "string"
        },
        {
          "internalType": "uint256",
          "name": "monthlyCharge",
          "type": "uint256"
        },
        {
          "internalType": "string",
          "name": "bio",
          "type": "string"
        },
        {
          "internalType": "string",
          "name": "profession",
          "type": "string"
        },
        {
          "internalType": "string",
          "name": "skills",
          "type": "string"
        },
        {
          "internalType": "string",
          "name": "reviews",
          "type": "string"
        },
        {
          "internalType": "address",
          "name": "owner",
          "type": "address"
        }
      ],
      "stateMutability": "view",
      "type": "function"
    },
    {
      "inputs": [
        {
          "internalType": "address",
          "name": "",
          "type": "address"
        }
      ],
      "name": "profileExists",
      "outputs": [
        {
          "internalType": "bool",
          "name": "",
          "type": "bool"
        }
      ],
      "stateMutability": "view",
      "type": "function"
    },
    {
      "inputs": [
        {
          "internalType": "uint256",
          "name": "",
          "type": "uint256"
        }
      ],
      "name": "profiles",
      "outputs": [
        {
          "internalType": "string",
          "name": "name",
          "type": "string"
        },
        {
          "internalType": "uint256",
          "name": "monthlyCharge",
          "type": "uint256"
        },
        {
          "internalType": "string",
          "name": "bio",
          "type": "string"
        },
        {
          "internalType": "string",
          "name": "profession",
          "type": "string"
        },
        {
          "internalType": "string",
          "name": "skills",
          "type": "string"
        },
        {
          "internalType": "string",
          "name": "reviews",
          "type": "string"
        },
        {
          "internalType": "address",
          "name": "owner",
          "type": "address"
        }
      ],
      "stateMutability": "view",
      "type": "function"
    },
    {
      "inputs": [],
      "name": "retrieveAllProfile",
      "outputs": [
        {
          "components": [
            {
              "internalType": "string",
              "name": "name",
              "type": "string"
            },
            {
              "internalType": "uint256",
              "name": "monthlyCharge",
              "type": "uint256"
            },
            {
              "internalType": "string",
              "name": "bio",
              "type": "string"
            },
            {
              "internalType": "string",
              "name": "profession",
              "type": "string"
            },
            {
              "internalType": "string",
              "name": "skills",
              "type": "string"
            },
            {
              "internalType": "string",
              "name": "reviews",
              "type": "string"
            },
            {
              "internalType": "address",
              "name": "owner",
              "type": "address"
            }
          ],
          "internalType": "struct KlayverProfile.Profile[]",
          "name": "",
          "type": "tuple[]"
        }
      ],
      "stateMutability": "view",
      "type": "function"
    },
    {
      "inputs": [
        {
          "internalType": "address",
          "name": "_owner",
          "type": "address"
        }
      ],
      "name": "retrieveUserDetail",
      "outputs": [
        {
          "components": [
            {
              "internalType": "string",
              "name": "name",
              "type": "string"
            },
            {
              "internalType": "uint256",
              "name": "monthlyCharge",
              "type": "uint256"
            },
            {
              "internalType": "string",
              "name": "bio",
              "type": "string"
            },
            {
              "internalType": "string",
              "name": "profession",
              "type": "string"
            },
            {
              "internalType": "string",
              "name": "skills",
              "type": "string"
            },
            {
              "internalType": "string",
              "name": "reviews",
              "type": "string"
            },
            {
              "internalType": "address",
              "name": "owner",
              "type": "address"
            }
          ],
          "internalType": "struct KlayverProfile.Profile",
          "name": "",
          "type": "tuple"
        }
      ],
      "stateMutability": "view",
      "type": "function"
    }
  ],
  "bytecode": "0x608060405234801561001057600080fd5b50611f0d806100206000396000f3fe608060405234801561001057600080fd5b50600436106100625760003560e01c806305cfa06f146100675780637d5b14de146100975780638315c86c146100b3578063ad97daf3146100e3578063c36fe3d614610119578063edbd51d81461014f575b600080fd5b610081600480360381019061007c919061138b565b61016d565b60405161008e91906113d3565b60405180910390f35b6100b160048036038101906100ac919061156a565b61018d565b005b6100cd60048036038101906100c8919061138b565b610576565b6040516100da91906117aa565b60405180910390f35b6100fd60048036038101906100f8919061138b565b610909565b6040516101109796959493929190611834565b60405180910390f35b610133600480360381019061012e91906118c6565b610c13565b6040516101469796959493929190611834565b60405180910390f35b610157610f2d565b6040516101649190611a6d565b60405180910390f35b60036020528060005260406000206000915054906101000a900460ff1681565b600360003373ffffffffffffffffffffffffffffffffffffffff1673ffffffffffffffffffffffffffffffffffffffff16815260200190815260200160002060009054906101000a900460ff161561021a576040517f08c379a000000000000000000000000000000000000000000000000000000000815260040161021190611adb565b60405180910390fd5b6000600260003373ffffffffffffffffffffffffffffffffffffffff1673ffffffffffffffffffffffffffffffffffffffff16815260200190815260200160002090508581600001908161026e9190611d07565b50848160010181905550838160020190816102899190611d07565b508281600301908161029b9190611d07565b50818160040190816102ad9190611d07565b50338160060160006101000a81548173ffffffffffffffffffffffffffffffffffffffff021916908373ffffffffffffffffffffffffffffffffffffffff1602179055506001819080600181540180825580915050600190039060005260206000209060070201600090919091909150600082018160000190816103319190611def565b5060018201548160010155600282018160020190816103509190611def565b50600382018160030190816103659190611def565b506004820181600401908161037a9190611def565b506005820181600501908161038f9190611def565b506006820160009054906101000a900473ffffffffffffffffffffffffffffffffffffffff168160060160006101000a81548173ffffffffffffffffffffffffffffffffffffffff021916908373ffffffffffffffffffffffffffffffffffffffff160217905550505080600260003373ffffffffffffffffffffffffffffffffffffffff1673ffffffffffffffffffffffffffffffffffffffff1681526020019081526020016000206000820181600001908161044d9190611def565b50600182015481600101556002820181600201908161046c9190611def565b50600382018160030190816104819190611def565b50600482018160040190816104969190611def565b50600582018160050190816104ab9190611def565b506006820160009054906101000a900473ffffffffffffffffffffffffffffffffffffffff168160060160006101000a81548173ffffffffffffffffffffffffffffffffffffffff021916908373ffffffffffffffffffffffffffffffffffffffff1602179055509050506001600360003373ffffffffffffffffffffffffffffffffffffffff1673ffffffffffffffffffffffffffffffffffffffff16815260200190815260200160002060006101000a81548160ff021916908315150217905550505050505050565b61057e6112c6565b600260008373ffffffffffffffffffffffffffffffffffffffff1673ffffffffffffffffffffffffffffffffffffffff1681526020019081526020016000206040518060e00160405290816000820180546105d890611b2a565b80601f016020809104026020016040519081016040528092919081815260200182805461060490611b2a565b80156106515780601f1061062657610100808354040283529160200191610651565b820191906000526020600020905b81548152906001019060200180831161063457829003601f168201915b505050505081526020016001820154815260200160028201805461067490611b2a565b80601f01602080910402602001604051908101604052809291908181526020018280546106a090611b2a565b80156106ed5780601f106106c2576101008083540402835291602001916106ed565b820191906000526020600020905b8154815290600101906020018083116106d057829003601f168201915b5050505050815260200160038201805461070690611b2a565b80601f016020809104026020016040519081016040528092919081815260200182805461073290611b2a565b801561077f5780601f106107545761010080835404028352916020019161077f565b820191906000526020600020905b81548152906001019060200180831161076257829003601f168201915b5050505050815260200160048201805461079890611b2a565b80601f01602080910402602001604051908101604052809291908181526020018280546107c490611b2a565b80156108115780601f106107e657610100808354040283529160200191610811565b820191906000526020600020905b8154815290600101906020018083116107f457829003601f168201915b5050505050815260200160058201805461082a90611b2a565b80601f016020809104026020016040519081016040528092919081815260200182805461085690611b2a565b80156108a35780601f10610878576101008083540402835291602001916108a3565b820191906000526020600020905b81548152906001019060200180831161088657829003601f168201915b505050505081526020016006820160009054906101000a900473ffffffffffffffffffffffffffffffffffffffff1673ffffffffffffffffffffffffffffffffffffffff1673ffffffffffffffffffffffffffffffffffffffff16815250509050919050565b600260205280600052604060002060009150905080600001805461092c90611b2a565b80601f016020809104026020016040519081016040528092919081815260200182805461095890611b2a565b80156109a55780601f1061097a576101008083540402835291602001916109a5565b820191906000526020600020905b81548152906001019060200180831161098857829003601f168201915b5050505050908060010154908060020180546109c090611b2a565b80601f01602080910402602001604051908101604052809291908181526020018280546109ec90611b2a565b8015610a395780601f10610a0e57610100808354040283529160200191610a39565b820191906000526020600020905b815481529060010190602001808311610a1c57829003601f168201915b505050505090806003018054610a4e90611b2a565b80601f0160208091040260200160405190810160405280929190818152602001828054610a7a90611b2a565b8015610ac75780601f10610a9c57610100808354040283529160200191610ac7565b820191906000526020600020905b815481529060010190602001808311610aaa57829003601f168201915b505050505090806004018054610adc90611b2a565b80601f0160208091040260200160405190810160405280929190818152602001828054610b0890611b2a565b8015610b555780601f10610b2a57610100808354040283529160200191610b55565b820191906000526020600020905b815481529060010190602001808311610b3857829003601f168201915b505050505090806005018054610b6a90611b2a565b80601f0160208091040260200160405190810160405280929190818152602001828054610b9690611b2a565b8015610be35780601f10610bb857610100808354040283529160200191610be3565b820191906000526020600020905b815481529060010190602001808311610bc657829003601f168201915b5050505050908060060160009054906101000a900473ffffffffffffffffffffffffffffffffffffffff16905087565b60018181548110610c2357600080fd5b9060005260206000209060070201600091509050806000018054610c4690611b2a565b80601f0160208091040260200160405190810160405280929190818152602001828054610c7290611b2a565b8015610cbf5780601f10610c9457610100808354040283529160200191610cbf565b820191906000526020600020905b815481529060010190602001808311610ca257829003601f168201915b505050505090806001015490806002018054610cda90611b2a565b80601f0160208091040260200160405190810160405280929190818152602001828054610d0690611b2a565b8015610d535780601f10610d2857610100808354040283529160200191610d53565b820191906000526020600020905b815481529060010190602001808311610d3657829003601f168201915b505050505090806003018054610d6890611b2a565b80601f0160208091040260200160405190810160405280929190818152602001828054610d9490611b2a565b8015610de15780601f10610db657610100808354040283529160200191610de1565b820191906000526020600020905b815481529060010190602001808311610dc457829003601f168201915b505050505090806004018054610df690611b2a565b80601f0160208091040260200160405190810160405280929190818152602001828054610e2290611b2a565b8015610e6f5780601f10610e4457610100808354040283529160200191610e6f565b820191906000526020600020905b815481529060010190602001808311610e5257829003601f168201915b505050505090806005018054610e8490611b2a565b80601f0160208091040260200160405190810160405280929190818152602001828054610eb090611b2a565b8015610efd5780601f10610ed257610100808354040283529160200191610efd565b820191906000526020600020905b815481529060010190602001808311610ee057829003601f168201915b5050505050908060060160009054906101000a900473ffffffffffffffffffffffffffffffffffffffff16905087565b60606001805480602002602001604051908101604052809291908181526020016000905b828210156112bd57838290600052602060002090600702016040518060e0016040529081600082018054610f8490611b2a565b80601f0160208091040260200160405190810160405280929190818152602001828054610fb090611b2a565b8015610ffd5780601f10610fd257610100808354040283529160200191610ffd565b820191906000526020600020905b815481529060010190602001808311610fe057829003601f168201915b505050505081526020016001820154815260200160028201805461102090611b2a565b80601f016020809104026020016040519081016040528092919081815260200182805461104c90611b2a565b80156110995780601f1061106e57610100808354040283529160200191611099565b820191906000526020600020905b81548152906001019060200180831161107c57829003601f168201915b505050505081526020016003820180546110b290611b2a565b80601f01602080910402602001604051908101604052809291908181526020018280546110de90611b2a565b801561112b5780601f106111005761010080835404028352916020019161112b565b820191906000526020600020905b81548152906001019060200180831161110e57829003601f168201915b5050505050815260200160048201805461114490611b2a565b80601f016020809104026020016040519081016040528092919081815260200182805461117090611b2a565b80156111bd5780601f10611192576101008083540402835291602001916111bd565b820191906000526020600020905b8154815290600101906020018083116111a057829003601f168201915b505050505081526020016005820180546111d690611b2a565b80601f016020809104026020016040519081016040528092919081815260200182805461120290611b2a565b801561124f5780601f106112245761010080835404028352916020019161124f565b820191906000526020600020905b81548152906001019060200180831161123257829003601f168201915b505050505081526020016006820160009054906101000a900473ffffffffffffffffffffffffffffffffffffffff1673ffffffffffffffffffffffffffffffffffffffff1673ffffffffffffffffffffffffffffffffffffffff168152505081526020019060010190610f51565b50505050905090565b6040518060e00160405280606081526020016000815260200160608152602001606081526020016060815260200160608152602001600073ffffffffffffffffffffffffffffffffffffffff1681525090565b6000604051905090565b600080fd5b600080fd5b600073ffffffffffffffffffffffffffffffffffffffff82169050919050565b60006113588261132d565b9050919050565b6113688161134d565b811461137357600080fd5b50565b6000813590506113858161135f565b92915050565b6000602082840312156113a1576113a0611323565b5b60006113af84828501611376565b91505092915050565b60008115159050919050565b6113cd816113b8565b82525050565b60006020820190506113e860008301846113c4565b92915050565b600080fd5b600080fd5b6000601f19601f8301169050919050565b7f4e487b7100000000000000000000000000000000000000000000000000000000600052604160045260246000fd5b611441826113f8565b810181811067ffffffffffffffff821117156114605761145f611409565b5b80604052505050565b6000611473611319565b905061147f8282611438565b919050565b600067ffffffffffffffff82111561149f5761149e611409565b5b6114a8826113f8565b9050602081019050919050565b82818337600083830152505050565b60006114d76114d284611484565b611469565b9050828152602081018484840111156114f3576114f26113f3565b5b6114fe8482856114b5565b509392505050565b600082601f83011261151b5761151a6113ee565b5b813561152b8482602086016114c4565b91505092915050565b6000819050919050565b61154781611534565b811461155257600080fd5b50565b6000813590506115648161153e565b92915050565b600080600080600060a0868803121561158657611585611323565b5b600086013567ffffffffffffffff8111156115a4576115a3611328565b5b6115b088828901611506565b95505060206115c188828901611555565b945050604086013567ffffffffffffffff8111156115e2576115e1611328565b5b6115ee88828901611506565b935050606086013567ffffffffffffffff81111561160f5761160e611328565b5b61161b88828901611506565b925050608086013567ffffffffffffffff81111561163c5761163b611328565b5b61164888828901611506565b9150509295509295909350565b600081519050919050565b600082825260208201905092915050565b60005b8381101561168f578082015181840152602081019050611674565b60008484015250505050565b60006116a682611655565b6116b08185611660565b93506116c0818560208601611671565b6116c9816113f8565b840191505092915050565b6116dd81611534565b82525050565b6116ec8161134d565b82525050565b600060e083016000830151848203600086015261170f828261169b565b915050602083015161172460208601826116d4565b506040830151848203604086015261173c828261169b565b91505060608301518482036060860152611756828261169b565b91505060808301518482036080860152611770828261169b565b91505060a083015184820360a086015261178a828261169b565b91505060c083015161179f60c08601826116e3565b508091505092915050565b600060208201905081810360008301526117c481846116f2565b905092915050565b600082825260208201905092915050565b60006117e882611655565b6117f281856117cc565b9350611802818560208601611671565b61180b816113f8565b840191505092915050565b61181f81611534565b82525050565b61182e8161134d565b82525050565b600060e082019050818103600083015261184e818a6117dd565b905061185d6020830189611816565b818103604083015261186f81886117dd565b9050818103606083015261188381876117dd565b9050818103608083015261189781866117dd565b905081810360a08301526118ab81856117dd565b90506118ba60c0830184611825565b98975050505050505050565b6000602082840312156118dc576118db611323565b5b60006118ea84828501611555565b91505092915050565b600081519050919050565b600082825260208201905092915050565b6000819050602082019050919050565b600060e083016000830151848203600086015261193c828261169b565b915050602083015161195160208601826116d4565b5060408301518482036040860152611969828261169b565b91505060608301518482036060860152611983828261169b565b9150506080830151848203608086015261199d828261169b565b91505060a083015184820360a08601526119b7828261169b565b91505060c08301516119cc60c08601826116e3565b508091505092915050565b60006119e3838361191f565b905092915050565b6000602082019050919050565b6000611a03826118f3565b611a0d81856118fe565b935083602082028501611a1f8561190f565b8060005b85811015611a5b5784840389528151611a3c85826119d7565b9450611a47836119eb565b925060208a01995050600181019050611a23565b50829750879550505050505092915050565b60006020820190508181036000830152611a8781846119f8565b905092915050565b7f50726f66696c6520616c72656164792065786973747300000000000000000000600082015250565b6000611ac56016836117cc565b9150611ad082611a8f565b602082019050919050565b60006020820190508181036000830152611af481611ab8565b9050919050565b7f4e487b7100000000000000000000000000000000000000000000000000000000600052602260045260246000fd5b60006002820490506001821680611b4257607f821691505b602082108103611b5557611b54611afb565b5b50919050565b60008190508160005260206000209050919050565b60006020601f8301049050919050565b600082821b905092915050565b600060088302611bbd7fffffffffffffffffffffffffffffffffffffffffffffffffffffffffffffffff82611b80565b611bc78683611b80565b95508019841693508086168417925050509392505050565b6000819050919050565b6000611c04611bff611bfa84611534565b611bdf565b611534565b9050919050565b6000819050919050565b611c1e83611be9565b611c32611c2a82611c0b565b848454611b8d565b825550505050565b600090565b611c47611c3a565b611c52818484611c15565b505050565b5b81811015611c7657611c6b600082611c3f565b600181019050611c58565b5050565b601f821115611cbb57611c8c81611b5b565b611c9584611b70565b81016020851015611ca4578190505b611cb8611cb085611b70565b830182611c57565b50505b505050565b600082821c905092915050565b6000611cde60001984600802611cc0565b1980831691505092915050565b6000611cf78383611ccd565b9150826002028217905092915050565b611d1082611655565b67ffffffffffffffff811115611d2957611d28611409565b5b611d338254611b2a565b611d3e828285611c7a565b600060209050601f831160018114611d715760008415611d5f578287015190505b611d698582611ceb565b865550611dd1565b601f198416611d7f86611b5b565b60005b82811015611da757848901518255600182019150602085019450602081019050611d82565b86831015611dc45784890151611dc0601f891682611ccd565b8355505b6001600288020188555050505b505050505050565b600081549050611de881611b2a565b9050919050565b818103611dfd575050611ed5565b611e0682611dd9565b67ffffffffffffffff811115611e1f57611e1e611409565b5b611e298254611b2a565b611e34828285611c7a565b6000601f831160018114611e635760008415611e51578287015490505b611e5b8582611ceb565b865550611ece565b601f198416611e7187611b5b565b9650611e7c86611b5b565b60005b82811015611ea457848901548255600182019150600185019450602081019050611e7f565b86831015611ec15784890154611ebd601f891682611ccd565b8355505b6001600288020188555050505b5050505050505b56fea26469706673582212209b004a832dd60301c21c33f723af2d90f90ca2d17854762e34bb78a88c8dae9564736f6c63430008110033",
  "linkReferences": {},
  "deployedLinkReferences": {}
}