{
  "_format": "hh-sol-artifact-1",
  "contractName": "KlayContent",
  "sourceName": "contracts/KlayContent.sol",
  "abi": [
    {
      "inputs": [],
      "stateMutability": "nonpayable",
      "type": "constructor"
    },
    {
      "anonymous": false,
      "inputs": [
        {
          "indexed": true,
          "internalType": "address",
          "name": "owner",
          "type": "address"
        },
        {
          "indexed": true,
          "internalType": "address",
          "name": "approved",
          "type": "address"
        },
        {
          "indexed": true,
          "internalType": "uint256",
          "name": "tokenId",
          "type": "uint256"
        }
      ],
      "name": "Approval",
      "type": "event"
    },
    {
      "anonymous": false,
      "inputs": [
        {
          "indexed": true,
          "internalType": "address",
          "name": "owner",
          "type": "address"
        },
        {
          "indexed": true,
          "internalType": "address",
          "name": "operator",
          "type": "address"
        },
        {
          "indexed": false,
          "internalType": "bool",
          "name": "approved",
          "type": "bool"
        }
      ],
      "name": "ApprovalForAll",
      "type": "event"
    },
    {
      "anonymous": false,
      "inputs": [
        {
          "indexed": true,
          "internalType": "address",
          "name": "minter",
          "type": "address"
        },
        {
          "indexed": true,
          "internalType": "uint256",
          "name": "klayId",
          "type": "uint256"
        }
      ],
      "name": "PostMinted",
      "type": "event"
    },
    {
      "anonymous": false,
      "inputs": [
        {
          "indexed": true,
          "internalType": "address",
          "name": "from",
          "type": "address"
        },
        {
          "indexed": true,
          "internalType": "address",
          "name": "to",
          "type": "address"
        },
        {
          "indexed": true,
          "internalType": "uint256",
          "name": "tokenId",
          "type": "uint256"
        }
      ],
      "name": "Transfer",
      "type": "event"
    },
    {
      "inputs": [
        {
          "internalType": "address",
          "name": "to",
          "type": "address"
        },
        {
          "internalType": "uint256",
          "name": "tokenId",
          "type": "uint256"
        }
      ],
      "name": "approve",
      "outputs": [],
      "stateMutability": "nonpayable",
      "type": "function"
    },
    {
      "inputs": [
        {
          "internalType": "address",
          "name": "owner",
          "type": "address"
        }
      ],
      "name": "balanceOf",
      "outputs": [
        {
          "internalType": "uint256",
          "name": "",
          "type": "uint256"
        }
      ],
      "stateMutability": "view",
      "type": "function"
    },
    {
      "inputs": [
        {
          "internalType": "string",
          "name": "_newImage",
          "type": "string"
        },
        {
          "internalType": "string",
          "name": "_newPost",
          "type": "string"
        }
      ],
      "name": "createAKlay",
      "outputs": [],
      "stateMutability": "nonpayable",
      "type": "function"
    },
    {
      "inputs": [
        {
          "internalType": "uint256",
          "name": "tokenId",
          "type": "uint256"
        }
      ],
      "name": "getApproved",
      "outputs": [
        {
          "internalType": "address",
          "name": "",
          "type": "address"
        }
      ],
      "stateMutability": "view",
      "type": "function"
    },
    {
      "inputs": [
        {
          "internalType": "address",
          "name": "owner",
          "type": "address"
        },
        {
          "internalType": "address",
          "name": "operator",
          "type": "address"
        }
      ],
      "name": "isApprovedForAll",
      "outputs": [
        {
          "internalType": "bool",
          "name": "",
          "type": "bool"
        }
      ],
      "stateMutability": "view",
      "type": "function"
    },
    {
      "inputs": [
        {
          "internalType": "uint256",
          "name": "klayId",
          "type": "uint256"
        }
      ],
      "name": "mintPost",
      "outputs": [],
      "stateMutability": "nonpayable",
      "type": "function"
    },
    {
      "inputs": [],
      "name": "name",
      "outputs": [
        {
          "internalType": "string",
          "name": "",
          "type": "string"
        }
      ],
      "stateMutability": "view",
      "type": "function"
    },
    {
      "inputs": [
        {
          "internalType": "uint256",
          "name": "tokenId",
          "type": "uint256"
        }
      ],
      "name": "ownerOf",
      "outputs": [
        {
          "internalType": "address",
          "name": "",
          "type": "address"
        }
      ],
      "stateMutability": "view",
      "type": "function"
    },
    {
      "inputs": [],
      "name": "retrieveKlays",
      "outputs": [
        {
          "components": [
            {
              "internalType": "string",
              "name": "image",
              "type": "string"
            },
            {
              "internalType": "string",
              "name": "post",
              "type": "string"
            },
            {
              "internalType": "address",
              "name": "owner",
              "type": "address"
            },
            {
              "internalType": "uint256",
              "name": "klayId",
              "type": "uint256"
            }
          ],
          "internalType": "struct KlayContent.Klay[]",
          "name": "",
          "type": "tuple[]"
        }
      ],
      "stateMutability": "view",
      "type": "function"
    },
    {
      "inputs": [
        {
          "internalType": "address",
          "name": "from",
          "type": "address"
        },
        {
          "internalType": "address",
          "name": "to",
          "type": "address"
        },
        {
          "internalType": "uint256",
          "name": "tokenId",
          "type": "uint256"
        }
      ],
      "name": "safeTransferFrom",
      "outputs": [],
      "stateMutability": "nonpayable",
      "type": "function"
    },
    {
      "inputs": [
        {
          "internalType": "address",
          "name": "from",
          "type": "address"
        },
        {
          "internalType": "address",
          "name": "to",
          "type": "address"
        },
        {
          "internalType": "uint256",
          "name": "tokenId",
          "type": "uint256"
        },
        {
          "internalType": "bytes",
          "name": "_data",
          "type": "bytes"
        }
      ],
      "name": "safeTransferFrom",
      "outputs": [],
      "stateMutability": "nonpayable",
      "type": "function"
    },
    {
      "inputs": [
        {
          "internalType": "address",
          "name": "operator",
          "type": "address"
        },
        {
          "internalType": "bool",
          "name": "approved",
          "type": "bool"
        }
      ],
      "name": "setApprovalForAll",
      "outputs": [],
      "stateMutability": "nonpayable",
      "type": "function"
    },
    {
      "inputs": [
        {
          "internalType": "bytes4",
          "name": "interfaceId",
          "type": "bytes4"
        }
      ],
      "name": "supportsInterface",
      "outputs": [
        {
          "internalType": "bool",
          "name": "",
          "type": "bool"
        }
      ],
      "stateMutability": "view",
      "type": "function"
    },
    {
      "inputs": [],
      "name": "symbol",
      "outputs": [
        {
          "internalType": "string",
          "name": "",
          "type": "string"
        }
      ],
      "stateMutability": "view",
      "type": "function"
    },
    {
      "inputs": [
        {
          "internalType": "uint256",
          "name": "index",
          "type": "uint256"
        }
      ],
      "name": "tokenByIndex",
      "outputs": [
        {
          "internalType": "uint256",
          "name": "",
          "type": "uint256"
        }
      ],
      "stateMutability": "view",
      "type": "function"
    },
    {
      "inputs": [
        {
          "internalType": "address",
          "name": "owner",
          "type": "address"
        },
        {
          "internalType": "uint256",
          "name": "index",
          "type": "uint256"
        }
      ],
      "name": "tokenOfOwnerByIndex",
      "outputs": [
        {
          "internalType": "uint256",
          "name": "",
          "type": "uint256"
        }
      ],
      "stateMutability": "view",
      "type": "function"
    },
    {
      "inputs": [
        {
          "internalType": "uint256",
          "name": "tokenId",
          "type": "uint256"
        }
      ],
      "name": "tokenURI",
      "outputs": [
        {
          "internalType": "string",
          "name": "",
          "type": "string"
        }
      ],
      "stateMutability": "view",
      "type": "function"
    },
    {
      "inputs": [],
      "name": "totalSupply",
      "outputs": [
        {
          "internalType": "uint256",
          "name": "",
          "type": "uint256"
        }
      ],
      "stateMutability": "view",
      "type": "function"
    },
    {
      "inputs": [
        {
          "internalType": "address",
          "name": "from",
          "type": "address"
        },
        {
          "internalType": "address",
          "name": "to",
          "type": "address"
        },
        {
          "internalType": "uint256",
          "name": "tokenId",
          "type": "uint256"
        }
      ],
      "name": "transferFrom",
      "outputs": [],
      "stateMutability": "nonpayable",
      "type": "function"
    }
  ],
  "bytecode": "0x60806040523480156200001157600080fd5b506040518060400160405280600b81526020017f4b6c6179436f6e74656e740000000000000000000000000000000000000000008152506040518060400160405280600381526020017f4b4354000000000000000000000000000000000000000000000000000000000081525081600090816200008f919062000324565b508060019081620000a1919062000324565b5050506200040b565b600081519050919050565b7f4e487b7100000000000000000000000000000000000000000000000000000000600052604160045260246000fd5b7f4e487b7100000000000000000000000000000000000000000000000000000000600052602260045260246000fd5b600060028204905060018216806200012c57607f821691505b602082108103620001425762000141620000e4565b5b50919050565b60008190508160005260206000209050919050565b60006020601f8301049050919050565b600082821b905092915050565b600060088302620001ac7fffffffffffffffffffffffffffffffffffffffffffffffffffffffffffffffff826200016d565b620001b886836200016d565b95508019841693508086168417925050509392505050565b6000819050919050565b6000819050919050565b600062000205620001ff620001f984620001d0565b620001da565b620001d0565b9050919050565b6000819050919050565b6200022183620001e4565b6200023962000230826200020c565b8484546200017a565b825550505050565b600090565b6200025062000241565b6200025d81848462000216565b505050565b5b8181101562000285576200027960008262000246565b60018101905062000263565b5050565b601f821115620002d4576200029e8162000148565b620002a9846200015d565b81016020851015620002b9578190505b620002d1620002c8856200015d565b83018262000262565b50505b505050565b600082821c905092915050565b6000620002f960001984600802620002d9565b1980831691505092915050565b6000620003148383620002e6565b9150826002028217905092915050565b6200032f82620000aa565b67ffffffffffffffff8111156200034b576200034a620000b5565b5b62000357825462000113565b6200036482828562000289565b600060209050601f8311600181146200039c576000841562000387578287015190505b62000393858262000306565b86555062000403565b601f198416620003ac8662000148565b60005b82811015620003d657848901518255600182019150602085019450602081019050620003af565b86831015620003f65784890151620003f2601f891682620002e6565b8355505b6001600288020188555050505b505050505050565b613b3e806200041b6000396000f3fe608060405234801561001057600080fd5b50600436106101215760003560e01c80634f6ccce7116100ad578063b88d4fde11610071578063b88d4fde1461032c578063c87b56dd14610348578063e985e9c514610378578063efbec49d146103a8578063f3c9c9ed146103c657610121565b80634f6ccce7146102625780636352211e1461029257806370a08231146102c257806395d89b41146102f2578063a22cb4651461031057610121565b806318160ddd116100f457806318160ddd146101c057806323b872dd146101de5780632f745c59146101fa57806342842e0e1461022a5780634cb6bbff1461024657610121565b806301ffc9a71461012657806306fdde0314610156578063081812fc14610174578063095ea7b3146101a4575b600080fd5b610140600480360381019061013b9190612376565b6103e2565b60405161014d91906123be565b60405180910390f35b61015e61045c565b60405161016b9190612469565b60405180910390f35b61018e600480360381019061018991906124c1565b6104ee565b60405161019b919061252f565b60405180910390f35b6101be60048036038101906101b99190612576565b610573565b005b6101c861068a565b6040516101d591906125c5565b60405180910390f35b6101f860048036038101906101f391906125e0565b610697565b005b610214600480360381019061020f9190612576565b6106f7565b60405161022191906125c5565b60405180910390f35b610244600480360381019061023f91906125e0565b61079c565b005b610260600480360381019061025b91906124c1565b6107bc565b005b61027c600480360381019061027791906124c1565b610920565b60405161028991906125c5565b60405180910390f35b6102ac60048036038101906102a791906124c1565b610991565b6040516102b9919061252f565b60405180910390f35b6102dc60048036038101906102d79190612633565b610a42565b6040516102e991906125c5565b60405180910390f35b6102fa610af9565b6040516103079190612469565b60405180910390f35b61032a6004803603810190610325919061268c565b610b8b565b005b61034660048036038101906103419190612801565b610ba1565b005b610362600480360381019061035d91906124c1565b610c03565b60405161036f9190612469565b60405180910390f35b610392600480360381019061038d9190612884565b610caa565b60405161039f91906123be565b60405180910390f35b6103b0610d3e565b6040516103bd9190612a58565b60405180910390f35b6103e060048036038101906103db9190612b1b565b610f93565b005b60007f780e9d63000000000000000000000000000000000000000000000000000000007bffffffffffffffffffffffffffffffffffffffffffffffffffffffff1916827bffffffffffffffffffffffffffffffffffffffffffffffffffffffff19161480610455575061045482611042565b5b9050919050565b60606000805461046b90612bc2565b80601f016020809104026020016040519081016040528092919081815260200182805461049790612bc2565b80156104e45780601f106104b9576101008083540402835291602001916104e4565b820191906000526020600020905b8154815290600101906020018083116104c757829003601f168201915b5050505050905090565b60006104f982611124565b610538576040517f08c379a000000000000000000000000000000000000000000000000000000000815260040161052f90612c65565b60405180910390fd5b6004600083815260200190815260200160002060009054906101000a900473ffffffffffffffffffffffffffffffffffffffff169050919050565b600061057e82610991565b90508073ffffffffffffffffffffffffffffffffffffffff168373ffffffffffffffffffffffffffffffffffffffff16036105ee576040517f08c379a00000000000000000000000000000000000000000000000000000000081526004016105e590612cd1565b60405180910390fd5b8073ffffffffffffffffffffffffffffffffffffffff1661060d611190565b73ffffffffffffffffffffffffffffffffffffffff16148061063c575061063b81610636611190565b610caa565b5b61067b576040517f08c379a000000000000000000000000000000000000000000000000000000000815260040161067290612d63565b60405180910390fd5b6106858383611198565b505050565b6000600880549050905090565b6106a86106a2611190565b82611251565b6106e7576040517f08c379a00000000000000000000000000000000000000000000000000000000081526004016106de90612df5565b60405180910390fd5b6106f283838361132f565b505050565b600061070283610a42565b8210610743576040517f08c379a000000000000000000000000000000000000000000000000000000000815260040161073a90612e87565b60405180910390fd5b600660008473ffffffffffffffffffffffffffffffffffffffff1673ffffffffffffffffffffffffffffffffffffffff168152602001908152602001600020600083815260200190815260200160002054905092915050565b6107b783838360405180602001604052806000815250610ba1565b505050565b806107c681611124565b610805576040517f08c379a00000000000000000000000000000000000000000000000000000000081526004016107fc90612ef3565b60405180910390fd5b813373ffffffffffffffffffffffffffffffffffffffff1661082682610991565b73ffffffffffffffffffffffffffffffffffffffff161461087c576040517f08c379a000000000000000000000000000000000000000000000000000000000815260040161087390612f5f565b60405180910390fd5b6000600b60008581526020019081526020016000209050338160020160006101000a81548173ffffffffffffffffffffffffffffffffffffffff021916908373ffffffffffffffffffffffffffffffffffffffff160217905550833373ffffffffffffffffffffffffffffffffffffffff167fd852aa4d9cd42729feecec67cd81ffa0707e1b8f5bd9bad2dd58be62a600453560405160405180910390a350505050565b600061092a61068a565b821061096b576040517f08c379a000000000000000000000000000000000000000000000000000000000815260040161096290612ff1565b60405180910390fd5b6008828154811061097f5761097e613011565b5b90600052602060002001549050919050565b6000806002600084815260200190815260200160002060009054906101000a900473ffffffffffffffffffffffffffffffffffffffff169050600073ffffffffffffffffffffffffffffffffffffffff168173ffffffffffffffffffffffffffffffffffffffff1603610a39576040517f08c379a0000000000000000000000000000000000000000000000000000000008152600401610a30906130b2565b60405180910390fd5b80915050919050565b60008073ffffffffffffffffffffffffffffffffffffffff168273ffffffffffffffffffffffffffffffffffffffff1603610ab2576040517f08c379a0000000000000000000000000000000000000000000000000000000008152600401610aa990613144565b60405180910390fd5b600360008373ffffffffffffffffffffffffffffffffffffffff1673ffffffffffffffffffffffffffffffffffffffff168152602001908152602001600020549050919050565b606060018054610b0890612bc2565b80601f0160208091040260200160405190810160405280929190818152602001828054610b3490612bc2565b8015610b815780601f10610b5657610100808354040283529160200191610b81565b820191906000526020600020905b815481529060010190602001808311610b6457829003601f168201915b5050505050905090565b610b9d610b96611190565b8383611595565b5050565b610bb2610bac611190565b83611251565b610bf1576040517f08c379a0000000000000000000000000000000000000000000000000000000008152600401610be890612df5565b60405180910390fd5b610bfd84848484611701565b50505050565b6060610c0e82611124565b610c4d576040517f08c379a0000000000000000000000000000000000000000000000000000000008152600401610c44906131d6565b60405180910390fd5b6000610c57611770565b90506000815111610c775760405180602001604052806000815250610ca2565b80610c8184611787565b604051602001610c92929190613232565b6040516020818303038152906040525b915050919050565b6000600560008473ffffffffffffffffffffffffffffffffffffffff1673ffffffffffffffffffffffffffffffffffffffff16815260200190815260200160002060008373ffffffffffffffffffffffffffffffffffffffff1673ffffffffffffffffffffffffffffffffffffffff16815260200190815260200160002060009054906101000a900460ff16905092915050565b60606000610d4a61068a565b905060008167ffffffffffffffff811115610d6857610d676126d6565b5b604051908082528060200260200182016040528015610da157816020015b610d8e6122cc565b815260200190600190039081610d865790505b50905060005b82811015610f8a57600b6000610dbc83610920565b8152602001908152602001600020604051806080016040529081600082018054610de590612bc2565b80601f0160208091040260200160405190810160405280929190818152602001828054610e1190612bc2565b8015610e5e5780601f10610e3357610100808354040283529160200191610e5e565b820191906000526020600020905b815481529060010190602001808311610e4157829003601f168201915b50505050508152602001600182018054610e7790612bc2565b80601f0160208091040260200160405190810160405280929190818152602001828054610ea390612bc2565b8015610ef05780601f10610ec557610100808354040283529160200191610ef0565b820191906000526020600020905b815481529060010190602001808311610ed357829003601f168201915b505050505081526020016002820160009054906101000a900473ffffffffffffffffffffffffffffffffffffffff1673ffffffffffffffffffffffffffffffffffffffff1673ffffffffffffffffffffffffffffffffffffffff168152602001600382015481525050828281518110610f6c57610f6b613011565b5b60200260200101819052508080610f8290613285565b915050610da7565b50809250505090565b6000610f9f600a6118e7565b9050610fab33826118f5565b6000600b6000838152602001908152602001600020905083816000019081610fd39190613479565b5082816001019081610fe59190613479565b50338160020160006101000a81548173ffffffffffffffffffffffffffffffffffffffff021916908373ffffffffffffffffffffffffffffffffffffffff16021790555081816003018190555061103c600a611913565b50505050565b60007f80ac58cd000000000000000000000000000000000000000000000000000000007bffffffffffffffffffffffffffffffffffffffffffffffffffffffff1916827bffffffffffffffffffffffffffffffffffffffffffffffffffffffff1916148061110d57507f5b5e139f000000000000000000000000000000000000000000000000000000007bffffffffffffffffffffffffffffffffffffffffffffffffffffffff1916827bffffffffffffffffffffffffffffffffffffffffffffffffffffffff1916145b8061111d575061111c82611929565b5b9050919050565b60008073ffffffffffffffffffffffffffffffffffffffff166002600084815260200190815260200160002060009054906101000a900473ffffffffffffffffffffffffffffffffffffffff1673ffffffffffffffffffffffffffffffffffffffff1614159050919050565b600033905090565b816004600083815260200190815260200160002060006101000a81548173ffffffffffffffffffffffffffffffffffffffff021916908373ffffffffffffffffffffffffffffffffffffffff160217905550808273ffffffffffffffffffffffffffffffffffffffff1661120b83610991565b73ffffffffffffffffffffffffffffffffffffffff167f8c5be1e5ebec7d5bd14f71427d1e84f3dd0314c0f7b2291e5b200ac8c7c3b92560405160405180910390a45050565b600061125c82611124565b61129b576040517f08c379a0000000000000000000000000000000000000000000000000000000008152600401611292906135bd565b60405180910390fd5b60006112a683610991565b90508073ffffffffffffffffffffffffffffffffffffffff168473ffffffffffffffffffffffffffffffffffffffff1614806112e857506112e78185610caa565b5b8061132657508373ffffffffffffffffffffffffffffffffffffffff1661130e846104ee565b73ffffffffffffffffffffffffffffffffffffffff16145b91505092915050565b8273ffffffffffffffffffffffffffffffffffffffff1661134f82610991565b73ffffffffffffffffffffffffffffffffffffffff16146113a5576040517f08c379a000000000000000000000000000000000000000000000000000000000815260040161139c9061364f565b60405180910390fd5b600073ffffffffffffffffffffffffffffffffffffffff168273ffffffffffffffffffffffffffffffffffffffff1603611414576040517f08c379a000000000000000000000000000000000000000000000000000000000815260040161140b906136e1565b60405180910390fd5b61141f838383611993565b61142a600082611198565b6001600360008573ffffffffffffffffffffffffffffffffffffffff1673ffffffffffffffffffffffffffffffffffffffff168152602001908152602001600020600082825461147a9190613701565b925050819055506001600360008473ffffffffffffffffffffffffffffffffffffffff1673ffffffffffffffffffffffffffffffffffffffff16815260200190815260200160002060008282546114d19190613735565b92505081905550816002600083815260200190815260200160002060006101000a81548173ffffffffffffffffffffffffffffffffffffffff021916908373ffffffffffffffffffffffffffffffffffffffff160217905550808273ffffffffffffffffffffffffffffffffffffffff168473ffffffffffffffffffffffffffffffffffffffff167fddf252ad1be2c89b69c2b068fc378daa952ba7f163c4a11628f55a4df523b3ef60405160405180910390a4611590838383611aa5565b505050565b8173ffffffffffffffffffffffffffffffffffffffff168373ffffffffffffffffffffffffffffffffffffffff1603611603576040517f08c379a00000000000000000000000000000000000000000000000000000000081526004016115fa906137b5565b60405180910390fd5b80600560008573ffffffffffffffffffffffffffffffffffffffff1673ffffffffffffffffffffffffffffffffffffffff16815260200190815260200160002060008473ffffffffffffffffffffffffffffffffffffffff1673ffffffffffffffffffffffffffffffffffffffff16815260200190815260200160002060006101000a81548160ff0219169083151502179055508173ffffffffffffffffffffffffffffffffffffffff168373ffffffffffffffffffffffffffffffffffffffff167f17307eab39ab6107e8899845ad3d59bd9653f200f220920489ca2b5937696c31836040516116f491906123be565b60405180910390a3505050565b61170c84848461132f565b61171884848484611aaa565b8061172b575061172a84848484611c00565b5b61176a576040517f08c379a00000000000000000000000000000000000000000000000000000000081526004016117619061386d565b60405180910390fd5b50505050565b606060405180602001604052806000815250905090565b6060600082036117ce576040518060400160405280600181526020017f300000000000000000000000000000000000000000000000000000000000000081525090506118e2565b600082905060005b600082146118005780806117e990613285565b915050600a826117f991906138bc565b91506117d6565b60008167ffffffffffffffff81111561181c5761181b6126d6565b5b6040519080825280601f01601f19166020018201604052801561184e5781602001600182028036833780820191505090505b5090505b600085146118db576001826118679190613701565b9150600a8561187691906138ed565b60306118829190613735565b60f81b81838151811061189857611897613011565b5b60200101907effffffffffffffffffffffffffffffffffffffffffffffffffffffffffffff1916908160001a905350600a856118d491906138bc565b9450611852565b8093505050505b919050565b600081600001549050919050565b61190f828260405180602001604052806000815250611d56565b5050565b6001816000016000828254019250508190555050565b60007f01ffc9a7000000000000000000000000000000000000000000000000000000007bffffffffffffffffffffffffffffffffffffffffffffffffffffffff1916827bffffffffffffffffffffffffffffffffffffffffffffffffffffffff1916149050919050565b61199e838383611dc5565b600073ffffffffffffffffffffffffffffffffffffffff168373ffffffffffffffffffffffffffffffffffffffff16036119e0576119db81611dca565b611a1f565b8173ffffffffffffffffffffffffffffffffffffffff168373ffffffffffffffffffffffffffffffffffffffff1614611a1e57611a1d8382611e13565b5b5b600073ffffffffffffffffffffffffffffffffffffffff168273ffffffffffffffffffffffffffffffffffffffff1603611a6157611a5c81611f80565b611aa0565b8273ffffffffffffffffffffffffffffffffffffffff168273ffffffffffffffffffffffffffffffffffffffff1614611a9f57611a9e8282612051565b5b5b505050565b505050565b6000611acb8473ffffffffffffffffffffffffffffffffffffffff166120d0565b15611bf3578373ffffffffffffffffffffffffffffffffffffffff16636745782b611af4611190565b8786866040518563ffffffff1660e01b8152600401611b169493929190613973565b6020604051808303816000875af1925050508015611b5257506040513d601f19601f82011682018060405250810190611b4f91906139d4565b60015b611ba3573d8060008114611b82576040519150601f19603f3d011682016040523d82523d6000602084013e611b87565b606091505b506000815103611b9b576000915050611bf8565b805181602001fd5b636745782b60e01b7bffffffffffffffffffffffffffffffffffffffffffffffffffffffff1916817bffffffffffffffffffffffffffffffffffffffffffffffffffffffff191614915050611bf8565b600190505b949350505050565b6000611c218473ffffffffffffffffffffffffffffffffffffffff166120d0565b15611d49578373ffffffffffffffffffffffffffffffffffffffff1663150b7a02611c4a611190565b8786866040518563ffffffff1660e01b8152600401611c6c9493929190613973565b6020604051808303816000875af1925050508015611ca857506040513d601f19601f82011682018060405250810190611ca591906139d4565b60015b611cf9573d8060008114611cd8576040519150601f19603f3d011682016040523d82523d6000602084013e611cdd565b606091505b506000815103611cf1576000915050611d4e565b805181602001fd5b63150b7a0260e01b7bffffffffffffffffffffffffffffffffffffffffffffffffffffffff1916817bffffffffffffffffffffffffffffffffffffffffffffffffffffffff191614915050611d4e565b600190505b949350505050565b611d6083836120f3565b611d6d6000848484611aaa565b80611d815750611d806000848484611c00565b5b611dc0576040517f08c379a0000000000000000000000000000000000000000000000000000000008152600401611db79061386d565b60405180910390fd5b505050565b505050565b6008805490506009600083815260200190815260200160002081905550600881908060018154018082558091505060019003906000526020600020016000909190919091505550565b60006001611e2084610a42565b611e2a9190613701565b9050600060076000848152602001908152602001600020549050818114611f0f576000600660008673ffffffffffffffffffffffffffffffffffffffff1673ffffffffffffffffffffffffffffffffffffffff168152602001908152602001600020600084815260200190815260200160002054905080600660008773ffffffffffffffffffffffffffffffffffffffff1673ffffffffffffffffffffffffffffffffffffffff168152602001908152602001600020600084815260200190815260200160002081905550816007600083815260200190815260200160002081905550505b6007600084815260200190815260200160002060009055600660008573ffffffffffffffffffffffffffffffffffffffff1673ffffffffffffffffffffffffffffffffffffffff16815260200190815260200160002060008381526020019081526020016000206000905550505050565b60006001600880549050611f949190613701565b9050600060096000848152602001908152602001600020549050600060088381548110611fc457611fc3613011565b5b906000526020600020015490508060088381548110611fe657611fe5613011565b5b90600052602060002001819055508160096000838152602001908152602001600020819055506009600085815260200190815260200160002060009055600880548061203557612034613a01565b5b6001900381819060005260206000200160009055905550505050565b600061205c83610a42565b905081600660008573ffffffffffffffffffffffffffffffffffffffff1673ffffffffffffffffffffffffffffffffffffffff168152602001908152602001600020600083815260200190815260200160002081905550806007600084815260200190815260200160002081905550505050565b6000808273ffffffffffffffffffffffffffffffffffffffff163b119050919050565b600073ffffffffffffffffffffffffffffffffffffffff168273ffffffffffffffffffffffffffffffffffffffff1603612162576040517f08c379a000000000000000000000000000000000000000000000000000000000815260040161215990613a7c565b60405180910390fd5b61216b81611124565b156121ab576040517f08c379a00000000000000000000000000000000000000000000000000000000081526004016121a290613ae8565b60405180910390fd5b6121b760008383611993565b6001600360008473ffffffffffffffffffffffffffffffffffffffff1673ffffffffffffffffffffffffffffffffffffffff16815260200190815260200160002060008282546122079190613735565b92505081905550816002600083815260200190815260200160002060006101000a81548173ffffffffffffffffffffffffffffffffffffffff021916908373ffffffffffffffffffffffffffffffffffffffff160217905550808273ffffffffffffffffffffffffffffffffffffffff16600073ffffffffffffffffffffffffffffffffffffffff167fddf252ad1be2c89b69c2b068fc378daa952ba7f163c4a11628f55a4df523b3ef60405160405180910390a46122c860008383611aa5565b5050565b60405180608001604052806060815260200160608152602001600073ffffffffffffffffffffffffffffffffffffffff168152602001600081525090565b6000604051905090565b600080fd5b600080fd5b60007fffffffff0000000000000000000000000000000000000000000000000000000082169050919050565b6123538161231e565b811461235e57600080fd5b50565b6000813590506123708161234a565b92915050565b60006020828403121561238c5761238b612314565b5b600061239a84828501612361565b91505092915050565b60008115159050919050565b6123b8816123a3565b82525050565b60006020820190506123d360008301846123af565b92915050565b600081519050919050565b600082825260208201905092915050565b60005b838110156124135780820151818401526020810190506123f8565b60008484015250505050565b6000601f19601f8301169050919050565b600061243b826123d9565b61244581856123e4565b93506124558185602086016123f5565b61245e8161241f565b840191505092915050565b600060208201905081810360008301526124838184612430565b905092915050565b6000819050919050565b61249e8161248b565b81146124a957600080fd5b50565b6000813590506124bb81612495565b92915050565b6000602082840312156124d7576124d6612314565b5b60006124e5848285016124ac565b91505092915050565b600073ffffffffffffffffffffffffffffffffffffffff82169050919050565b6000612519826124ee565b9050919050565b6125298161250e565b82525050565b60006020820190506125446000830184612520565b92915050565b6125538161250e565b811461255e57600080fd5b50565b6000813590506125708161254a565b92915050565b6000806040838503121561258d5761258c612314565b5b600061259b85828601612561565b92505060206125ac858286016124ac565b9150509250929050565b6125bf8161248b565b82525050565b60006020820190506125da60008301846125b6565b92915050565b6000806000606084860312156125f9576125f8612314565b5b600061260786828701612561565b935050602061261886828701612561565b9250506040612629868287016124ac565b9150509250925092565b60006020828403121561264957612648612314565b5b600061265784828501612561565b91505092915050565b612669816123a3565b811461267457600080fd5b50565b60008135905061268681612660565b92915050565b600080604083850312156126a3576126a2612314565b5b60006126b185828601612561565b92505060206126c285828601612677565b9150509250929050565b600080fd5b600080fd5b7f4e487b7100000000000000000000000000000000000000000000000000000000600052604160045260246000fd5b61270e8261241f565b810181811067ffffffffffffffff8211171561272d5761272c6126d6565b5b80604052505050565b600061274061230a565b905061274c8282612705565b919050565b600067ffffffffffffffff82111561276c5761276b6126d6565b5b6127758261241f565b9050602081019050919050565b82818337600083830152505050565b60006127a461279f84612751565b612736565b9050828152602081018484840111156127c0576127bf6126d1565b5b6127cb848285612782565b509392505050565b600082601f8301126127e8576127e76126cc565b5b81356127f8848260208601612791565b91505092915050565b6000806000806080858703121561281b5761281a612314565b5b600061282987828801612561565b945050602061283a87828801612561565b935050604061284b878288016124ac565b925050606085013567ffffffffffffffff81111561286c5761286b612319565b5b612878878288016127d3565b91505092959194509250565b6000806040838503121561289b5761289a612314565b5b60006128a985828601612561565b92505060206128ba85828601612561565b9150509250929050565b600081519050919050565b600082825260208201905092915050565b6000819050602082019050919050565b600082825260208201905092915050565b600061290c826123d9565b61291681856128f0565b93506129268185602086016123f5565b61292f8161241f565b840191505092915050565b6129438161250e565b82525050565b6129528161248b565b82525050565b600060808301600083015184820360008601526129758282612901565b9150506020830151848203602086015261298f8282612901565b91505060408301516129a4604086018261293a565b5060608301516129b76060860182612949565b508091505092915050565b60006129ce8383612958565b905092915050565b6000602082019050919050565b60006129ee826128c4565b6129f881856128cf565b935083602082028501612a0a856128e0565b8060005b85811015612a465784840389528151612a2785826129c2565b9450612a32836129d6565b925060208a01995050600181019050612a0e565b50829750879550505050505092915050565b60006020820190508181036000830152612a7281846129e3565b905092915050565b600067ffffffffffffffff821115612a9557612a946126d6565b5b612a9e8261241f565b9050602081019050919050565b6000612abe612ab984612a7a565b612736565b905082815260208101848484011115612ada57612ad96126d1565b5b612ae5848285612782565b509392505050565b600082601f830112612b0257612b016126cc565b5b8135612b12848260208601612aab565b91505092915050565b60008060408385031215612b3257612b31612314565b5b600083013567ffffffffffffffff811115612b5057612b4f612319565b5b612b5c85828601612aed565b925050602083013567ffffffffffffffff811115612b7d57612b7c612319565b5b612b8985828601612aed565b9150509250929050565b7f4e487b7100000000000000000000000000000000000000000000000000000000600052602260045260246000fd5b60006002820490506001821680612bda57607f821691505b602082108103612bed57612bec612b93565b5b50919050565b7f4b495031373a20617070726f76656420717565727920666f72206e6f6e65786960008201527f7374656e7420746f6b656e000000000000000000000000000000000000000000602082015250565b6000612c4f602b836123e4565b9150612c5a82612bf3565b604082019050919050565b60006020820190508181036000830152612c7e81612c42565b9050919050565b7f4b495031373a20617070726f76616c20746f2063757272656e74206f776e6572600082015250565b6000612cbb6020836123e4565b9150612cc682612c85565b602082019050919050565b60006020820190508181036000830152612cea81612cae565b9050919050565b7f4b495031373a20617070726f76652063616c6c6572206973206e6f74206f776e60008201527f6572206e6f7220617070726f76656420666f7220616c6c000000000000000000602082015250565b6000612d4d6037836123e4565b9150612d5882612cf1565b604082019050919050565b60006020820190508181036000830152612d7c81612d40565b9050919050565b7f4b495031373a207472616e736665722063616c6c6572206973206e6f74206f7760008201527f6e6572206e6f7220617070726f76656400000000000000000000000000000000602082015250565b6000612ddf6030836123e4565b9150612dea82612d83565b604082019050919050565b60006020820190508181036000830152612e0e81612dd2565b9050919050565b7f4b49503137456e756d657261626c653a206f776e657220696e646578206f757460008201527f206f6620626f756e647300000000000000000000000000000000000000000000602082015250565b6000612e71602a836123e4565b9150612e7c82612e15565b604082019050919050565b60006020820190508181036000830152612ea081612e64565b9050919050565b7f546f6b656e20646f6573206e6f74206578697374000000000000000000000000600082015250565b6000612edd6014836123e4565b9150612ee882612ea7565b602082019050919050565b60006020820190508181036000830152612f0c81612ed0565b9050919050565b7f4e6f7420746865206f776e6572206f662074686520746f6b656e000000000000600082015250565b6000612f49601a836123e4565b9150612f5482612f13565b602082019050919050565b60006020820190508181036000830152612f7881612f3c565b9050919050565b7f4b49503137456e756d657261626c653a20676c6f62616c20696e646578206f7560008201527f74206f6620626f756e6473000000000000000000000000000000000000000000602082015250565b6000612fdb602b836123e4565b9150612fe682612f7f565b604082019050919050565b6000602082019050818103600083015261300a81612fce565b9050919050565b7f4e487b7100000000000000000000000000000000000000000000000000000000600052603260045260246000fd5b7f4b495031373a206f776e657220717565727920666f72206e6f6e65786973746560008201527f6e7420746f6b656e000000000000000000000000000000000000000000000000602082015250565b600061309c6028836123e4565b91506130a782613040565b604082019050919050565b600060208201905081810360008301526130cb8161308f565b9050919050565b7f4b495031373a2061646472657373207a65726f206973206e6f7420612076616c60008201527f6964206f776e6572000000000000000000000000000000000000000000000000602082015250565b600061312e6028836123e4565b9150613139826130d2565b604082019050919050565b6000602082019050818103600083015261315d81613121565b9050919050565b7f4b495031374d657461646174613a2055524920717565727920666f72206e6f6e60008201527f6578697374656e7420746f6b656e000000000000000000000000000000000000602082015250565b60006131c0602e836123e4565b91506131cb82613164565b604082019050919050565b600060208201905081810360008301526131ef816131b3565b9050919050565b600081905092915050565b600061320c826123d9565b61321681856131f6565b93506132268185602086016123f5565b80840191505092915050565b600061323e8285613201565b915061324a8284613201565b91508190509392505050565b7f4e487b7100000000000000000000000000000000000000000000000000000000600052601160045260246000fd5b60006132908261248b565b91507fffffffffffffffffffffffffffffffffffffffffffffffffffffffffffffffff82036132c2576132c1613256565b5b600182019050919050565b60008190508160005260206000209050919050565b60006020601f8301049050919050565b600082821b905092915050565b60006008830261332f7fffffffffffffffffffffffffffffffffffffffffffffffffffffffffffffffff826132f2565b61333986836132f2565b95508019841693508086168417925050509392505050565b6000819050919050565b600061337661337161336c8461248b565b613351565b61248b565b9050919050565b6000819050919050565b6133908361335b565b6133a461339c8261337d565b8484546132ff565b825550505050565b600090565b6133b96133ac565b6133c4818484613387565b505050565b5b818110156133e8576133dd6000826133b1565b6001810190506133ca565b5050565b601f82111561342d576133fe816132cd565b613407846132e2565b81016020851015613416578190505b61342a613422856132e2565b8301826133c9565b50505b505050565b600082821c905092915050565b600061345060001984600802613432565b1980831691505092915050565b6000613469838361343f565b9150826002028217905092915050565b613482826123d9565b67ffffffffffffffff81111561349b5761349a6126d6565b5b6134a58254612bc2565b6134b08282856133ec565b600060209050601f8311600181146134e357600084156134d1578287015190505b6134db858261345d565b865550613543565b601f1984166134f1866132cd565b60005b82811015613519578489015182556001820191506020850194506020810190506134f4565b868310156135365784890151613532601f89168261343f565b8355505b6001600288020188555050505b505050505050565b7f4b495031373a206f70657261746f7220717565727920666f72206e6f6e65786960008201527f7374656e7420746f6b656e000000000000000000000000000000000000000000602082015250565b60006135a7602b836123e4565b91506135b28261354b565b604082019050919050565b600060208201905081810360008301526135d68161359a565b9050919050565b7f4b495031373a207472616e736665722066726f6d20696e636f7272656374206f60008201527f776e657200000000000000000000000000000000000000000000000000000000602082015250565b60006136396024836123e4565b9150613644826135dd565b604082019050919050565b600060208201905081810360008301526136688161362c565b9050919050565b7f4b495031373a207472616e7366657220746f20746865207a65726f206164647260008201527f6573730000000000000000000000000000000000000000000000000000000000602082015250565b60006136cb6023836123e4565b91506136d68261366f565b604082019050919050565b600060208201905081810360008301526136fa816136be565b9050919050565b600061370c8261248b565b91506137178361248b565b925082820390508181111561372f5761372e613256565b5b92915050565b60006137408261248b565b915061374b8361248b565b925082820190508082111561376357613762613256565b5b92915050565b7f4b495031373a20617070726f766520746f2063616c6c65720000000000000000600082015250565b600061379f6018836123e4565b91506137aa82613769565b602082019050919050565b600060208201905081810360008301526137ce81613792565b9050919050565b7f4b495031373a207472616e7366657220746f206e6f6e20494b4950313752656360008201527f65697665722f49455243373231526563656976657220696d706c656d656e746560208201527f7200000000000000000000000000000000000000000000000000000000000000604082015250565b60006138576041836123e4565b9150613862826137d5565b606082019050919050565b600060208201905081810360008301526138868161384a565b9050919050565b7f4e487b7100000000000000000000000000000000000000000000000000000000600052601260045260246000fd5b60006138c78261248b565b91506138d28361248b565b9250826138e2576138e161388d565b5b828204905092915050565b60006138f88261248b565b91506139038361248b565b9250826139135761391261388d565b5b828206905092915050565b600081519050919050565b600082825260208201905092915050565b60006139458261391e565b61394f8185613929565b935061395f8185602086016123f5565b6139688161241f565b840191505092915050565b60006080820190506139886000830187612520565b6139956020830186612520565b6139a260408301856125b6565b81810360608301526139b4818461393a565b905095945050505050565b6000815190506139ce8161234a565b92915050565b6000602082840312156139ea576139e9612314565b5b60006139f8848285016139bf565b91505092915050565b7f4e487b7100000000000000000000000000000000000000000000000000000000600052603160045260246000fd5b7f4b495031373a206d696e7420746f20746865207a65726f206164647265737300600082015250565b6000613a66601f836123e4565b9150613a7182613a30565b602082019050919050565b60006020820190508181036000830152613a9581613a59565b9050919050565b7f4b495031373a20746f6b656e20616c7265616479206d696e7465640000000000600082015250565b6000613ad2601b836123e4565b9150613add82613a9c565b602082019050919050565b60006020820190508181036000830152613b0181613ac5565b905091905056fea26469706673582212207472874dbb1d6a80723a5b22b29cc26cb5fccdb18430438ed4416910859678e164736f6c63430008110033",
  "linkReferences": {},
  "deployedLinkReferences": {}
}