{
  "_format": "hh-sol-artifact-1",
  "contractName": "KlayverLoan",
  "sourceName": "contracts/KlayverLoan.sol",
  "abi": [
    {
      "inputs": [
        {
          "internalType": "address",
          "name": "_klayverToken",
          "type": "address"
        }
      ],
      "stateMutability": "nonpayable",
      "type": "constructor"
    },
    {
      "inputs": [
        {
          "internalType": "uint256",
          "name": "amount",
          "type": "uint256"
        },
        {
          "internalType": "uint256",
          "name": "durationDays",
          "type": "uint256"
        }
      ],
      "name": "borrow",
      "outputs": [],
      "stateMutability": "nonpayable",
      "type": "function"
    },
    {
      "inputs": [
        {
          "internalType": "address",
          "name": "borrower",
          "type": "address"
        }
      ],
      "name": "getLoanDueDate",
      "outputs": [
        {
          "internalType": "uint256",
          "name": "",
          "type": "uint256"
        }
      ],
      "stateMutability": "view",
      "type": "function"
    },
    {
      "inputs": [],
      "name": "klayverToken",
      "outputs": [
        {
          "internalType": "contract Klayver",
          "name": "",
          "type": "address"
        }
      ],
      "stateMutability": "view",
      "type": "function"
    },
    {
      "inputs": [
        {
          "internalType": "address",
          "name": "",
          "type": "address"
        }
      ],
      "name": "loanBalance",
      "outputs": [
        {
          "internalType": "uint256",
          "name": "",
          "type": "uint256"
        }
      ],
      "stateMutability": "view",
      "type": "function"
    },
    {
      "inputs": [
        {
          "internalType": "address",
          "name": "",
          "type": "address"
        }
      ],
      "name": "loanDueDate",
      "outputs": [
        {
          "internalType": "uint256",
          "name": "",
          "type": "uint256"
        }
      ],
      "stateMutability": "view",
      "type": "function"
    },
    {
      "inputs": [
        {
          "internalType": "uint256",
          "name": "amount",
          "type": "uint256"
        }
      ],
      "name": "repayLoan",
      "outputs": [],
      "stateMutability": "nonpayable",
      "type": "function"
    }
  ],
  "bytecode": "0x608060405234801561001057600080fd5b50604051610e34380380610e34833981810160405281019061003291906100db565b806000806101000a81548173ffffffffffffffffffffffffffffffffffffffff021916908373ffffffffffffffffffffffffffffffffffffffff16021790555050610108565b600080fd5b600073ffffffffffffffffffffffffffffffffffffffff82169050919050565b60006100a88261007d565b9050919050565b6100b88161009d565b81146100c357600080fd5b50565b6000815190506100d5816100af565b92915050565b6000602082840312156100f1576100f0610078565b5b60006100ff848285016100c6565b91505092915050565b610d1d806101176000396000f3fe608060405234801561001057600080fd5b50600436106100625760003560e01c80630ecbcdab14610067578063587463251461008357806392aca29c146100b35780639aae66f9146100d1578063ab7b1c8914610101578063e06115e51461011d575b600080fd5b610081600480360381019061007c91906106a2565b61014d565b005b61009d60048036038101906100989190610740565b61040b565b6040516100aa919061077c565b60405180910390f35b6100bb610454565b6040516100c891906107f6565b60405180910390f35b6100eb60048036038101906100e69190610740565b610478565b6040516100f8919061077c565b60405180910390f35b61011b60048036038101906101169190610811565b610490565b005b61013760048036038101906101329190610740565b61064f565b604051610144919061077c565b60405180910390f35b60008211610190576040517f08c379a0000000000000000000000000000000000000000000000000000000008152600401610187906108c1565b60405180910390fd5b600081116101d3576040517f08c379a00000000000000000000000000000000000000000000000000000000081526004016101ca90610953565b60405180910390fd5b8160008054906101000a900473ffffffffffffffffffffffffffffffffffffffff1673ffffffffffffffffffffffffffffffffffffffff166370a08231306040518263ffffffff1660e01b815260040161022d9190610982565b602060405180830381865afa15801561024a573d6000803e3d6000fd5b505050506040513d601f19601f8201168201806040525081019061026e91906109b2565b10156102af576040517f08c379a00000000000000000000000000000000000000000000000000000000081526004016102a690610a2b565b60405180910390fd5b600062015180826102c09190610a7a565b426102cb9190610abc565b905060008054906101000a900473ffffffffffffffffffffffffffffffffffffffff1673ffffffffffffffffffffffffffffffffffffffff1663a9059cbb33856040518363ffffffff1660e01b8152600401610328929190610af0565b6020604051808303816000875af1158015610347573d6000803e3d6000fd5b505050506040513d601f19601f8201168201806040525081019061036b9190610b51565b5082600160003373ffffffffffffffffffffffffffffffffffffffff1673ffffffffffffffffffffffffffffffffffffffff16815260200190815260200160002060008282546103bb9190610abc565b9250508190555080600260003373ffffffffffffffffffffffffffffffffffffffff1673ffffffffffffffffffffffffffffffffffffffff16815260200190815260200160002081905550505050565b6000600260008373ffffffffffffffffffffffffffffffffffffffff1673ffffffffffffffffffffffffffffffffffffffff168152602001908152602001600020549050919050565b60008054906101000a900473ffffffffffffffffffffffffffffffffffffffff1681565b60016020528060005260406000206000915090505481565b600081116104d3576040517f08c379a00000000000000000000000000000000000000000000000000000000081526004016104ca90610bf0565b60405180910390fd5b80600160003373ffffffffffffffffffffffffffffffffffffffff1673ffffffffffffffffffffffffffffffffffffffff168152602001908152602001600020541015610555576040517f08c379a000000000000000000000000000000000000000000000000000000000815260040161054c90610c5c565b60405180910390fd5b60008054906101000a900473ffffffffffffffffffffffffffffffffffffffff1673ffffffffffffffffffffffffffffffffffffffff166323b872dd3330846040518463ffffffff1660e01b81526004016105b293929190610c7c565b6020604051808303816000875af11580156105d1573d6000803e3d6000fd5b505050506040513d601f19601f820116820180604052508101906105f59190610b51565b5080600160003373ffffffffffffffffffffffffffffffffffffffff1673ffffffffffffffffffffffffffffffffffffffff16815260200190815260200160002060008282546106459190610cb3565b9250508190555050565b60026020528060005260406000206000915090505481565b600080fd5b6000819050919050565b61067f8161066c565b811461068a57600080fd5b50565b60008135905061069c81610676565b92915050565b600080604083850312156106b9576106b8610667565b5b60006106c78582860161068d565b92505060206106d88582860161068d565b9150509250929050565b600073ffffffffffffffffffffffffffffffffffffffff82169050919050565b600061070d826106e2565b9050919050565b61071d81610702565b811461072857600080fd5b50565b60008135905061073a81610714565b92915050565b60006020828403121561075657610755610667565b5b60006107648482850161072b565b91505092915050565b6107768161066c565b82525050565b6000602082019050610791600083018461076d565b92915050565b6000819050919050565b60006107bc6107b76107b2846106e2565b610797565b6106e2565b9050919050565b60006107ce826107a1565b9050919050565b60006107e0826107c3565b9050919050565b6107f0816107d5565b82525050565b600060208201905061080b60008301846107e7565b92915050565b60006020828403121561082757610826610667565b5b60006108358482850161068d565b91505092915050565b600082825260208201905092915050565b7f426f72726f77696e67206d7573742062652067726561746572207468616e207a60008201527f65726f0000000000000000000000000000000000000000000000000000000000602082015250565b60006108ab60238361083e565b91506108b68261084f565b604082019050919050565b600060208201905081810360008301526108da8161089e565b9050919050565b7f4c6f616e206475726174696f6e206d757374206265206772656174657220746860008201527f616e207a65726f00000000000000000000000000000000000000000000000000602082015250565b600061093d60278361083e565b9150610948826108e1565b604082019050919050565b6000602082019050818103600083015261096c81610930565b9050919050565b61097c81610702565b82525050565b60006020820190506109976000830184610973565b92915050565b6000815190506109ac81610676565b92915050565b6000602082840312156109c8576109c7610667565b5b60006109d68482850161099d565b91505092915050565b7f496e73756666696369656e74206c6f616e2062616c616e636500000000000000600082015250565b6000610a1560198361083e565b9150610a20826109df565b602082019050919050565b60006020820190508181036000830152610a4481610a08565b9050919050565b7f4e487b7100000000000000000000000000000000000000000000000000000000600052601160045260246000fd5b6000610a858261066c565b9150610a908361066c565b9250828202610a9e8161066c565b91508282048414831517610ab557610ab4610a4b565b5b5092915050565b6000610ac78261066c565b9150610ad28361066c565b9250828201905080821115610aea57610ae9610a4b565b5b92915050565b6000604082019050610b056000830185610973565b610b12602083018461076d565b9392505050565b60008115159050919050565b610b2e81610b19565b8114610b3957600080fd5b50565b600081519050610b4b81610b25565b92915050565b600060208284031215610b6757610b66610667565b5b6000610b7584828501610b3c565b91505092915050565b7f52657061796d656e74206d7573742062652067726561746572207468616e207a60008201527f65726f0000000000000000000000000000000000000000000000000000000000602082015250565b6000610bda60238361083e565b9150610be582610b7e565b604082019050919050565b60006020820190508181036000830152610c0981610bcd565b9050919050565b7f4e6f7420656e6f756768206c6f616e2062616c616e6365000000000000000000600082015250565b6000610c4660178361083e565b9150610c5182610c10565b602082019050919050565b60006020820190508181036000830152610c7581610c39565b9050919050565b6000606082019050610c916000830186610973565b610c9e6020830185610973565b610cab604083018461076d565b949350505050565b6000610cbe8261066c565b9150610cc98361066c565b9250828203905081811115610ce157610ce0610a4b565b5b9291505056fea2646970667358221220c0839c00379eda93022bb5dc44446fba873d52b3d34f18936dc19d4f184e382f64736f6c63430008110033",
  "linkReferences": {},
  "deployedLinkReferences": {}
}