{
  "_format": "hh-sol-artifact-1",
  "contractName": "Klayver",
  "sourceName": "contracts/Klayver.sol",
  "abi": [
    {
      "inputs": [],
      "stateMutability": "nonpayable",
      "type": "constructor"
    },
    {
      "anonymous": false,
      "inputs": [
        {
          "indexed": true,
          "internalType": "address",
          "name": "owner",
          "type": "address"
        },
        {
          "indexed": true,
          "internalType": "address",
          "name": "spender",
          "type": "address"
        },
        {
          "indexed": false,
          "internalType": "uint256",
          "name": "value",
          "type": "uint256"
        }
      ],
      "name": "Approval",
      "type": "event"
    },
    {
      "anonymous": false,
      "inputs": [
        {
          "indexed": false,
          "internalType": "address",
          "name": "account",
          "type": "address"
        },
        {
          "indexed": false,
          "internalType": "uint256",
          "name": "amount",
          "type": "uint256"
        }
      ],
      "name": "FundsReleased",
      "type": "event"
    },
    {
      "anonymous": false,
      "inputs": [
        {
          "indexed": false,
          "internalType": "address",
          "name": "account",
          "type": "address"
        },
        {
          "indexed": false,
          "internalType": "uint256",
          "name": "amount",
          "type": "uint256"
        }
      ],
      "name": "FundsWithheld",
      "type": "event"
    },
    {
      "anonymous": false,
      "inputs": [
        {
          "indexed": true,
          "internalType": "address",
          "name": "previousOwner",
          "type": "address"
        },
        {
          "indexed": true,
          "internalType": "address",
          "name": "newOwner",
          "type": "address"
        }
      ],
      "name": "OwnershipTransferred",
      "type": "event"
    },
    {
      "anonymous": false,
      "inputs": [
        {
          "indexed": true,
          "internalType": "address",
          "name": "from",
          "type": "address"
        },
        {
          "indexed": true,
          "internalType": "address",
          "name": "to",
          "type": "address"
        },
        {
          "indexed": false,
          "internalType": "uint256",
          "name": "value",
          "type": "uint256"
        }
      ],
      "name": "Transfer",
      "type": "event"
    },
    {
      "inputs": [],
      "name": "admin",
      "outputs": [
        {
          "internalType": "address",
          "name": "",
          "type": "address"
        }
      ],
      "stateMutability": "view",
      "type": "function"
    },
    {
      "inputs": [
        {
          "internalType": "address",
          "name": "owner",
          "type": "address"
        },
        {
          "internalType": "address",
          "name": "spender",
          "type": "address"
        }
      ],
      "name": "allowance",
      "outputs": [
        {
          "internalType": "uint256",
          "name": "",
          "type": "uint256"
        }
      ],
      "stateMutability": "view",
      "type": "function"
    },
    {
      "inputs": [
        {
          "internalType": "address",
          "name": "spender",
          "type": "address"
        },
        {
          "internalType": "uint256",
          "name": "amount",
          "type": "uint256"
        }
      ],
      "name": "approve",
      "outputs": [
        {
          "internalType": "bool",
          "name": "",
          "type": "bool"
        }
      ],
      "stateMutability": "nonpayable",
      "type": "function"
    },
    {
      "inputs": [
        {
          "internalType": "address",
          "name": "account",
          "type": "address"
        }
      ],
      "name": "balanceOf",
      "outputs": [
        {
          "internalType": "uint256",
          "name": "",
          "type": "uint256"
        }
      ],
      "stateMutability": "view",
      "type": "function"
    },
    {
      "inputs": [
        {
          "internalType": "address",
          "name": "from",
          "type": "address"
        },
        {
          "internalType": "uint256",
          "name": "amount",
          "type": "uint256"
        }
      ],
      "name": "burn",
      "outputs": [],
      "stateMutability": "nonpayable",
      "type": "function"
    },
    {
      "inputs": [],
      "name": "decimals",
      "outputs": [
        {
          "internalType": "uint8",
          "name": "",
          "type": "uint8"
        }
      ],
      "stateMutability": "view",
      "type": "function"
    },
    {
      "inputs": [
        {
          "internalType": "address",
          "name": "spender",
          "type": "address"
        },
        {
          "internalType": "uint256",
          "name": "subtractedValue",
          "type": "uint256"
        }
      ],
      "name": "decreaseAllowance",
      "outputs": [
        {
          "internalType": "bool",
          "name": "",
          "type": "bool"
        }
      ],
      "stateMutability": "nonpayable",
      "type": "function"
    },
    {
      "inputs": [
        {
          "internalType": "address",
          "name": "",
          "type": "address"
        }
      ],
      "name": "disputedFunds",
      "outputs": [
        {
          "internalType": "uint256",
          "name": "",
          "type": "uint256"
        }
      ],
      "stateMutability": "view",
      "type": "function"
    },
    {
      "inputs": [],
      "name": "getPlatformTreasuryBalance",
      "outputs": [
        {
          "internalType": "uint256",
          "name": "",
          "type": "uint256"
        }
      ],
      "stateMutability": "view",
      "type": "function"
    },
    {
      "inputs": [],
      "name": "getTotalTokenSupply",
      "outputs": [
        {
          "internalType": "uint256",
          "name": "",
          "type": "uint256"
        }
      ],
      "stateMutability": "view",
      "type": "function"
    },
    {
      "inputs": [
        {
          "internalType": "address",
          "name": "account",
          "type": "address"
        }
      ],
      "name": "getUserBalance",
      "outputs": [
        {
          "internalType": "uint256",
          "name": "",
          "type": "uint256"
        }
      ],
      "stateMutability": "view",
      "type": "function"
    },
    {
      "inputs": [
        {
          "internalType": "address",
          "name": "spender",
          "type": "address"
        },
        {
          "internalType": "uint256",
          "name": "addedValue",
          "type": "uint256"
        }
      ],
      "name": "increaseAllowance",
      "outputs": [
        {
          "internalType": "bool",
          "name": "",
          "type": "bool"
        }
      ],
      "stateMutability": "nonpayable",
      "type": "function"
    },
    {
      "inputs": [
        {
          "internalType": "address",
          "name": "to",
          "type": "address"
        },
        {
          "internalType": "uint256",
          "name": "amount",
          "type": "uint256"
        }
      ],
      "name": "mint",
      "outputs": [],
      "stateMutability": "nonpayable",
      "type": "function"
    },
    {
      "inputs": [],
      "name": "name",
      "outputs": [
        {
          "internalType": "string",
          "name": "",
          "type": "string"
        }
      ],
      "stateMutability": "view",
      "type": "function"
    },
    {
      "inputs": [],
      "name": "owner",
      "outputs": [
        {
          "internalType": "address",
          "name": "",
          "type": "address"
        }
      ],
      "stateMutability": "view",
      "type": "function"
    },
    {
      "inputs": [],
      "name": "platformFeePercentage",
      "outputs": [
        {
          "internalType": "uint256",
          "name": "",
          "type": "uint256"
        }
      ],
      "stateMutability": "view",
      "type": "function"
    },
    {
      "inputs": [],
      "name": "platformTreasury",
      "outputs": [
        {
          "internalType": "address",
          "name": "",
          "type": "address"
        }
      ],
      "stateMutability": "view",
      "type": "function"
    },
    {
      "inputs": [
        {
          "internalType": "address",
          "name": "account",
          "type": "address"
        },
        {
          "internalType": "uint256",
          "name": "amount",
          "type": "uint256"
        }
      ],
      "name": "releaseFunds",
      "outputs": [],
      "stateMutability": "nonpayable",
      "type": "function"
    },
    {
      "inputs": [],
      "name": "renounceOwnership",
      "outputs": [],
      "stateMutability": "nonpayable",
      "type": "function"
    },
    {
      "inputs": [
        {
          "internalType": "address",
          "name": "recipient",
          "type": "address"
        },
        {
          "internalType": "uint256",
          "name": "amount",
          "type": "uint256"
        }
      ],
      "name": "safeTransfer",
      "outputs": [],
      "stateMutability": "nonpayable",
      "type": "function"
    },
    {
      "inputs": [
        {
          "internalType": "address",
          "name": "recipient",
          "type": "address"
        },
        {
          "internalType": "uint256",
          "name": "amount",
          "type": "uint256"
        },
        {
          "internalType": "bytes",
          "name": "_data",
          "type": "bytes"
        }
      ],
      "name": "safeTransfer",
      "outputs": [],
      "stateMutability": "nonpayable",
      "type": "function"
    },
    {
      "inputs": [
        {
          "internalType": "address",
          "name": "sender",
          "type": "address"
        },
        {
          "internalType": "address",
          "name": "recipient",
          "type": "address"
        },
        {
          "internalType": "uint256",
          "name": "amount",
          "type": "uint256"
        }
      ],
      "name": "safeTransferFrom",
      "outputs": [],
      "stateMutability": "nonpayable",
      "type": "function"
    },
    {
      "inputs": [
        {
          "internalType": "address",
          "name": "sender",
          "type": "address"
        },
        {
          "internalType": "address",
          "name": "recipient",
          "type": "address"
        },
        {
          "internalType": "uint256",
          "name": "amount",
          "type": "uint256"
        },
        {
          "internalType": "bytes",
          "name": "_data",
          "type": "bytes"
        }
      ],
      "name": "safeTransferFrom",
      "outputs": [],
      "stateMutability": "nonpayable",
      "type": "function"
    },
    {
      "inputs": [
        {
          "internalType": "address",
          "name": "newAdmin",
          "type": "address"
        }
      ],
      "name": "setAdmin",
      "outputs": [],
      "stateMutability": "nonpayable",
      "type": "function"
    },
    {
      "inputs": [
        {
          "internalType": "uint256",
          "name": "newPlatformFeePercentage",
          "type": "uint256"
        }
      ],
      "name": "setPlatformFeePercentage",
      "outputs": [],
      "stateMutability": "nonpayable",
      "type": "function"
    },
    {
      "inputs": [
        {
          "internalType": "address",
          "name": "newTreasuryAddress",
          "type": "address"
        }
      ],
      "name": "setPlatformTreasury",
      "outputs": [],
      "stateMutability": "nonpayable",
      "type": "function"
    },
    {
      "inputs": [
        {
          "internalType": "bytes4",
          "name": "interfaceId",
          "type": "bytes4"
        }
      ],
      "name": "supportsInterface",
      "outputs": [
        {
          "internalType": "bool",
          "name": "",
          "type": "bool"
        }
      ],
      "stateMutability": "view",
      "type": "function"
    },
    {
      "inputs": [],
      "name": "symbol",
      "outputs": [
        {
          "internalType": "string",
          "name": "",
          "type": "string"
        }
      ],
      "stateMutability": "view",
      "type": "function"
    },
    {
      "inputs": [],
      "name": "totalSupply",
      "outputs": [
        {
          "internalType": "uint256",
          "name": "",
          "type": "uint256"
        }
      ],
      "stateMutability": "view",
      "type": "function"
    },
    {
      "inputs": [
        {
          "internalType": "address",
          "name": "to",
          "type": "address"
        },
        {
          "internalType": "uint256",
          "name": "amount",
          "type": "uint256"
        }
      ],
      "name": "transfer",
      "outputs": [
        {
          "internalType": "bool",
          "name": "",
          "type": "bool"
        }
      ],
      "stateMutability": "nonpayable",
      "type": "function"
    },
    {
      "inputs": [
        {
          "internalType": "address",
          "name": "from",
          "type": "address"
        },
        {
          "internalType": "address",
          "name": "to",
          "type": "address"
        },
        {
          "internalType": "uint256",
          "name": "amount",
          "type": "uint256"
        }
      ],
      "name": "transferFrom",
      "outputs": [
        {
          "internalType": "bool",
          "name": "",
          "type": "bool"
        }
      ],
      "stateMutability": "nonpayable",
      "type": "function"
    },
    {
      "inputs": [
        {
          "internalType": "address",
          "name": "newOwner",
          "type": "address"
        }
      ],
      "name": "transferOwnership",
      "outputs": [],
      "stateMutability": "nonpayable",
      "type": "function"
    },
    {
      "inputs": [
        {
          "internalType": "address",
          "name": "account",
          "type": "address"
        },
        {
          "internalType": "uint256",
          "name": "amount",
          "type": "uint256"
        }
      ],
      "name": "withholdFunds",
      "outputs": [],
      "stateMutability": "nonpayable",
      "type": "function"
    }
  ],
  "bytecode": "0x60806040523480156200001157600080fd5b506040518060400160405280600781526020017f4b6c6179766572000000000000000000000000000000000000000000000000008152506040518060400160405280600381526020017f4b4c56000000000000000000000000000000000000000000000000000000000081525081600390816200008f91906200066a565b508060049081620000a191906200066a565b505050620000c4620000b86200019760201b60201c565b6200019f60201b60201c565b6200010733620000d96200026560201b60201c565b60ff16600a620000ea9190620008d4565b630bebc200620000fb919062000925565b6200026e60201b60201c565b33600760006101000a81548173ffffffffffffffffffffffffffffffffffffffff021916908373ffffffffffffffffffffffffffffffffffffffff16021790555033600860006101000a81548173ffffffffffffffffffffffffffffffffffffffff021916908373ffffffffffffffffffffffffffffffffffffffff160217905550600560098190555062000a5c565b600033905090565b6000600560009054906101000a900473ffffffffffffffffffffffffffffffffffffffff16905081600560006101000a81548173ffffffffffffffffffffffffffffffffffffffff021916908373ffffffffffffffffffffffffffffffffffffffff1602179055508173ffffffffffffffffffffffffffffffffffffffff168173ffffffffffffffffffffffffffffffffffffffff167f8be0079c531659141344cd1fd0a4f28419497f9722a3daafe3b4186f6b6457e060405160405180910390a35050565b60006012905090565b600073ffffffffffffffffffffffffffffffffffffffff168273ffffffffffffffffffffffffffffffffffffffff1603620002e0576040517f08c379a0000000000000000000000000000000000000000000000000000000008152600401620002d790620009d1565b60405180910390fd5b620002f460008383620003e660201b60201c565b8060026000828254620003089190620009f3565b92505081905550806000808473ffffffffffffffffffffffffffffffffffffffff1673ffffffffffffffffffffffffffffffffffffffff16815260200190815260200160002060008282546200035f9190620009f3565b925050819055508173ffffffffffffffffffffffffffffffffffffffff16600073ffffffffffffffffffffffffffffffffffffffff167fddf252ad1be2c89b69c2b068fc378daa952ba7f163c4a11628f55a4df523b3ef83604051620003c6919062000a3f565b60405180910390a3620003e260008383620003eb60201b60201c565b5050565b505050565b505050565b600081519050919050565b7f4e487b7100000000000000000000000000000000000000000000000000000000600052604160045260246000fd5b7f4e487b7100000000000000000000000000000000000000000000000000000000600052602260045260246000fd5b600060028204905060018216806200047257607f821691505b6020821081036200048857620004876200042a565b5b50919050565b60008190508160005260206000209050919050565b60006020601f8301049050919050565b600082821b905092915050565b600060088302620004f27fffffffffffffffffffffffffffffffffffffffffffffffffffffffffffffffff82620004b3565b620004fe8683620004b3565b95508019841693508086168417925050509392505050565b6000819050919050565b6000819050919050565b60006200054b620005456200053f8462000516565b62000520565b62000516565b9050919050565b6000819050919050565b62000567836200052a565b6200057f620005768262000552565b848454620004c0565b825550505050565b600090565b6200059662000587565b620005a38184846200055c565b505050565b5b81811015620005cb57620005bf6000826200058c565b600181019050620005a9565b5050565b601f8211156200061a57620005e4816200048e565b620005ef84620004a3565b81016020851015620005ff578190505b620006176200060e85620004a3565b830182620005a8565b50505b505050565b600082821c905092915050565b60006200063f600019846008026200061f565b1980831691505092915050565b60006200065a83836200062c565b9150826002028217905092915050565b6200067582620003f0565b67ffffffffffffffff811115620006915762000690620003fb565b5b6200069d825462000459565b620006aa828285620005cf565b600060209050601f831160018114620006e25760008415620006cd578287015190505b620006d985826200064c565b86555062000749565b601f198416620006f2866200048e565b60005b828110156200071c57848901518255600182019150602085019450602081019050620006f5565b868310156200073c578489015162000738601f8916826200062c565b8355505b6001600288020188555050505b505050505050565b7f4e487b7100000000000000000000000000000000000000000000000000000000600052601160045260246000fd5b60008160011c9050919050565b6000808291508390505b6001851115620007df57808604811115620007b757620007b662000751565b5b6001851615620007c75780820291505b8081029050620007d78562000780565b945062000797565b94509492505050565b600082620007fa5760019050620008cd565b816200080a5760009050620008cd565b81600181146200082357600281146200082e5762000864565b6001915050620008cd565b60ff84111562000843576200084262000751565b5b8360020a9150848211156200085d576200085c62000751565b5b50620008cd565b5060208310610133831016604e8410600b84101617156200089e5782820a90508381111562000898576200089762000751565b5b620008cd565b620008ad84848460016200078d565b92509050818404811115620008c757620008c662000751565b5b81810290505b9392505050565b6000620008e18262000516565b9150620008ee8362000516565b92506200091d7fffffffffffffffffffffffffffffffffffffffffffffffffffffffffffffffff8484620007e8565b905092915050565b6000620009328262000516565b91506200093f8362000516565b92508282026200094f8162000516565b9150828204841483151762000969576200096862000751565b5b5092915050565b600082825260208201905092915050565b7f4b4950373a206d696e7420746f20746865207a65726f20616464726573730000600082015250565b6000620009b9601e8362000970565b9150620009c68262000981565b602082019050919050565b60006020820190508181036000830152620009ec81620009aa565b9050919050565b600062000a008262000516565b915062000a0d8362000516565b925082820190508082111562000a285762000a2762000751565b5b92915050565b62000a398162000516565b82525050565b600060208201905062000a56600083018462000a2e565b92915050565b6135028062000a6c6000396000f3fe608060405234801561001057600080fd5b50600436106101fb5760003560e01c8063715018a61161011a578063a9059cbb116100ad578063dd62ed3e1161007c578063dd62ed3e146105c2578063e138818c146105f2578063eb79554914610610578063f2fde38b1461062c578063f851a44014610648576101fb565b8063a9059cbb1461053c578063b88d4fde1461056c578063cdd78cfc14610588578063d6e982e5146105a6576101fb565b80638da5cb5b116100e95780638da5cb5b146104b457806395d89b41146104d25780639dc29fac146104f0578063a457c2d71461050c576101fb565b8063715018a614610442578063739c987a1461044c5780637cd86d601461047c5780638333903e14610498576101fb565b80633950935111610192578063477348921161016157806347734892146103aa5780635c99eed3146103da578063704b6c02146103f657806370a0823114610412576101fb565b8063395093511461032657806340c10f1914610356578063423f6cef1461037257806342842e0e1461038e576101fb565b806313ad3ad9116101ce57806313ad3ad91461029c57806318160ddd146102ba57806323b872dd146102d8578063313ce56714610308576101fb565b806301ffc9a714610200578063047087cc1461023057806306fdde031461024e578063095ea7b31461026c575b600080fd5b61021a600480360381019061021591906121b5565b610666565b60405161022791906121fd565b60405180910390f35b610238610748565b6040516102459190612231565b60405180910390f35b610256610757565b60405161026391906122dc565b60405180910390f35b61028660048036038101906102819190612388565b6107e9565b60405161029391906121fd565b60405180910390f35b6102a461080c565b6040516102b19190612231565b60405180910390f35b6102c261083e565b6040516102cf9190612231565b60405180910390f35b6102f260048036038101906102ed91906123c8565b610848565b6040516102ff91906121fd565b60405180910390f35b6103106108b6565b60405161031d9190612437565b60405180910390f35b610340600480360381019061033b9190612388565b6108bf565b60405161034d91906121fd565b60405180910390f35b610370600480360381019061036b9190612388565b6108f6565b005b61038c60048036038101906103879190612388565b6109c3565b005b6103a860048036038101906103a391906123c8565b6109ef565b005b6103c460048036038101906103bf9190612452565b610a27565b6040516103d19190612231565b60405180910390f35b6103f460048036038101906103ef9190612388565b610a39565b005b610410600480360381019061040b9190612452565b610be4565b005b61042c60048036038101906104279190612452565b610d13565b6040516104399190612231565b60405180910390f35b61044a610d5b565b005b61046660048036038101906104619190612452565b610de3565b6040516104739190612231565b60405180910390f35b61049660048036038101906104919190612452565b610dfb565b005b6104b260048036038101906104ad919061247f565b610ebb565b005b6104bc610f85565b6040516104c991906124bb565b60405180910390f35b6104da610faf565b6040516104e791906122dc565b60405180910390f35b61050a60048036038101906105059190612388565b611041565b005b61052660048036038101906105219190612388565b611159565b60405161053391906121fd565b60405180910390f35b61055660048036038101906105519190612388565b6111d0565b60405161056391906121fd565b60405180910390f35b6105866004803603810190610581919061260b565b6111f3565b005b61059061121d565b60405161059d9190612231565b60405180910390f35b6105c060048036038101906105bb9190612388565b611223565b005b6105dc60048036038101906105d7919061268e565b611410565b6040516105e99190612231565b60405180910390f35b6105fa611497565b60405161060791906124bb565b60405180910390f35b61062a600480360381019061062591906126ce565b6114bd565b005b61064660048036038101906106419190612452565b6114db565b005b6106506115d2565b60405161065d91906124bb565b60405180910390f35b60007f65787371000000000000000000000000000000000000000000000000000000007bffffffffffffffffffffffffffffffffffffffffffffffffffffffff1916827bffffffffffffffffffffffffffffffffffffffffffffffffffffffff1916148061073157507fa219a025000000000000000000000000000000000000000000000000000000007bffffffffffffffffffffffffffffffffffffffffffffffffffffffff1916827bffffffffffffffffffffffffffffffffffffffffffffffffffffffff1916145b806107415750610740826115f8565b5b9050919050565b600061075261083e565b905090565b6060600380546107669061276c565b80601f01602080910402602001604051908101604052809291908181526020018280546107929061276c565b80156107df5780601f106107b4576101008083540402835291602001916107df565b820191906000526020600020905b8154815290600101906020018083116107c257829003601f168201915b5050505050905090565b6000806107f4611662565b905061080181858561166a565b600191505092915050565b6000610839600860009054906101000a900473ffffffffffffffffffffffffffffffffffffffff16610d13565b905090565b6000600254905090565b60008060646009548461085b91906127cc565b610865919061283d565b905061089485600860009054906101000a900473ffffffffffffffffffffffffffffffffffffffff1683611833565b6108aa858583866108a5919061286e565b611833565b60019150509392505050565b60006012905090565b6000806108ca611662565b90506108eb8185856108dc8589611410565b6108e691906128a2565b61166a565b600191505092915050565b6108fe611662565b73ffffffffffffffffffffffffffffffffffffffff1661091c610f85565b73ffffffffffffffffffffffffffffffffffffffff1614610972576040517f08c379a000000000000000000000000000000000000000000000000000000000815260040161096990612922565b60405180910390fd5b600081116109b5576040517f08c379a00000000000000000000000000000000000000000000000000000000081526004016109ac9061298e565b60405180910390fd5b6109bf8282611ab2565b5050565b60006109cd611662565b90506109ea81848460405180602001604052806000815250611c11565b505050565b60006109f9611662565b9050610a06848284611c6d565b610a2184848460405180602001604052806000815250611c11565b50505050565b6000610a3282610d13565b9050919050565b600760009054906101000a900473ffffffffffffffffffffffffffffffffffffffff1673ffffffffffffffffffffffffffffffffffffffff163373ffffffffffffffffffffffffffffffffffffffff161480610ac75750610a98610f85565b73ffffffffffffffffffffffffffffffffffffffff163373ffffffffffffffffffffffffffffffffffffffff16145b610b06576040517f08c379a0000000000000000000000000000000000000000000000000000000008152600401610afd906129fa565b60405180910390fd5b80610b1083610d13565b1015610b51576040517f08c379a0000000000000000000000000000000000000000000000000000000008152600401610b4890612a66565b60405180910390fd5b80600660008473ffffffffffffffffffffffffffffffffffffffff1673ffffffffffffffffffffffffffffffffffffffff1681526020019081526020016000206000828254610ba091906128a2565b925050819055507f09a0d64fedaf85ca5d97ba8064e1f1d74cef4ed463066eaa4cae56611c42626e8282604051610bd8929190612a86565b60405180910390a15050565b610bec611662565b73ffffffffffffffffffffffffffffffffffffffff16610c0a610f85565b73ffffffffffffffffffffffffffffffffffffffff1614610c60576040517f08c379a0000000000000000000000000000000000000000000000000000000008152600401610c5790612922565b60405180910390fd5b600073ffffffffffffffffffffffffffffffffffffffff168173ffffffffffffffffffffffffffffffffffffffff1603610ccf576040517f08c379a0000000000000000000000000000000000000000000000000000000008152600401610cc690612afb565b60405180910390fd5b80600760006101000a81548173ffffffffffffffffffffffffffffffffffffffff021916908373ffffffffffffffffffffffffffffffffffffffff16021790555050565b60008060008373ffffffffffffffffffffffffffffffffffffffff1673ffffffffffffffffffffffffffffffffffffffff168152602001908152602001600020549050919050565b610d63611662565b73ffffffffffffffffffffffffffffffffffffffff16610d81610f85565b73ffffffffffffffffffffffffffffffffffffffff1614610dd7576040517f08c379a0000000000000000000000000000000000000000000000000000000008152600401610dce90612922565b60405180910390fd5b610de16000611cf9565b565b60066020528060005260406000206000915090505481565b610e03611662565b73ffffffffffffffffffffffffffffffffffffffff16610e21610f85565b73ffffffffffffffffffffffffffffffffffffffff1614610e77576040517f08c379a0000000000000000000000000000000000000000000000000000000008152600401610e6e90612922565b60405180910390fd5b80600860006101000a81548173ffffffffffffffffffffffffffffffffffffffff021916908373ffffffffffffffffffffffffffffffffffffffff16021790555050565b610ec3611662565b73ffffffffffffffffffffffffffffffffffffffff16610ee1610f85565b73ffffffffffffffffffffffffffffffffffffffff1614610f37576040517f08c379a0000000000000000000000000000000000000000000000000000000008152600401610f2e90612922565b60405180910390fd5b6064811115610f7b576040517f08c379a0000000000000000000000000000000000000000000000000000000008152600401610f7290612b8d565b60405180910390fd5b8060098190555050565b6000600560009054906101000a900473ffffffffffffffffffffffffffffffffffffffff16905090565b606060048054610fbe9061276c565b80601f0160208091040260200160405190810160405280929190818152602001828054610fea9061276c565b80156110375780601f1061100c57610100808354040283529160200191611037565b820191906000526020600020905b81548152906001019060200180831161101a57829003601f168201915b5050505050905090565b611049611662565b73ffffffffffffffffffffffffffffffffffffffff16611067610f85565b73ffffffffffffffffffffffffffffffffffffffff16146110bd576040517f08c379a00000000000000000000000000000000000000000000000000000000081526004016110b490612922565b60405180910390fd5b60008111611100576040517f08c379a00000000000000000000000000000000000000000000000000000000081526004016110f790612bf9565b60405180910390fd5b8061110a83610d13565b101561114b576040517f08c379a000000000000000000000000000000000000000000000000000000000815260040161114290612c65565b60405180910390fd5b6111558282611dbf565b5050565b600080611164611662565b905060006111728286611410565b9050838110156111b7576040517f08c379a00000000000000000000000000000000000000000000000000000000081526004016111ae90612cf7565b60405180910390fd5b6111c4828686840361166a565b60019250505092915050565b6000806111db611662565b90506111e8818585611833565b600191505092915050565b60006111fd611662565b905061120a858285611c6d565b61121685858585611c11565b5050505050565b60095481565b600760009054906101000a900473ffffffffffffffffffffffffffffffffffffffff1673ffffffffffffffffffffffffffffffffffffffff163373ffffffffffffffffffffffffffffffffffffffff1614806112b15750611282610f85565b73ffffffffffffffffffffffffffffffffffffffff163373ffffffffffffffffffffffffffffffffffffffff16145b6112f0576040517f08c379a00000000000000000000000000000000000000000000000000000000081526004016112e7906129fa565b60405180910390fd5b80600660008473ffffffffffffffffffffffffffffffffffffffff1673ffffffffffffffffffffffffffffffffffffffff168152602001908152602001600020541015611372576040517f08c379a000000000000000000000000000000000000000000000000000000000815260040161136990612d63565b60405180910390fd5b80600660008473ffffffffffffffffffffffffffffffffffffffff1673ffffffffffffffffffffffffffffffffffffffff16815260200190815260200160002060008282546113c1919061286e565b925050819055506113d3308383611833565b7f221c08a06b07a64803b3787861a3f276212fcccb51c2e6234077a9b8cb13047a8282604051611404929190612a86565b60405180910390a15050565b6000600160008473ffffffffffffffffffffffffffffffffffffffff1673ffffffffffffffffffffffffffffffffffffffff16815260200190815260200160002060008373ffffffffffffffffffffffffffffffffffffffff1673ffffffffffffffffffffffffffffffffffffffff16815260200190815260200160002054905092915050565b600860009054906101000a900473ffffffffffffffffffffffffffffffffffffffff1681565b60006114c7611662565b90506114d581858585611c11565b50505050565b6114e3611662565b73ffffffffffffffffffffffffffffffffffffffff16611501610f85565b73ffffffffffffffffffffffffffffffffffffffff1614611557576040517f08c379a000000000000000000000000000000000000000000000000000000000815260040161154e90612922565b60405180910390fd5b600073ffffffffffffffffffffffffffffffffffffffff168173ffffffffffffffffffffffffffffffffffffffff16036115c6576040517f08c379a00000000000000000000000000000000000000000000000000000000081526004016115bd90612df5565b60405180910390fd5b6115cf81611cf9565b50565b600760009054906101000a900473ffffffffffffffffffffffffffffffffffffffff1681565b60007f01ffc9a7000000000000000000000000000000000000000000000000000000007bffffffffffffffffffffffffffffffffffffffffffffffffffffffff1916827bffffffffffffffffffffffffffffffffffffffffffffffffffffffff1916149050919050565b600033905090565b600073ffffffffffffffffffffffffffffffffffffffff168373ffffffffffffffffffffffffffffffffffffffff16036116d9576040517f08c379a00000000000000000000000000000000000000000000000000000000081526004016116d090612e87565b60405180910390fd5b600073ffffffffffffffffffffffffffffffffffffffff168273ffffffffffffffffffffffffffffffffffffffff1603611748576040517f08c379a000000000000000000000000000000000000000000000000000000000815260040161173f90612f19565b60405180910390fd5b80600160008573ffffffffffffffffffffffffffffffffffffffff1673ffffffffffffffffffffffffffffffffffffffff16815260200190815260200160002060008473ffffffffffffffffffffffffffffffffffffffff1673ffffffffffffffffffffffffffffffffffffffff168152602001908152602001600020819055508173ffffffffffffffffffffffffffffffffffffffff168373ffffffffffffffffffffffffffffffffffffffff167f8c5be1e5ebec7d5bd14f71427d1e84f3dd0314c0f7b2291e5b200ac8c7c3b925836040516118269190612231565b60405180910390a3505050565b600073ffffffffffffffffffffffffffffffffffffffff168373ffffffffffffffffffffffffffffffffffffffff16036118a2576040517f08c379a000000000000000000000000000000000000000000000000000000000815260040161189990612fab565b60405180910390fd5b600073ffffffffffffffffffffffffffffffffffffffff168273ffffffffffffffffffffffffffffffffffffffff1603611911576040517f08c379a00000000000000000000000000000000000000000000000000000000081526004016119089061303d565b60405180910390fd5b61191c838383611f95565b60008060008573ffffffffffffffffffffffffffffffffffffffff1673ffffffffffffffffffffffffffffffffffffffff168152602001908152602001600020549050818110156119a2576040517f08c379a0000000000000000000000000000000000000000000000000000000008152600401611999906130cf565b60405180910390fd5b8181036000808673ffffffffffffffffffffffffffffffffffffffff1673ffffffffffffffffffffffffffffffffffffffff16815260200190815260200160002081905550816000808573ffffffffffffffffffffffffffffffffffffffff1673ffffffffffffffffffffffffffffffffffffffff1681526020019081526020016000206000828254611a3591906128a2565b925050819055508273ffffffffffffffffffffffffffffffffffffffff168473ffffffffffffffffffffffffffffffffffffffff167fddf252ad1be2c89b69c2b068fc378daa952ba7f163c4a11628f55a4df523b3ef84604051611a999190612231565b60405180910390a3611aac848484611f9a565b50505050565b600073ffffffffffffffffffffffffffffffffffffffff168273ffffffffffffffffffffffffffffffffffffffff1603611b21576040517f08c379a0000000000000000000000000000000000000000000000000000000008152600401611b189061313b565b60405180910390fd5b611b2d60008383611f95565b8060026000828254611b3f91906128a2565b92505081905550806000808473ffffffffffffffffffffffffffffffffffffffff1673ffffffffffffffffffffffffffffffffffffffff1681526020019081526020016000206000828254611b9491906128a2565b925050819055508173ffffffffffffffffffffffffffffffffffffffff16600073ffffffffffffffffffffffffffffffffffffffff167fddf252ad1be2c89b69c2b068fc378daa952ba7f163c4a11628f55a4df523b3ef83604051611bf99190612231565b60405180910390a3611c0d60008383611f9a565b5050565b611c1c848484611833565b611c2884848484611f9f565b611c67576040517f08c379a0000000000000000000000000000000000000000000000000000000008152600401611c5e906131cd565b60405180910390fd5b50505050565b6000611c798484611410565b90507fffffffffffffffffffffffffffffffffffffffffffffffffffffffffffffffff8114611cf35781811015611ce5576040517f08c379a0000000000000000000000000000000000000000000000000000000008152600401611cdc90613239565b60405180910390fd5b611cf2848484840361166a565b5b50505050565b6000600560009054906101000a900473ffffffffffffffffffffffffffffffffffffffff16905081600560006101000a81548173ffffffffffffffffffffffffffffffffffffffff021916908373ffffffffffffffffffffffffffffffffffffffff1602179055508173ffffffffffffffffffffffffffffffffffffffff168173ffffffffffffffffffffffffffffffffffffffff167f8be0079c531659141344cd1fd0a4f28419497f9722a3daafe3b4186f6b6457e060405160405180910390a35050565b600073ffffffffffffffffffffffffffffffffffffffff168273ffffffffffffffffffffffffffffffffffffffff1603611e2e576040517f08c379a0000000000000000000000000000000000000000000000000000000008152600401611e25906132a5565b60405180910390fd5b611e3a82600083611f95565b60008060008473ffffffffffffffffffffffffffffffffffffffff1673ffffffffffffffffffffffffffffffffffffffff16815260200190815260200160002054905081811015611ec0576040517f08c379a0000000000000000000000000000000000000000000000000000000008152600401611eb790613337565b60405180910390fd5b8181036000808573ffffffffffffffffffffffffffffffffffffffff1673ffffffffffffffffffffffffffffffffffffffff168152602001908152602001600020819055508160026000828254611f17919061286e565b92505081905550600073ffffffffffffffffffffffffffffffffffffffff168373ffffffffffffffffffffffffffffffffffffffff167fddf252ad1be2c89b69c2b068fc378daa952ba7f163c4a11628f55a4df523b3ef84604051611f7c9190612231565b60405180910390a3611f9083600084611f9a565b505050565b505050565b505050565b6000611fc08473ffffffffffffffffffffffffffffffffffffffff16612126565b15612119578373ffffffffffffffffffffffffffffffffffffffff16639d188c22611fe9611662565b8786866040518563ffffffff1660e01b815260040161200b94939291906133ac565b6020604051808303816000875af192505050801561204757506040513d601f19601f82011682018060405250810190612044919061340d565b60015b6120c9573d8060008114612077576040519150601f19603f3d011682016040523d82523d6000602084013e61207c565b606091505b5060008151036120c1576040517f08c379a00000000000000000000000000000000000000000000000000000000081526004016120b8906134ac565b60405180910390fd5b805181602001fd5b639d188c2260e01b7bffffffffffffffffffffffffffffffffffffffffffffffffffffffff1916817bffffffffffffffffffffffffffffffffffffffffffffffffffffffff19161491505061211e565b600190505b949350505050565b6000808273ffffffffffffffffffffffffffffffffffffffff163b119050919050565b6000604051905090565b600080fd5b600080fd5b60007fffffffff0000000000000000000000000000000000000000000000000000000082169050919050565b6121928161215d565b811461219d57600080fd5b50565b6000813590506121af81612189565b92915050565b6000602082840312156121cb576121ca612153565b5b60006121d9848285016121a0565b91505092915050565b60008115159050919050565b6121f7816121e2565b82525050565b600060208201905061221260008301846121ee565b92915050565b6000819050919050565b61222b81612218565b82525050565b60006020820190506122466000830184612222565b92915050565b600081519050919050565b600082825260208201905092915050565b60005b8381101561228657808201518184015260208101905061226b565b60008484015250505050565b6000601f19601f8301169050919050565b60006122ae8261224c565b6122b88185612257565b93506122c8818560208601612268565b6122d181612292565b840191505092915050565b600060208201905081810360008301526122f681846122a3565b905092915050565b600073ffffffffffffffffffffffffffffffffffffffff82169050919050565b6000612329826122fe565b9050919050565b6123398161231e565b811461234457600080fd5b50565b60008135905061235681612330565b92915050565b61236581612218565b811461237057600080fd5b50565b6000813590506123828161235c565b92915050565b6000806040838503121561239f5761239e612153565b5b60006123ad85828601612347565b92505060206123be85828601612373565b9150509250929050565b6000806000606084860312156123e1576123e0612153565b5b60006123ef86828701612347565b935050602061240086828701612347565b925050604061241186828701612373565b9150509250925092565b600060ff82169050919050565b6124318161241b565b82525050565b600060208201905061244c6000830184612428565b92915050565b60006020828403121561246857612467612153565b5b600061247684828501612347565b91505092915050565b60006020828403121561249557612494612153565b5b60006124a384828501612373565b91505092915050565b6124b58161231e565b82525050565b60006020820190506124d060008301846124ac565b92915050565b600080fd5b600080fd5b7f4e487b7100000000000000000000000000000000000000000000000000000000600052604160045260246000fd5b61251882612292565b810181811067ffffffffffffffff82111715612537576125366124e0565b5b80604052505050565b600061254a612149565b9050612556828261250f565b919050565b600067ffffffffffffffff821115612576576125756124e0565b5b61257f82612292565b9050602081019050919050565b82818337600083830152505050565b60006125ae6125a98461255b565b612540565b9050828152602081018484840111156125ca576125c96124db565b5b6125d584828561258c565b509392505050565b600082601f8301126125f2576125f16124d6565b5b813561260284826020860161259b565b91505092915050565b6000806000806080858703121561262557612624612153565b5b600061263387828801612347565b945050602061264487828801612347565b935050604061265587828801612373565b925050606085013567ffffffffffffffff81111561267657612675612158565b5b612682878288016125dd565b91505092959194509250565b600080604083850312156126a5576126a4612153565b5b60006126b385828601612347565b92505060206126c485828601612347565b9150509250929050565b6000806000606084860312156126e7576126e6612153565b5b60006126f586828701612347565b935050602061270686828701612373565b925050604084013567ffffffffffffffff81111561272757612726612158565b5b612733868287016125dd565b9150509250925092565b7f4e487b7100000000000000000000000000000000000000000000000000000000600052602260045260246000fd5b6000600282049050600182168061278457607f821691505b6020821081036127975761279661273d565b5b50919050565b7f4e487b7100000000000000000000000000000000000000000000000000000000600052601160045260246000fd5b60006127d782612218565b91506127e283612218565b92508282026127f081612218565b915082820484148315176128075761280661279d565b5b5092915050565b7f4e487b7100000000000000000000000000000000000000000000000000000000600052601260045260246000fd5b600061284882612218565b915061285383612218565b9250826128635761286261280e565b5b828204905092915050565b600061287982612218565b915061288483612218565b925082820390508181111561289c5761289b61279d565b5b92915050565b60006128ad82612218565b91506128b883612218565b92508282019050808211156128d0576128cf61279d565b5b92915050565b7f4f776e61626c653a2063616c6c6572206973206e6f7420746865206f776e6572600082015250565b600061290c602083612257565b9150612917826128d6565b602082019050919050565b6000602082019050818103600083015261293b816128ff565b9050919050565b7f416d6f756e7420746f206d696e74206d75737420626520706f73697469766500600082015250565b6000612978601f83612257565b915061298382612942565b602082019050919050565b600060208201905081810360008301526129a78161296b565b9050919050565b7f4e6f7420617574686f72697a6564000000000000000000000000000000000000600082015250565b60006129e4600e83612257565b91506129ef826129ae565b602082019050919050565b60006020820190508181036000830152612a13816129d7565b9050919050565b7f496e73756666696369656e742062616c616e636520746f2077697468686f6c64600082015250565b6000612a50602083612257565b9150612a5b82612a1a565b602082019050919050565b60006020820190508181036000830152612a7f81612a43565b9050919050565b6000604082019050612a9b60008301856124ac565b612aa86020830184612222565b9392505050565b7f4e65772061646d696e20616464726573732063616e6e6f74206265207a65726f600082015250565b6000612ae5602083612257565b9150612af082612aaf565b602082019050919050565b60006020820190508181036000830152612b1481612ad8565b9050919050565b7f506c6174666f726d206665652070657263656e746167652063616e6e6f74206560008201527f7863656564203130302500000000000000000000000000000000000000000000602082015250565b6000612b77602a83612257565b9150612b8282612b1b565b604082019050919050565b60006020820190508181036000830152612ba681612b6a565b9050919050565b7f416d6f756e7420746f206275726e206d75737420626520706f73697469766500600082015250565b6000612be3601f83612257565b9150612bee82612bad565b602082019050919050565b60006020820190508181036000830152612c1281612bd6565b9050919050565b7f496e73756666696369656e742062616c616e636520746f206275726e00000000600082015250565b6000612c4f601c83612257565b9150612c5a82612c19565b602082019050919050565b60006020820190508181036000830152612c7e81612c42565b9050919050565b7f4b4950373a2064656372656173656420616c6c6f77616e63652062656c6f772060008201527f7a65726f00000000000000000000000000000000000000000000000000000000602082015250565b6000612ce1602483612257565b9150612cec82612c85565b604082019050919050565b60006020820190508181036000830152612d1081612cd4565b9050919050565b7f4e6f7420656e6f7567682064697370757465642066756e647300000000000000600082015250565b6000612d4d601983612257565b9150612d5882612d17565b602082019050919050565b60006020820190508181036000830152612d7c81612d40565b9050919050565b7f4f776e61626c653a206e6577206f776e657220697320746865207a65726f206160008201527f6464726573730000000000000000000000000000000000000000000000000000602082015250565b6000612ddf602683612257565b9150612dea82612d83565b604082019050919050565b60006020820190508181036000830152612e0e81612dd2565b9050919050565b7f4b4950373a20617070726f76652066726f6d20746865207a65726f206164647260008201527f6573730000000000000000000000000000000000000000000000000000000000602082015250565b6000612e71602383612257565b9150612e7c82612e15565b604082019050919050565b60006020820190508181036000830152612ea081612e64565b9050919050565b7f4b4950373a20617070726f766520746f20746865207a65726f2061646472657360008201527f7300000000000000000000000000000000000000000000000000000000000000602082015250565b6000612f03602183612257565b9150612f0e82612ea7565b604082019050919050565b60006020820190508181036000830152612f3281612ef6565b9050919050565b7f4b4950373a207472616e736665722066726f6d20746865207a65726f2061646460008201527f7265737300000000000000000000000000000000000000000000000000000000602082015250565b6000612f95602483612257565b9150612fa082612f39565b604082019050919050565b60006020820190508181036000830152612fc481612f88565b9050919050565b7f4b4950373a207472616e7366657220746f20746865207a65726f20616464726560008201527f7373000000000000000000000000000000000000000000000000000000000000602082015250565b6000613027602283612257565b915061303282612fcb565b604082019050919050565b600060208201905081810360008301526130568161301a565b9050919050565b7f4b4950373a207472616e7366657220616d6f756e74206578636565647320626160008201527f6c616e6365000000000000000000000000000000000000000000000000000000602082015250565b60006130b9602583612257565b91506130c48261305d565b604082019050919050565b600060208201905081810360008301526130e8816130ac565b9050919050565b7f4b4950373a206d696e7420746f20746865207a65726f20616464726573730000600082015250565b6000613125601e83612257565b9150613130826130ef565b602082019050919050565b6000602082019050818103600083015261315481613118565b9050919050565b7f4b4950373a207472616e7366657220746f206e6f6e20494b495037526563656960008201527f76657220696d706c656d656e7465720000000000000000000000000000000000602082015250565b60006131b7602f83612257565b91506131c28261315b565b604082019050919050565b600060208201905081810360008301526131e6816131aa565b9050919050565b7f4b4950373a20696e73756666696369656e7420616c6c6f77616e636500000000600082015250565b6000613223601c83612257565b915061322e826131ed565b602082019050919050565b6000602082019050818103600083015261325281613216565b9050919050565b7f4b4950373a206275726e2066726f6d20746865207a65726f2061646472657373600082015250565b600061328f602083612257565b915061329a82613259565b602082019050919050565b600060208201905081810360008301526132be81613282565b9050919050565b7f4b4950373a206275726e20616d6f756e7420657863656564732062616c616e6360008201527f6500000000000000000000000000000000000000000000000000000000000000602082015250565b6000613321602183612257565b915061332c826132c5565b604082019050919050565b6000602082019050818103600083015261335081613314565b9050919050565b600081519050919050565b600082825260208201905092915050565b600061337e82613357565b6133888185613362565b9350613398818560208601612268565b6133a181612292565b840191505092915050565b60006080820190506133c160008301876124ac565b6133ce60208301866124ac565b6133db6040830185612222565b81810360608301526133ed8184613373565b905095945050505050565b60008151905061340781612189565b92915050565b60006020828403121561342357613422612153565b5b6000613431848285016133f8565b91505092915050565b7f4b4950373a207472616e7366657220746f206e6f6e204b49503752656365697660008201527f657220696d706c656d656e746572000000000000000000000000000000000000602082015250565b6000613496602e83612257565b91506134a18261343a565b604082019050919050565b600060208201905081810360008301526134c581613489565b905091905056fea2646970667358221220d31243da38fe446fc4f2b5d513d5caa83622eef252091e633dfd1833c57748d264736f6c63430008110033",
  "linkReferences": {},
  "deployedLinkReferences": {}
}