{
  "_format": "hh-sol-artifact-1",
  "contractName": "KlayverToken",
  "sourceName": "contracts/KlayverToken.sol",
  "abi": [
    {
      "inputs": [
        {
          "internalType": "string",
          "name": "_tokenName",
          "type": "string"
        },
        {
          "internalType": "string",
          "name": "_tokenSymbol",
          "type": "string"
        }
      ],
      "stateMutability": "nonpayable",
      "type": "constructor"
    },
    {
      "anonymous": false,
      "inputs": [
        {
          "indexed": true,
          "internalType": "address",
          "name": "owner",
          "type": "address"
        },
        {
          "indexed": true,
          "internalType": "address",
          "name": "spender",
          "type": "address"
        },
        {
          "indexed": false,
          "internalType": "uint256",
          "name": "value",
          "type": "uint256"
        }
      ],
      "name": "Approval",
      "type": "event"
    },
    {
      "anonymous": false,
      "inputs": [
        {
          "indexed": true,
          "internalType": "address",
          "name": "previousOwner",
          "type": "address"
        },
        {
          "indexed": true,
          "internalType": "address",
          "name": "newOwner",
          "type": "address"
        }
      ],
      "name": "OwnershipTransferred",
      "type": "event"
    },
    {
      "anonymous": false,
      "inputs": [
        {
          "indexed": false,
          "internalType": "address",
          "name": "account",
          "type": "address"
        }
      ],
      "name": "Paused",
      "type": "event"
    },
    {
      "anonymous": false,
      "inputs": [
        {
          "indexed": true,
          "internalType": "address",
          "name": "from",
          "type": "address"
        },
        {
          "indexed": true,
          "internalType": "address",
          "name": "to",
          "type": "address"
        },
        {
          "indexed": false,
          "internalType": "uint256",
          "name": "value",
          "type": "uint256"
        }
      ],
      "name": "Transfer",
      "type": "event"
    },
    {
      "anonymous": false,
      "inputs": [
        {
          "indexed": false,
          "internalType": "address",
          "name": "account",
          "type": "address"
        }
      ],
      "name": "Unpaused",
      "type": "event"
    },
    {
      "inputs": [
        {
          "internalType": "address",
          "name": "owner",
          "type": "address"
        },
        {
          "internalType": "address",
          "name": "spender",
          "type": "address"
        }
      ],
      "name": "allowance",
      "outputs": [
        {
          "internalType": "uint256",
          "name": "",
          "type": "uint256"
        }
      ],
      "stateMutability": "view",
      "type": "function"
    },
    {
      "inputs": [
        {
          "internalType": "address",
          "name": "spender",
          "type": "address"
        },
        {
          "internalType": "uint256",
          "name": "amount",
          "type": "uint256"
        }
      ],
      "name": "approve",
      "outputs": [
        {
          "internalType": "bool",
          "name": "",
          "type": "bool"
        }
      ],
      "stateMutability": "nonpayable",
      "type": "function"
    },
    {
      "inputs": [
        {
          "internalType": "address",
          "name": "account",
          "type": "address"
        }
      ],
      "name": "balanceOf",
      "outputs": [
        {
          "internalType": "uint256",
          "name": "",
          "type": "uint256"
        }
      ],
      "stateMutability": "view",
      "type": "function"
    },
    {
      "inputs": [
        {
          "internalType": "uint256",
          "name": "amount",
          "type": "uint256"
        }
      ],
      "name": "burn",
      "outputs": [],
      "stateMutability": "nonpayable",
      "type": "function"
    },
    {
      "inputs": [
        {
          "internalType": "address",
          "name": "account",
          "type": "address"
        },
        {
          "internalType": "uint256",
          "name": "amount",
          "type": "uint256"
        }
      ],
      "name": "burnFrom",
      "outputs": [],
      "stateMutability": "nonpayable",
      "type": "function"
    },
    {
      "inputs": [
        {
          "internalType": "uint256",
          "name": "_amount",
          "type": "uint256"
        },
        {
          "internalType": "address",
          "name": "_owner",
          "type": "address"
        }
      ],
      "name": "burnToken",
      "outputs": [],
      "stateMutability": "nonpayable",
      "type": "function"
    },
    {
      "inputs": [],
      "name": "decimals",
      "outputs": [
        {
          "internalType": "uint8",
          "name": "",
          "type": "uint8"
        }
      ],
      "stateMutability": "view",
      "type": "function"
    },
    {
      "inputs": [
        {
          "internalType": "address",
          "name": "spender",
          "type": "address"
        },
        {
          "internalType": "uint256",
          "name": "subtractedValue",
          "type": "uint256"
        }
      ],
      "name": "decreaseAllowance",
      "outputs": [
        {
          "internalType": "bool",
          "name": "",
          "type": "bool"
        }
      ],
      "stateMutability": "nonpayable",
      "type": "function"
    },
    {
      "inputs": [
        {
          "internalType": "address",
          "name": "spender",
          "type": "address"
        },
        {
          "internalType": "uint256",
          "name": "addedValue",
          "type": "uint256"
        }
      ],
      "name": "increaseAllowance",
      "outputs": [
        {
          "internalType": "bool",
          "name": "",
          "type": "bool"
        }
      ],
      "stateMutability": "nonpayable",
      "type": "function"
    },
    {
      "inputs": [
        {
          "internalType": "uint256",
          "name": "amount",
          "type": "uint256"
        }
      ],
      "name": "mint",
      "outputs": [
        {
          "internalType": "uint256",
          "name": "",
          "type": "uint256"
        }
      ],
      "stateMutability": "nonpayable",
      "type": "function"
    },
    {
      "inputs": [],
      "name": "name",
      "outputs": [
        {
          "internalType": "string",
          "name": "",
          "type": "string"
        }
      ],
      "stateMutability": "view",
      "type": "function"
    },
    {
      "inputs": [],
      "name": "owner",
      "outputs": [
        {
          "internalType": "address",
          "name": "",
          "type": "address"
        }
      ],
      "stateMutability": "view",
      "type": "function"
    },
    {
      "inputs": [],
      "name": "pause",
      "outputs": [],
      "stateMutability": "nonpayable",
      "type": "function"
    },
    {
      "inputs": [],
      "name": "paused",
      "outputs": [
        {
          "internalType": "bool",
          "name": "",
          "type": "bool"
        }
      ],
      "stateMutability": "view",
      "type": "function"
    },
    {
      "inputs": [],
      "name": "renounceOwnership",
      "outputs": [],
      "stateMutability": "nonpayable",
      "type": "function"
    },
    {
      "inputs": [
        {
          "internalType": "address",
          "name": "_owner",
          "type": "address"
        }
      ],
      "name": "retrieveTokenBalance",
      "outputs": [
        {
          "internalType": "uint256",
          "name": "",
          "type": "uint256"
        }
      ],
      "stateMutability": "view",
      "type": "function"
    },
    {
      "inputs": [
        {
          "internalType": "address",
          "name": "_owner",
          "type": "address"
        }
      ],
      "name": "retriveUserTokenBalance",
      "outputs": [
        {
          "internalType": "uint256",
          "name": "",
          "type": "uint256"
        }
      ],
      "stateMutability": "view",
      "type": "function"
    },
    {
      "inputs": [
        {
          "internalType": "address",
          "name": "recipient",
          "type": "address"
        },
        {
          "internalType": "uint256",
          "name": "amount",
          "type": "uint256"
        }
      ],
      "name": "safeTransfer",
      "outputs": [],
      "stateMutability": "nonpayable",
      "type": "function"
    },
    {
      "inputs": [
        {
          "internalType": "address",
          "name": "recipient",
          "type": "address"
        },
        {
          "internalType": "uint256",
          "name": "amount",
          "type": "uint256"
        },
        {
          "internalType": "bytes",
          "name": "_data",
          "type": "bytes"
        }
      ],
      "name": "safeTransfer",
      "outputs": [],
      "stateMutability": "nonpayable",
      "type": "function"
    },
    {
      "inputs": [
        {
          "internalType": "address",
          "name": "sender",
          "type": "address"
        },
        {
          "internalType": "address",
          "name": "recipient",
          "type": "address"
        },
        {
          "internalType": "uint256",
          "name": "amount",
          "type": "uint256"
        }
      ],
      "name": "safeTransferFrom",
      "outputs": [],
      "stateMutability": "nonpayable",
      "type": "function"
    },
    {
      "inputs": [
        {
          "internalType": "address",
          "name": "sender",
          "type": "address"
        },
        {
          "internalType": "address",
          "name": "recipient",
          "type": "address"
        },
        {
          "internalType": "uint256",
          "name": "amount",
          "type": "uint256"
        },
        {
          "internalType": "bytes",
          "name": "_data",
          "type": "bytes"
        }
      ],
      "name": "safeTransferFrom",
      "outputs": [],
      "stateMutability": "nonpayable",
      "type": "function"
    },
    {
      "inputs": [
        {
          "internalType": "bytes4",
          "name": "interfaceId",
          "type": "bytes4"
        }
      ],
      "name": "supportsInterface",
      "outputs": [
        {
          "internalType": "bool",
          "name": "",
          "type": "bool"
        }
      ],
      "stateMutability": "view",
      "type": "function"
    },
    {
      "inputs": [],
      "name": "symbol",
      "outputs": [
        {
          "internalType": "string",
          "name": "",
          "type": "string"
        }
      ],
      "stateMutability": "view",
      "type": "function"
    },
    {
      "inputs": [],
      "name": "totalSupply",
      "outputs": [
        {
          "internalType": "uint256",
          "name": "",
          "type": "uint256"
        }
      ],
      "stateMutability": "view",
      "type": "function"
    },
    {
      "inputs": [
        {
          "internalType": "address",
          "name": "to",
          "type": "address"
        },
        {
          "internalType": "uint256",
          "name": "amount",
          "type": "uint256"
        }
      ],
      "name": "transfer",
      "outputs": [
        {
          "internalType": "bool",
          "name": "",
          "type": "bool"
        }
      ],
      "stateMutability": "nonpayable",
      "type": "function"
    },
    {
      "inputs": [
        {
          "internalType": "address",
          "name": "from",
          "type": "address"
        },
        {
          "internalType": "address",
          "name": "to",
          "type": "address"
        },
        {
          "internalType": "uint256",
          "name": "amount",
          "type": "uint256"
        }
      ],
      "name": "transferFrom",
      "outputs": [
        {
          "internalType": "bool",
          "name": "",
          "type": "bool"
        }
      ],
      "stateMutability": "nonpayable",
      "type": "function"
    },
    {
      "inputs": [
        {
          "internalType": "address",
          "name": "newOwner",
          "type": "address"
        }
      ],
      "name": "transferOwnership",
      "outputs": [],
      "stateMutability": "nonpayable",
      "type": "function"
    },
    {
      "inputs": [],
      "name": "unpause",
      "outputs": [],
      "stateMutability": "nonpayable",
      "type": "function"
    }
  ],
  "bytecode": "0x60806040523480156200001157600080fd5b5060405162003a0c38038062003a0c833981810160405281019062000037919062000553565b818181600390816200004a919062000823565b5080600490816200005c919062000823565b5050506000600560006101000a81548160ff0219169083151502179055506200009a6200008e620000e060201b60201c565b620000e860201b60201c565b620000d833620000af620001ae60201b60201c565b600a620000bd919062000a9a565b612710620000cc919062000aeb565b620001b760201b60201c565b505062000c94565b600033905090565b6000600560019054906101000a900473ffffffffffffffffffffffffffffffffffffffff16905081600560016101000a81548173ffffffffffffffffffffffffffffffffffffffff021916908373ffffffffffffffffffffffffffffffffffffffff1602179055508173ffffffffffffffffffffffffffffffffffffffff168173ffffffffffffffffffffffffffffffffffffffff167f8be0079c531659141344cd1fd0a4f28419497f9722a3daafe3b4186f6b6457e060405160405180910390a35050565b60006012905090565b600073ffffffffffffffffffffffffffffffffffffffff168273ffffffffffffffffffffffffffffffffffffffff160362000229576040517f08c379a0000000000000000000000000000000000000000000000000000000008152600401620002209062000b97565b60405180910390fd5b6200023d600083836200032f60201b60201c565b806002600082825462000251919062000bb9565b92505081905550806000808473ffffffffffffffffffffffffffffffffffffffff1673ffffffffffffffffffffffffffffffffffffffff1681526020019081526020016000206000828254620002a8919062000bb9565b925050819055508173ffffffffffffffffffffffffffffffffffffffff16600073ffffffffffffffffffffffffffffffffffffffff167fddf252ad1be2c89b69c2b068fc378daa952ba7f163c4a11628f55a4df523b3ef836040516200030f919062000c05565b60405180910390a36200032b600083836200039f60201b60201c565b5050565b6200033f620003a460201b60201c565b1562000382576040517f08c379a0000000000000000000000000000000000000000000000000000000008152600401620003799062000c72565b60405180910390fd5b6200039a838383620003bb60201b62000cde1760201c565b505050565b505050565b6000600560009054906101000a900460ff16905090565b505050565b6000604051905090565b600080fd5b600080fd5b600080fd5b600080fd5b6000601f19601f8301169050919050565b7f4e487b7100000000000000000000000000000000000000000000000000000000600052604160045260246000fd5b6200042982620003de565b810181811067ffffffffffffffff821117156200044b576200044a620003ef565b5b80604052505050565b600062000460620003c0565b90506200046e82826200041e565b919050565b600067ffffffffffffffff821115620004915762000490620003ef565b5b6200049c82620003de565b9050602081019050919050565b60005b83811015620004c9578082015181840152602081019050620004ac565b60008484015250505050565b6000620004ec620004e68462000473565b62000454565b9050828152602081018484840111156200050b576200050a620003d9565b5b62000518848285620004a9565b509392505050565b600082601f830112620005385762000537620003d4565b5b81516200054a848260208601620004d5565b91505092915050565b600080604083850312156200056d576200056c620003ca565b5b600083015167ffffffffffffffff8111156200058e576200058d620003cf565b5b6200059c8582860162000520565b925050602083015167ffffffffffffffff811115620005c057620005bf620003cf565b5b620005ce8582860162000520565b9150509250929050565b600081519050919050565b7f4e487b7100000000000000000000000000000000000000000000000000000000600052602260045260246000fd5b600060028204905060018216806200062b57607f821691505b602082108103620006415762000640620005e3565b5b50919050565b60008190508160005260206000209050919050565b60006020601f8301049050919050565b600082821b905092915050565b600060088302620006ab7fffffffffffffffffffffffffffffffffffffffffffffffffffffffffffffffff826200066c565b620006b786836200066c565b95508019841693508086168417925050509392505050565b6000819050919050565b6000819050919050565b600062000704620006fe620006f884620006cf565b620006d9565b620006cf565b9050919050565b6000819050919050565b6200072083620006e3565b620007386200072f826200070b565b84845462000679565b825550505050565b600090565b6200074f62000740565b6200075c81848462000715565b505050565b5b8181101562000784576200077860008262000745565b60018101905062000762565b5050565b601f821115620007d3576200079d8162000647565b620007a8846200065c565b81016020851015620007b8578190505b620007d0620007c7856200065c565b83018262000761565b50505b505050565b600082821c905092915050565b6000620007f860001984600802620007d8565b1980831691505092915050565b6000620008138383620007e5565b9150826002028217905092915050565b6200082e82620005d8565b67ffffffffffffffff8111156200084a5762000849620003ef565b5b62000856825462000612565b6200086382828562000788565b600060209050601f8311600181146200089b576000841562000886578287015190505b62000892858262000805565b86555062000902565b601f198416620008ab8662000647565b60005b82811015620008d557848901518255600182019150602085019450602081019050620008ae565b86831015620008f55784890151620008f1601f891682620007e5565b8355505b6001600288020188555050505b505050505050565b7f4e487b7100000000000000000000000000000000000000000000000000000000600052601160045260246000fd5b60008160011c9050919050565b6000808291508390505b6001851115620009985780860481111562000970576200096f6200090a565b5b6001851615620009805780820291505b8081029050620009908562000939565b945062000950565b94509492505050565b600082620009b3576001905062000a86565b81620009c3576000905062000a86565b8160018114620009dc5760028114620009e75762000a1d565b600191505062000a86565b60ff841115620009fc57620009fb6200090a565b5b8360020a91508482111562000a165762000a156200090a565b5b5062000a86565b5060208310610133831016604e8410600b841016171562000a575782820a90508381111562000a515762000a506200090a565b5b62000a86565b62000a66848484600162000946565b9250905081840481111562000a805762000a7f6200090a565b5b81810290505b9392505050565b600060ff82169050919050565b600062000aa782620006cf565b915062000ab48362000a8d565b925062000ae37fffffffffffffffffffffffffffffffffffffffffffffffffffffffffffffffff8484620009a1565b905092915050565b600062000af882620006cf565b915062000b0583620006cf565b925082820262000b1581620006cf565b9150828204841483151762000b2f5762000b2e6200090a565b5b5092915050565b600082825260208201905092915050565b7f4b4950373a206d696e7420746f20746865207a65726f20616464726573730000600082015250565b600062000b7f601e8362000b36565b915062000b8c8262000b47565b602082019050919050565b6000602082019050818103600083015262000bb28162000b70565b9050919050565b600062000bc682620006cf565b915062000bd383620006cf565b925082820190508082111562000bee5762000bed6200090a565b5b92915050565b62000bff81620006cf565b82525050565b600060208201905062000c1c600083018462000bf4565b92915050565b7f5061757361626c653a2070617573656400000000000000000000000000000000600082015250565b600062000c5a60108362000b36565b915062000c678262000c22565b602082019050919050565b6000602082019050818103600083015262000c8d8162000c4b565b9050919050565b612d688062000ca46000396000f3fe608060405234801561001057600080fd5b50600436106101c45760003560e01c806370a08231116100f9578063a457c2d711610097578063dc593ca511610071578063dc593ca514610507578063dd62ed3e14610523578063eb79554914610553578063f2fde38b1461056f576101c4565b8063a457c2d71461048b578063a9059cbb146104bb578063b88d4fde146104eb576101c4565b80638456cb59116100d35780638456cb59146104155780638da5cb5b1461041f57806395d89b411461043d578063a0712d681461045b576101c4565b806370a08231146103bf578063715018a6146103ef57806379cc6790146103f9576101c4565b8063395093511161016657806342842e0e1161014057806342842e0e1461033957806342966c68146103555780635c975abb146103715780636b823acd1461038f576101c4565b806339509351146102e35780633f4ba83a14610313578063423f6cef1461031d576101c4565b806318160ddd116101a257806318160ddd1461024757806323b872dd146102655780632f329e4214610295578063313ce567146102c5576101c4565b806301ffc9a7146101c957806306fdde03146101f9578063095ea7b314610217575b600080fd5b6101e360048036038101906101de9190611b94565b61058b565b6040516101f09190611bdc565b60405180910390f35b61020161059d565b60405161020e9190611c87565b60405180910390f35b610231600480360381019061022c9190611d3d565b61062f565b60405161023e9190611bdc565b60405180910390f35b61024f610652565b60405161025c9190611d8c565b60405180910390f35b61027f600480360381019061027a9190611da7565b61065c565b60405161028c9190611bdc565b60405180910390f35b6102af60048036038101906102aa9190611dfa565b61068b565b6040516102bc9190611d8c565b60405180910390f35b6102cd61069d565b6040516102da9190611e43565b60405180910390f35b6102fd60048036038101906102f89190611d3d565b6106a6565b60405161030a9190611bdc565b60405180910390f35b61031b6106dd565b005b61033760048036038101906103329190611d3d565b610763565b005b610353600480360381019061034e9190611da7565b61078f565b005b61036f600480360381019061036a9190611e5e565b6107c7565b005b6103796107db565b6040516103869190611bdc565b60405180910390f35b6103a960048036038101906103a49190611dfa565b6107f2565b6040516103b69190611d8c565b60405180910390f35b6103d960048036038101906103d49190611dfa565b610804565b6040516103e69190611d8c565b60405180910390f35b6103f761084c565b005b610413600480360381019061040e9190611d3d565b6108d4565b005b61041d6108f4565b005b61042761097a565b6040516104349190611e9a565b60405180910390f35b6104456109a4565b6040516104529190611c87565b60405180910390f35b61047560048036038101906104709190611e5e565b610a36565b6040516104829190611d8c565b60405180910390f35b6104a560048036038101906104a09190611d3d565b610a70565b6040516104b29190611bdc565b60405180910390f35b6104d560048036038101906104d09190611d3d565b610ae7565b6040516104e29190611bdc565b60405180910390f35b61050560048036038101906105009190611fea565b610b0a565b005b610521600480360381019061051c919061206d565b610b34565b005b61053d600480360381019061053891906120ad565b610b42565b60405161054a9190611d8c565b60405180910390f35b61056d600480360381019061056891906120ed565b610bc9565b005b61058960048036038101906105849190611dfa565b610be7565b005b600061059682610ce3565b9050919050565b6060600380546105ac9061218b565b80601f01602080910402602001604051908101604052809291908181526020018280546105d89061218b565b80156106255780601f106105fa57610100808354040283529160200191610625565b820191906000526020600020905b81548152906001019060200180831161060857829003601f168201915b5050505050905090565b60008061063a610d5d565b9050610647818585610d65565b600191505092915050565b6000600254905090565b600080610667610d5d565b9050610674858285610f2e565b61067f858585610fba565b60019150509392505050565b600061069682610804565b9050919050565b60006012905090565b6000806106b1610d5d565b90506106d28185856106c38589610b42565b6106cd91906121eb565b610d65565b600191505092915050565b6106e5610d5d565b73ffffffffffffffffffffffffffffffffffffffff1661070361097a565b73ffffffffffffffffffffffffffffffffffffffff1614610759576040517f08c379a00000000000000000000000000000000000000000000000000000000081526004016107509061226b565b60405180910390fd5b610761611239565b565b600061076d610d5d565b905061078a818484604051806020016040528060008152506112db565b505050565b6000610799610d5d565b90506107a6848284610f2e565b6107c1848484604051806020016040528060008152506112db565b50505050565b6107d86107d2610d5d565b82611337565b50565b6000600560009054906101000a900460ff16905090565b60006107fd82610804565b9050919050565b60008060008373ffffffffffffffffffffffffffffffffffffffff1673ffffffffffffffffffffffffffffffffffffffff168152602001908152602001600020549050919050565b610854610d5d565b73ffffffffffffffffffffffffffffffffffffffff1661087261097a565b73ffffffffffffffffffffffffffffffffffffffff16146108c8576040517f08c379a00000000000000000000000000000000000000000000000000000000081526004016108bf9061226b565b60405180910390fd5b6108d2600061150d565b565b6108e6826108e0610d5d565b83610f2e565b6108f08282611337565b5050565b6108fc610d5d565b73ffffffffffffffffffffffffffffffffffffffff1661091a61097a565b73ffffffffffffffffffffffffffffffffffffffff1614610970576040517f08c379a00000000000000000000000000000000000000000000000000000000081526004016109679061226b565b60405180910390fd5b6109786115d3565b565b6000600560019054906101000a900473ffffffffffffffffffffffffffffffffffffffff16905090565b6060600480546109b39061218b565b80601f01602080910402602001604051908101604052809291908181526020018280546109df9061218b565b8015610a2c5780601f10610a0157610100808354040283529160200191610a2c565b820191906000526020600020905b815481529060010190602001808311610a0f57829003601f168201915b5050505050905090565b6000610a6033610a4461069d565b600a610a5091906123be565b84610a5b9190612409565b611676565b610a6933610804565b9050919050565b600080610a7b610d5d565b90506000610a898286610b42565b905083811015610ace576040517f08c379a0000000000000000000000000000000000000000000000000000000008152600401610ac5906124bd565b60405180910390fd5b610adb8286868403610d65565b60019250505092915050565b600080610af2610d5d565b9050610aff818585610fba565b600191505092915050565b6000610b14610d5d565b9050610b21858285610f2e565b610b2d858585856112db565b5050505050565b610b3e81836108d4565b5050565b6000600160008473ffffffffffffffffffffffffffffffffffffffff1673ffffffffffffffffffffffffffffffffffffffff16815260200190815260200160002060008373ffffffffffffffffffffffffffffffffffffffff1673ffffffffffffffffffffffffffffffffffffffff16815260200190815260200160002054905092915050565b6000610bd3610d5d565b9050610be1818585856112db565b50505050565b610bef610d5d565b73ffffffffffffffffffffffffffffffffffffffff16610c0d61097a565b73ffffffffffffffffffffffffffffffffffffffff1614610c63576040517f08c379a0000000000000000000000000000000000000000000000000000000008152600401610c5a9061226b565b60405180910390fd5b600073ffffffffffffffffffffffffffffffffffffffff168173ffffffffffffffffffffffffffffffffffffffff1603610cd2576040517f08c379a0000000000000000000000000000000000000000000000000000000008152600401610cc99061254f565b60405180910390fd5b610cdb8161150d565b50565b505050565b60007f3b5a0bf8000000000000000000000000000000000000000000000000000000007bffffffffffffffffffffffffffffffffffffffffffffffffffffffff1916827bffffffffffffffffffffffffffffffffffffffffffffffffffffffff19161480610d565750610d55826117d5565b5b9050919050565b600033905090565b600073ffffffffffffffffffffffffffffffffffffffff168373ffffffffffffffffffffffffffffffffffffffff1603610dd4576040517f08c379a0000000000000000000000000000000000000000000000000000000008152600401610dcb906125e1565b60405180910390fd5b600073ffffffffffffffffffffffffffffffffffffffff168273ffffffffffffffffffffffffffffffffffffffff1603610e43576040517f08c379a0000000000000000000000000000000000000000000000000000000008152600401610e3a90612673565b60405180910390fd5b80600160008573ffffffffffffffffffffffffffffffffffffffff1673ffffffffffffffffffffffffffffffffffffffff16815260200190815260200160002060008473ffffffffffffffffffffffffffffffffffffffff1673ffffffffffffffffffffffffffffffffffffffff168152602001908152602001600020819055508173ffffffffffffffffffffffffffffffffffffffff168373ffffffffffffffffffffffffffffffffffffffff167f8c5be1e5ebec7d5bd14f71427d1e84f3dd0314c0f7b2291e5b200ac8c7c3b92583604051610f219190611d8c565b60405180910390a3505050565b6000610f3a8484610b42565b90507fffffffffffffffffffffffffffffffffffffffffffffffffffffffffffffffff8114610fb45781811015610fa6576040517f08c379a0000000000000000000000000000000000000000000000000000000008152600401610f9d906126df565b60405180910390fd5b610fb38484848403610d65565b5b50505050565b600073ffffffffffffffffffffffffffffffffffffffff168373ffffffffffffffffffffffffffffffffffffffff1603611029576040517f08c379a000000000000000000000000000000000000000000000000000000000815260040161102090612771565b60405180910390fd5b600073ffffffffffffffffffffffffffffffffffffffff168273ffffffffffffffffffffffffffffffffffffffff1603611098576040517f08c379a000000000000000000000000000000000000000000000000000000000815260040161108f90612803565b60405180910390fd5b6110a38383836118b7565b60008060008573ffffffffffffffffffffffffffffffffffffffff1673ffffffffffffffffffffffffffffffffffffffff16815260200190815260200160002054905081811015611129576040517f08c379a000000000000000000000000000000000000000000000000000000000815260040161112090612895565b60405180910390fd5b8181036000808673ffffffffffffffffffffffffffffffffffffffff1673ffffffffffffffffffffffffffffffffffffffff16815260200190815260200160002081905550816000808573ffffffffffffffffffffffffffffffffffffffff1673ffffffffffffffffffffffffffffffffffffffff16815260200190815260200160002060008282546111bc91906121eb565b925050819055508273ffffffffffffffffffffffffffffffffffffffff168473ffffffffffffffffffffffffffffffffffffffff167fddf252ad1be2c89b69c2b068fc378daa952ba7f163c4a11628f55a4df523b3ef846040516112209190611d8c565b60405180910390a361123384848461190f565b50505050565b6112416107db565b611280576040517f08c379a000000000000000000000000000000000000000000000000000000000815260040161127790612901565b60405180910390fd5b6000600560006101000a81548160ff0219169083151502179055507f5db9ee0a495bf2e6ff9c91a7834c1ba4fdd244a5e8aa4e537bd38aeae4b073aa6112c4610d5d565b6040516112d19190611e9a565b60405180910390a1565b6112e6848484610fba565b6112f284848484611914565b611331576040517f08c379a000000000000000000000000000000000000000000000000000000000815260040161132890612993565b60405180910390fd5b50505050565b600073ffffffffffffffffffffffffffffffffffffffff168273ffffffffffffffffffffffffffffffffffffffff16036113a6576040517f08c379a000000000000000000000000000000000000000000000000000000000815260040161139d906129ff565b60405180910390fd5b6113b2826000836118b7565b60008060008473ffffffffffffffffffffffffffffffffffffffff1673ffffffffffffffffffffffffffffffffffffffff16815260200190815260200160002054905081811015611438576040517f08c379a000000000000000000000000000000000000000000000000000000000815260040161142f90612a91565b60405180910390fd5b8181036000808573ffffffffffffffffffffffffffffffffffffffff1673ffffffffffffffffffffffffffffffffffffffff16815260200190815260200160002081905550816002600082825461148f9190612ab1565b92505081905550600073ffffffffffffffffffffffffffffffffffffffff168373ffffffffffffffffffffffffffffffffffffffff167fddf252ad1be2c89b69c2b068fc378daa952ba7f163c4a11628f55a4df523b3ef846040516114f49190611d8c565b60405180910390a36115088360008461190f565b505050565b6000600560019054906101000a900473ffffffffffffffffffffffffffffffffffffffff16905081600560016101000a81548173ffffffffffffffffffffffffffffffffffffffff021916908373ffffffffffffffffffffffffffffffffffffffff1602179055508173ffffffffffffffffffffffffffffffffffffffff168173ffffffffffffffffffffffffffffffffffffffff167f8be0079c531659141344cd1fd0a4f28419497f9722a3daafe3b4186f6b6457e060405160405180910390a35050565b6115db6107db565b1561161b576040517f08c379a000000000000000000000000000000000000000000000000000000000815260040161161290612b31565b60405180910390fd5b6001600560006101000a81548160ff0219169083151502179055507f62e78cea01bee320cd4e420270b5ea74000d11b0c9f74754ebdbfc544b05a25861165f610d5d565b60405161166c9190611e9a565b60405180910390a1565b600073ffffffffffffffffffffffffffffffffffffffff168273ffffffffffffffffffffffffffffffffffffffff16036116e5576040517f08c379a00000000000000000000000000000000000000000000000000000000081526004016116dc90612b9d565b60405180910390fd5b6116f1600083836118b7565b806002600082825461170391906121eb565b92505081905550806000808473ffffffffffffffffffffffffffffffffffffffff1673ffffffffffffffffffffffffffffffffffffffff168152602001908152602001600020600082825461175891906121eb565b925050819055508173ffffffffffffffffffffffffffffffffffffffff16600073ffffffffffffffffffffffffffffffffffffffff167fddf252ad1be2c89b69c2b068fc378daa952ba7f163c4a11628f55a4df523b3ef836040516117bd9190611d8c565b60405180910390a36117d16000838361190f565b5050565b60007f65787371000000000000000000000000000000000000000000000000000000007bffffffffffffffffffffffffffffffffffffffffffffffffffffffff1916827bffffffffffffffffffffffffffffffffffffffffffffffffffffffff191614806118a057507fa219a025000000000000000000000000000000000000000000000000000000007bffffffffffffffffffffffffffffffffffffffffffffffffffffffff1916827bffffffffffffffffffffffffffffffffffffffffffffffffffffffff1916145b806118b057506118af82611a9b565b5b9050919050565b6118bf6107db565b156118ff576040517f08c379a00000000000000000000000000000000000000000000000000000000081526004016118f690612b31565b60405180910390fd5b61190a838383610cde565b505050565b505050565b60006119358473ffffffffffffffffffffffffffffffffffffffff16611b05565b15611a8e578373ffffffffffffffffffffffffffffffffffffffff16639d188c2261195e610d5d565b8786866040518563ffffffff1660e01b81526004016119809493929190612c12565b6020604051808303816000875af19250505080156119bc57506040513d601f19601f820116820180604052508101906119b99190612c73565b60015b611a3e573d80600081146119ec576040519150601f19603f3d011682016040523d82523d6000602084013e6119f1565b606091505b506000815103611a36576040517f08c379a0000000000000000000000000000000000000000000000000000000008152600401611a2d90612d12565b60405180910390fd5b805181602001fd5b639d188c2260e01b7bffffffffffffffffffffffffffffffffffffffffffffffffffffffff1916817bffffffffffffffffffffffffffffffffffffffffffffffffffffffff191614915050611a93565b600190505b949350505050565b60007f01ffc9a7000000000000000000000000000000000000000000000000000000007bffffffffffffffffffffffffffffffffffffffffffffffffffffffff1916827bffffffffffffffffffffffffffffffffffffffffffffffffffffffff1916149050919050565b6000808273ffffffffffffffffffffffffffffffffffffffff163b119050919050565b6000604051905090565b600080fd5b600080fd5b60007fffffffff0000000000000000000000000000000000000000000000000000000082169050919050565b611b7181611b3c565b8114611b7c57600080fd5b50565b600081359050611b8e81611b68565b92915050565b600060208284031215611baa57611ba9611b32565b5b6000611bb884828501611b7f565b91505092915050565b60008115159050919050565b611bd681611bc1565b82525050565b6000602082019050611bf16000830184611bcd565b92915050565b600081519050919050565b600082825260208201905092915050565b60005b83811015611c31578082015181840152602081019050611c16565b60008484015250505050565b6000601f19601f8301169050919050565b6000611c5982611bf7565b611c638185611c02565b9350611c73818560208601611c13565b611c7c81611c3d565b840191505092915050565b60006020820190508181036000830152611ca18184611c4e565b905092915050565b600073ffffffffffffffffffffffffffffffffffffffff82169050919050565b6000611cd482611ca9565b9050919050565b611ce481611cc9565b8114611cef57600080fd5b50565b600081359050611d0181611cdb565b92915050565b6000819050919050565b611d1a81611d07565b8114611d2557600080fd5b50565b600081359050611d3781611d11565b92915050565b60008060408385031215611d5457611d53611b32565b5b6000611d6285828601611cf2565b9250506020611d7385828601611d28565b9150509250929050565b611d8681611d07565b82525050565b6000602082019050611da16000830184611d7d565b92915050565b600080600060608486031215611dc057611dbf611b32565b5b6000611dce86828701611cf2565b9350506020611ddf86828701611cf2565b9250506040611df086828701611d28565b9150509250925092565b600060208284031215611e1057611e0f611b32565b5b6000611e1e84828501611cf2565b91505092915050565b600060ff82169050919050565b611e3d81611e27565b82525050565b6000602082019050611e586000830184611e34565b92915050565b600060208284031215611e7457611e73611b32565b5b6000611e8284828501611d28565b91505092915050565b611e9481611cc9565b82525050565b6000602082019050611eaf6000830184611e8b565b92915050565b600080fd5b600080fd5b7f4e487b7100000000000000000000000000000000000000000000000000000000600052604160045260246000fd5b611ef782611c3d565b810181811067ffffffffffffffff82111715611f1657611f15611ebf565b5b80604052505050565b6000611f29611b28565b9050611f358282611eee565b919050565b600067ffffffffffffffff821115611f5557611f54611ebf565b5b611f5e82611c3d565b9050602081019050919050565b82818337600083830152505050565b6000611f8d611f8884611f3a565b611f1f565b905082815260208101848484011115611fa957611fa8611eba565b5b611fb4848285611f6b565b509392505050565b600082601f830112611fd157611fd0611eb5565b5b8135611fe1848260208601611f7a565b91505092915050565b6000806000806080858703121561200457612003611b32565b5b600061201287828801611cf2565b945050602061202387828801611cf2565b935050604061203487828801611d28565b925050606085013567ffffffffffffffff81111561205557612054611b37565b5b61206187828801611fbc565b91505092959194509250565b6000806040838503121561208457612083611b32565b5b600061209285828601611d28565b92505060206120a385828601611cf2565b9150509250929050565b600080604083850312156120c4576120c3611b32565b5b60006120d285828601611cf2565b92505060206120e385828601611cf2565b9150509250929050565b60008060006060848603121561210657612105611b32565b5b600061211486828701611cf2565b935050602061212586828701611d28565b925050604084013567ffffffffffffffff81111561214657612145611b37565b5b61215286828701611fbc565b9150509250925092565b7f4e487b7100000000000000000000000000000000000000000000000000000000600052602260045260246000fd5b600060028204905060018216806121a357607f821691505b6020821081036121b6576121b561215c565b5b50919050565b7f4e487b7100000000000000000000000000000000000000000000000000000000600052601160045260246000fd5b60006121f682611d07565b915061220183611d07565b9250828201905080821115612219576122186121bc565b5b92915050565b7f4f776e61626c653a2063616c6c6572206973206e6f7420746865206f776e6572600082015250565b6000612255602083611c02565b91506122608261221f565b602082019050919050565b6000602082019050818103600083015261228481612248565b9050919050565b60008160011c9050919050565b6000808291508390505b60018511156122e2578086048111156122be576122bd6121bc565b5b60018516156122cd5780820291505b80810290506122db8561228b565b94506122a2565b94509492505050565b6000826122fb57600190506123b7565b8161230957600090506123b7565b816001811461231f576002811461232957612358565b60019150506123b7565b60ff84111561233b5761233a6121bc565b5b8360020a915084821115612352576123516121bc565b5b506123b7565b5060208310610133831016604e8410600b841016171561238d5782820a905083811115612388576123876121bc565b5b6123b7565b61239a8484846001612298565b925090508184048111156123b1576123b06121bc565b5b81810290505b9392505050565b60006123c982611d07565b91506123d483611e27565b92506124017fffffffffffffffffffffffffffffffffffffffffffffffffffffffffffffffff84846122eb565b905092915050565b600061241482611d07565b915061241f83611d07565b925082820261242d81611d07565b91508282048414831517612444576124436121bc565b5b5092915050565b7f4b4950373a2064656372656173656420616c6c6f77616e63652062656c6f772060008201527f7a65726f00000000000000000000000000000000000000000000000000000000602082015250565b60006124a7602483611c02565b91506124b28261244b565b604082019050919050565b600060208201905081810360008301526124d68161249a565b9050919050565b7f4f776e61626c653a206e6577206f776e657220697320746865207a65726f206160008201527f6464726573730000000000000000000000000000000000000000000000000000602082015250565b6000612539602683611c02565b9150612544826124dd565b604082019050919050565b600060208201905081810360008301526125688161252c565b9050919050565b7f4b4950373a20617070726f76652066726f6d20746865207a65726f206164647260008201527f6573730000000000000000000000000000000000000000000000000000000000602082015250565b60006125cb602383611c02565b91506125d68261256f565b604082019050919050565b600060208201905081810360008301526125fa816125be565b9050919050565b7f4b4950373a20617070726f766520746f20746865207a65726f2061646472657360008201527f7300000000000000000000000000000000000000000000000000000000000000602082015250565b600061265d602183611c02565b915061266882612601565b604082019050919050565b6000602082019050818103600083015261268c81612650565b9050919050565b7f4b4950373a20696e73756666696369656e7420616c6c6f77616e636500000000600082015250565b60006126c9601c83611c02565b91506126d482612693565b602082019050919050565b600060208201905081810360008301526126f8816126bc565b9050919050565b7f4b4950373a207472616e736665722066726f6d20746865207a65726f2061646460008201527f7265737300000000000000000000000000000000000000000000000000000000602082015250565b600061275b602483611c02565b9150612766826126ff565b604082019050919050565b6000602082019050818103600083015261278a8161274e565b9050919050565b7f4b4950373a207472616e7366657220746f20746865207a65726f20616464726560008201527f7373000000000000000000000000000000000000000000000000000000000000602082015250565b60006127ed602283611c02565b91506127f882612791565b604082019050919050565b6000602082019050818103600083015261281c816127e0565b9050919050565b7f4b4950373a207472616e7366657220616d6f756e74206578636565647320626160008201527f6c616e6365000000000000000000000000000000000000000000000000000000602082015250565b600061287f602583611c02565b915061288a82612823565b604082019050919050565b600060208201905081810360008301526128ae81612872565b9050919050565b7f5061757361626c653a206e6f7420706175736564000000000000000000000000600082015250565b60006128eb601483611c02565b91506128f6826128b5565b602082019050919050565b6000602082019050818103600083015261291a816128de565b9050919050565b7f4b4950373a207472616e7366657220746f206e6f6e20494b495037526563656960008201527f76657220696d706c656d656e7465720000000000000000000000000000000000602082015250565b600061297d602f83611c02565b915061298882612921565b604082019050919050565b600060208201905081810360008301526129ac81612970565b9050919050565b7f4b4950373a206275726e2066726f6d20746865207a65726f2061646472657373600082015250565b60006129e9602083611c02565b91506129f4826129b3565b602082019050919050565b60006020820190508181036000830152612a18816129dc565b9050919050565b7f4b4950373a206275726e20616d6f756e7420657863656564732062616c616e6360008201527f6500000000000000000000000000000000000000000000000000000000000000602082015250565b6000612a7b602183611c02565b9150612a8682612a1f565b604082019050919050565b60006020820190508181036000830152612aaa81612a6e565b9050919050565b6000612abc82611d07565b9150612ac783611d07565b9250828203905081811115612adf57612ade6121bc565b5b92915050565b7f5061757361626c653a2070617573656400000000000000000000000000000000600082015250565b6000612b1b601083611c02565b9150612b2682612ae5565b602082019050919050565b60006020820190508181036000830152612b4a81612b0e565b9050919050565b7f4b4950373a206d696e7420746f20746865207a65726f20616464726573730000600082015250565b6000612b87601e83611c02565b9150612b9282612b51565b602082019050919050565b60006020820190508181036000830152612bb681612b7a565b9050919050565b600081519050919050565b600082825260208201905092915050565b6000612be482612bbd565b612bee8185612bc8565b9350612bfe818560208601611c13565b612c0781611c3d565b840191505092915050565b6000608082019050612c276000830187611e8b565b612c346020830186611e8b565b612c416040830185611d7d565b8181036060830152612c538184612bd9565b905095945050505050565b600081519050612c6d81611b68565b92915050565b600060208284031215612c8957612c88611b32565b5b6000612c9784828501612c5e565b91505092915050565b7f4b4950373a207472616e7366657220746f206e6f6e204b49503752656365697660008201527f657220696d706c656d656e746572000000000000000000000000000000000000602082015250565b6000612cfc602e83611c02565b9150612d0782612ca0565b604082019050919050565b60006020820190508181036000830152612d2b81612cef565b905091905056fea2646970667358221220a1cb6542edebc1d0425967a99ef505a4333ee2de4bb1260735dce5c589f0e7a864736f6c63430008110033",
  "linkReferences": {},
  "deployedLinkReferences": {}
}