{
  "_format": "hh-sol-artifact-1",
  "contractName": "Klayver",
  "sourceName": "contracts/Klayver.sol",
  "abi": [
    {
      "inputs": [],
      "stateMutability": "nonpayable",
      "type": "constructor"
    },
    {
      "anonymous": false,
      "inputs": [
        {
          "indexed": true,
          "internalType": "address",
          "name": "owner",
          "type": "address"
        },
        {
          "indexed": true,
          "internalType": "address",
          "name": "spender",
          "type": "address"
        },
        {
          "indexed": false,
          "internalType": "uint256",
          "name": "value",
          "type": "uint256"
        }
      ],
      "name": "Approval",
      "type": "event"
    },
    {
      "anonymous": false,
      "inputs": [
        {
          "indexed": false,
          "internalType": "address",
          "name": "account",
          "type": "address"
        },
        {
          "indexed": false,
          "internalType": "uint256",
          "name": "amount",
          "type": "uint256"
        }
      ],
      "name": "FundsReleased",
      "type": "event"
    },
    {
      "anonymous": false,
      "inputs": [
        {
          "indexed": false,
          "internalType": "address",
          "name": "account",
          "type": "address"
        },
        {
          "indexed": false,
          "internalType": "uint256",
          "name": "amount",
          "type": "uint256"
        }
      ],
      "name": "FundsWithheld",
      "type": "event"
    },
    {
      "anonymous": false,
      "inputs": [
        {
          "indexed": true,
          "internalType": "address",
          "name": "previousOwner",
          "type": "address"
        },
        {
          "indexed": true,
          "internalType": "address",
          "name": "newOwner",
          "type": "address"
        }
      ],
      "name": "OwnershipTransferred",
      "type": "event"
    },
    {
      "anonymous": false,
      "inputs": [
        {
          "indexed": true,
          "internalType": "address",
          "name": "from",
          "type": "address"
        },
        {
          "indexed": true,
          "internalType": "address",
          "name": "to",
          "type": "address"
        },
        {
          "indexed": false,
          "internalType": "uint256",
          "name": "value",
          "type": "uint256"
        }
      ],
      "name": "Transfer",
      "type": "event"
    },
    {
      "inputs": [],
      "name": "admin",
      "outputs": [
        {
          "internalType": "address",
          "name": "",
          "type": "address"
        }
      ],
      "stateMutability": "view",
      "type": "function"
    },
    {
      "inputs": [
        {
          "internalType": "address",
          "name": "owner",
          "type": "address"
        },
        {
          "internalType": "address",
          "name": "spender",
          "type": "address"
        }
      ],
      "name": "allowance",
      "outputs": [
        {
          "internalType": "uint256",
          "name": "",
          "type": "uint256"
        }
      ],
      "stateMutability": "view",
      "type": "function"
    },
    {
      "inputs": [
        {
          "internalType": "address",
          "name": "spender",
          "type": "address"
        },
        {
          "internalType": "uint256",
          "name": "amount",
          "type": "uint256"
        }
      ],
      "name": "approve",
      "outputs": [
        {
          "internalType": "bool",
          "name": "",
          "type": "bool"
        }
      ],
      "stateMutability": "nonpayable",
      "type": "function"
    },
    {
      "inputs": [
        {
          "internalType": "address",
          "name": "account",
          "type": "address"
        }
      ],
      "name": "balanceOf",
      "outputs": [
        {
          "internalType": "uint256",
          "name": "",
          "type": "uint256"
        }
      ],
      "stateMutability": "view",
      "type": "function"
    },
    {
      "inputs": [
        {
          "internalType": "address",
          "name": "from",
          "type": "address"
        },
        {
          "internalType": "uint256",
          "name": "amount",
          "type": "uint256"
        }
      ],
      "name": "burn",
      "outputs": [],
      "stateMutability": "nonpayable",
      "type": "function"
    },
    {
      "inputs": [],
      "name": "decimals",
      "outputs": [
        {
          "internalType": "uint8",
          "name": "",
          "type": "uint8"
        }
      ],
      "stateMutability": "view",
      "type": "function"
    },
    {
      "inputs": [
        {
          "internalType": "address",
          "name": "spender",
          "type": "address"
        },
        {
          "internalType": "uint256",
          "name": "subtractedValue",
          "type": "uint256"
        }
      ],
      "name": "decreaseAllowance",
      "outputs": [
        {
          "internalType": "bool",
          "name": "",
          "type": "bool"
        }
      ],
      "stateMutability": "nonpayable",
      "type": "function"
    },
    {
      "inputs": [
        {
          "internalType": "address",
          "name": "",
          "type": "address"
        }
      ],
      "name": "disputedFunds",
      "outputs": [
        {
          "internalType": "uint256",
          "name": "",
          "type": "uint256"
        }
      ],
      "stateMutability": "view",
      "type": "function"
    },
    {
      "inputs": [],
      "name": "getPlatformTreasuryBalance",
      "outputs": [
        {
          "internalType": "uint256",
          "name": "",
          "type": "uint256"
        }
      ],
      "stateMutability": "view",
      "type": "function"
    },
    {
      "inputs": [],
      "name": "getTotalTokenSupply",
      "outputs": [
        {
          "internalType": "uint256",
          "name": "",
          "type": "uint256"
        }
      ],
      "stateMutability": "view",
      "type": "function"
    },
    {
      "inputs": [
        {
          "internalType": "address",
          "name": "account",
          "type": "address"
        }
      ],
      "name": "getUserBalance",
      "outputs": [
        {
          "internalType": "uint256",
          "name": "",
          "type": "uint256"
        }
      ],
      "stateMutability": "view",
      "type": "function"
    },
    {
      "inputs": [
        {
          "internalType": "address",
          "name": "spender",
          "type": "address"
        },
        {
          "internalType": "uint256",
          "name": "addedValue",
          "type": "uint256"
        }
      ],
      "name": "increaseAllowance",
      "outputs": [
        {
          "internalType": "bool",
          "name": "",
          "type": "bool"
        }
      ],
      "stateMutability": "nonpayable",
      "type": "function"
    },
    {
      "inputs": [
        {
          "internalType": "address",
          "name": "to",
          "type": "address"
        },
        {
          "internalType": "uint256",
          "name": "amount",
          "type": "uint256"
        }
      ],
      "name": "mint",
      "outputs": [],
      "stateMutability": "nonpayable",
      "type": "function"
    },
    {
      "inputs": [],
      "name": "name",
      "outputs": [
        {
          "internalType": "string",
          "name": "",
          "type": "string"
        }
      ],
      "stateMutability": "view",
      "type": "function"
    },
    {
      "inputs": [],
      "name": "owner",
      "outputs": [
        {
          "internalType": "address",
          "name": "",
          "type": "address"
        }
      ],
      "stateMutability": "view",
      "type": "function"
    },
    {
      "inputs": [],
      "name": "platformFeePercentage",
      "outputs": [
        {
          "internalType": "uint256",
          "name": "",
          "type": "uint256"
        }
      ],
      "stateMutability": "view",
      "type": "function"
    },
    {
      "inputs": [],
      "name": "platformTreasury",
      "outputs": [
        {
          "internalType": "address",
          "name": "",
          "type": "address"
        }
      ],
      "stateMutability": "view",
      "type": "function"
    },
    {
      "inputs": [
        {
          "internalType": "address",
          "name": "account",
          "type": "address"
        },
        {
          "internalType": "uint256",
          "name": "amount",
          "type": "uint256"
        }
      ],
      "name": "releaseFunds",
      "outputs": [],
      "stateMutability": "nonpayable",
      "type": "function"
    },
    {
      "inputs": [],
      "name": "renounceOwnership",
      "outputs": [],
      "stateMutability": "nonpayable",
      "type": "function"
    },
    {
      "inputs": [
        {
          "internalType": "address",
          "name": "recipient",
          "type": "address"
        },
        {
          "internalType": "uint256",
          "name": "amount",
          "type": "uint256"
        }
      ],
      "name": "safeTransfer",
      "outputs": [],
      "stateMutability": "nonpayable",
      "type": "function"
    },
    {
      "inputs": [
        {
          "internalType": "address",
          "name": "recipient",
          "type": "address"
        },
        {
          "internalType": "uint256",
          "name": "amount",
          "type": "uint256"
        },
        {
          "internalType": "bytes",
          "name": "_data",
          "type": "bytes"
        }
      ],
      "name": "safeTransfer",
      "outputs": [],
      "stateMutability": "nonpayable",
      "type": "function"
    },
    {
      "inputs": [
        {
          "internalType": "address",
          "name": "sender",
          "type": "address"
        },
        {
          "internalType": "address",
          "name": "recipient",
          "type": "address"
        },
        {
          "internalType": "uint256",
          "name": "amount",
          "type": "uint256"
        }
      ],
      "name": "safeTransferFrom",
      "outputs": [],
      "stateMutability": "nonpayable",
      "type": "function"
    },
    {
      "inputs": [
        {
          "internalType": "address",
          "name": "sender",
          "type": "address"
        },
        {
          "internalType": "address",
          "name": "recipient",
          "type": "address"
        },
        {
          "internalType": "uint256",
          "name": "amount",
          "type": "uint256"
        },
        {
          "internalType": "bytes",
          "name": "_data",
          "type": "bytes"
        }
      ],
      "name": "safeTransferFrom",
      "outputs": [],
      "stateMutability": "nonpayable",
      "type": "function"
    },
    {
      "inputs": [
        {
          "internalType": "address",
          "name": "newAdmin",
          "type": "address"
        }
      ],
      "name": "setAdmin",
      "outputs": [],
      "stateMutability": "nonpayable",
      "type": "function"
    },
    {
      "inputs": [
        {
          "internalType": "uint256",
          "name": "newPlatformFeePercentage",
          "type": "uint256"
        }
      ],
      "name": "setPlatformFeePercentage",
      "outputs": [],
      "stateMutability": "nonpayable",
      "type": "function"
    },
    {
      "inputs": [
        {
          "internalType": "address",
          "name": "newTreasuryAddress",
          "type": "address"
        }
      ],
      "name": "setPlatformTreasury",
      "outputs": [],
      "stateMutability": "nonpayable",
      "type": "function"
    },
    {
      "inputs": [
        {
          "internalType": "bytes4",
          "name": "interfaceId",
          "type": "bytes4"
        }
      ],
      "name": "supportsInterface",
      "outputs": [
        {
          "internalType": "bool",
          "name": "",
          "type": "bool"
        }
      ],
      "stateMutability": "view",
      "type": "function"
    },
    {
      "inputs": [],
      "name": "symbol",
      "outputs": [
        {
          "internalType": "string",
          "name": "",
          "type": "string"
        }
      ],
      "stateMutability": "view",
      "type": "function"
    },
    {
      "inputs": [],
      "name": "totalSupply",
      "outputs": [
        {
          "internalType": "uint256",
          "name": "",
          "type": "uint256"
        }
      ],
      "stateMutability": "view",
      "type": "function"
    },
    {
      "inputs": [
        {
          "internalType": "address",
          "name": "to",
          "type": "address"
        },
        {
          "internalType": "uint256",
          "name": "amount",
          "type": "uint256"
        }
      ],
      "name": "transfer",
      "outputs": [
        {
          "internalType": "bool",
          "name": "",
          "type": "bool"
        }
      ],
      "stateMutability": "nonpayable",
      "type": "function"
    },
    {
      "inputs": [
        {
          "internalType": "address",
          "name": "from",
          "type": "address"
        },
        {
          "internalType": "address",
          "name": "to",
          "type": "address"
        },
        {
          "internalType": "uint256",
          "name": "amount",
          "type": "uint256"
        }
      ],
      "name": "transferFrom",
      "outputs": [
        {
          "internalType": "bool",
          "name": "",
          "type": "bool"
        }
      ],
      "stateMutability": "nonpayable",
      "type": "function"
    },
    {
      "inputs": [
        {
          "internalType": "address",
          "name": "to",
          "type": "address"
        },
        {
          "internalType": "uint256",
          "name": "amount",
          "type": "uint256"
        }
      ],
      "name": "transferFromPlatformTreasuryTo",
      "outputs": [],
      "stateMutability": "nonpayable",
      "type": "function"
    },
    {
      "inputs": [
        {
          "internalType": "uint256",
          "name": "amount",
          "type": "uint256"
        }
      ],
      "name": "transferFromTreasury",
      "outputs": [],
      "stateMutability": "nonpayable",
      "type": "function"
    },
    {
      "inputs": [
        {
          "internalType": "address",
          "name": "newOwner",
          "type": "address"
        }
      ],
      "name": "transferOwnership",
      "outputs": [],
      "stateMutability": "nonpayable",
      "type": "function"
    },
    {
      "inputs": [
        {
          "internalType": "address",
          "name": "account",
          "type": "address"
        },
        {
          "internalType": "uint256",
          "name": "amount",
          "type": "uint256"
        }
      ],
      "name": "withholdFunds",
      "outputs": [],
      "stateMutability": "nonpayable",
      "type": "function"
    }
  ],
  "bytecode": "0x60806040523480156200001157600080fd5b506040518060400160405280600781526020017f4b6c6179766572000000000000000000000000000000000000000000000000008152506040518060400160405280600381526020017f4b4c56000000000000000000000000000000000000000000000000000000000081525081600390816200008f91906200066a565b508060049081620000a191906200066a565b505050620000c4620000b86200019760201b60201c565b6200019f60201b60201c565b6200010733620000d96200026560201b60201c565b60ff16600a620000ea9190620008d4565b630bebc200620000fb919062000925565b6200026e60201b60201c565b33600760006101000a81548173ffffffffffffffffffffffffffffffffffffffff021916908373ffffffffffffffffffffffffffffffffffffffff16021790555033600860006101000a81548173ffffffffffffffffffffffffffffffffffffffff021916908373ffffffffffffffffffffffffffffffffffffffff160217905550600560098190555062000a5c565b600033905090565b6000600560009054906101000a900473ffffffffffffffffffffffffffffffffffffffff16905081600560006101000a81548173ffffffffffffffffffffffffffffffffffffffff021916908373ffffffffffffffffffffffffffffffffffffffff1602179055508173ffffffffffffffffffffffffffffffffffffffff168173ffffffffffffffffffffffffffffffffffffffff167f8be0079c531659141344cd1fd0a4f28419497f9722a3daafe3b4186f6b6457e060405160405180910390a35050565b60006012905090565b600073ffffffffffffffffffffffffffffffffffffffff168273ffffffffffffffffffffffffffffffffffffffff1603620002e0576040517f08c379a0000000000000000000000000000000000000000000000000000000008152600401620002d790620009d1565b60405180910390fd5b620002f460008383620003e660201b60201c565b8060026000828254620003089190620009f3565b92505081905550806000808473ffffffffffffffffffffffffffffffffffffffff1673ffffffffffffffffffffffffffffffffffffffff16815260200190815260200160002060008282546200035f9190620009f3565b925050819055508173ffffffffffffffffffffffffffffffffffffffff16600073ffffffffffffffffffffffffffffffffffffffff167fddf252ad1be2c89b69c2b068fc378daa952ba7f163c4a11628f55a4df523b3ef83604051620003c6919062000a3f565b60405180910390a3620003e260008383620003eb60201b60201c565b5050565b505050565b505050565b600081519050919050565b7f4e487b7100000000000000000000000000000000000000000000000000000000600052604160045260246000fd5b7f4e487b7100000000000000000000000000000000000000000000000000000000600052602260045260246000fd5b600060028204905060018216806200047257607f821691505b6020821081036200048857620004876200042a565b5b50919050565b60008190508160005260206000209050919050565b60006020601f8301049050919050565b600082821b905092915050565b600060088302620004f27fffffffffffffffffffffffffffffffffffffffffffffffffffffffffffffffff82620004b3565b620004fe8683620004b3565b95508019841693508086168417925050509392505050565b6000819050919050565b6000819050919050565b60006200054b620005456200053f8462000516565b62000520565b62000516565b9050919050565b6000819050919050565b62000567836200052a565b6200057f620005768262000552565b848454620004c0565b825550505050565b600090565b6200059662000587565b620005a38184846200055c565b505050565b5b81811015620005cb57620005bf6000826200058c565b600181019050620005a9565b5050565b601f8211156200061a57620005e4816200048e565b620005ef84620004a3565b81016020851015620005ff578190505b620006176200060e85620004a3565b830182620005a8565b50505b505050565b600082821c905092915050565b60006200063f600019846008026200061f565b1980831691505092915050565b60006200065a83836200062c565b9150826002028217905092915050565b6200067582620003f0565b67ffffffffffffffff811115620006915762000690620003fb565b5b6200069d825462000459565b620006aa828285620005cf565b600060209050601f831160018114620006e25760008415620006cd578287015190505b620006d985826200064c565b86555062000749565b601f198416620006f2866200048e565b60005b828110156200071c57848901518255600182019150602085019450602081019050620006f5565b868310156200073c578489015162000738601f8916826200062c565b8355505b6001600288020188555050505b505050505050565b7f4e487b7100000000000000000000000000000000000000000000000000000000600052601160045260246000fd5b60008160011c9050919050565b6000808291508390505b6001851115620007df57808604811115620007b757620007b662000751565b5b6001851615620007c75780820291505b8081029050620007d78562000780565b945062000797565b94509492505050565b600082620007fa5760019050620008cd565b816200080a5760009050620008cd565b81600181146200082357600281146200082e5762000864565b6001915050620008cd565b60ff84111562000843576200084262000751565b5b8360020a9150848211156200085d576200085c62000751565b5b50620008cd565b5060208310610133831016604e8410600b84101617156200089e5782820a90508381111562000898576200089762000751565b5b620008cd565b620008ad84848460016200078d565b92509050818404811115620008c757620008c662000751565b5b81810290505b9392505050565b6000620008e18262000516565b9150620008ee8362000516565b92506200091d7fffffffffffffffffffffffffffffffffffffffffffffffffffffffffffffffff8484620007e8565b905092915050565b6000620009328262000516565b91506200093f8362000516565b92508282026200094f8162000516565b9150828204841483151762000969576200096862000751565b5b5092915050565b600082825260208201905092915050565b7f4b4950373a206d696e7420746f20746865207a65726f20616464726573730000600082015250565b6000620009b9601e8362000970565b9150620009c68262000981565b602082019050919050565b60006020820190508181036000830152620009ec81620009aa565b9050919050565b600062000a008262000516565b915062000a0d8362000516565b925082820190508082111562000a285762000a2762000751565b5b92915050565b62000a398162000516565b82525050565b600060208201905062000a56600083018462000a2e565b92915050565b6137718062000a6c6000396000f3fe608060405234801561001057600080fd5b50600436106102115760003560e01c8063739c987a11610125578063b88d4fde116100ad578063dd62ed3e1161007c578063dd62ed3e14610610578063e138818c14610640578063eb7955491461065e578063f2fde38b1461067a578063f851a4401461069657610211565b8063b88d4fde1461059e578063cdd78cfc146105ba578063ce8a063b146105d8578063d6e982e5146105f457610211565b80638da5cb5b116100f45780638da5cb5b146104e657806395d89b41146105045780639dc29fac14610522578063a457c2d71461053e578063a9059cbb1461056e57610211565b8063739c987a146104625780637cd86d60146104925780638333903e146104ae5780638d41093f146104ca57610211565b806339509351116101a8578063477348921161017757806347734892146103c05780635c99eed3146103f0578063704b6c021461040c57806370a0823114610428578063715018a61461045857610211565b8063395093511461033c57806340c10f191461036c578063423f6cef1461038857806342842e0e146103a457610211565b806313ad3ad9116101e457806313ad3ad9146102b257806318160ddd146102d057806323b872dd146102ee578063313ce5671461031e57610211565b806301ffc9a714610216578063047087cc1461024657806306fdde0314610264578063095ea7b314610282575b600080fd5b610230600480360381019061022b9190612392565b6106b4565b60405161023d91906123da565b60405180910390f35b61024e610796565b60405161025b919061240e565b60405180910390f35b61026c6107a5565b60405161027991906124b9565b60405180910390f35b61029c60048036038101906102979190612565565b610837565b6040516102a991906123da565b60405180910390f35b6102ba61085a565b6040516102c7919061240e565b60405180910390f35b6102d861088c565b6040516102e5919061240e565b60405180910390f35b610308600480360381019061030391906125a5565b610896565b60405161031591906123da565b60405180910390f35b610326610904565b6040516103339190612614565b60405180910390f35b61035660048036038101906103519190612565565b61090d565b60405161036391906123da565b60405180910390f35b61038660048036038101906103819190612565565b610944565b005b6103a2600480360381019061039d9190612565565b610a11565b005b6103be60048036038101906103b991906125a5565b610a3d565b005b6103da60048036038101906103d5919061262f565b610a75565b6040516103e7919061240e565b60405180910390f35b61040a60048036038101906104059190612565565b610a87565b005b6104266004803603810190610421919061262f565b610c32565b005b610442600480360381019061043d919061262f565b610d61565b60405161044f919061240e565b60405180910390f35b610460610da9565b005b61047c6004803603810190610477919061262f565b610e31565b604051610489919061240e565b60405180910390f35b6104ac60048036038101906104a7919061262f565b610e49565b005b6104c860048036038101906104c3919061265c565b610f09565b005b6104e460048036038101906104df919061265c565b610fd3565b005b6104ee6110b5565b6040516104fb9190612698565b60405180910390f35b61050c6110df565b60405161051991906124b9565b60405180910390f35b61053c60048036038101906105379190612565565b611171565b005b61055860048036038101906105539190612565565b611289565b60405161056591906123da565b60405180910390f35b61058860048036038101906105839190612565565b611300565b60405161059591906123da565b60405180910390f35b6105b860048036038101906105b391906127e8565b611323565b005b6105c261134d565b6040516105cf919061240e565b60405180910390f35b6105f260048036038101906105ed9190612565565b611353565b005b61060e60048036038101906106099190612565565b611400565b005b61062a6004803603810190610625919061286b565b6115ed565b604051610637919061240e565b60405180910390f35b610648611674565b6040516106559190612698565b60405180910390f35b610678600480360381019061067391906128ab565b61169a565b005b610694600480360381019061068f919061262f565b6116b8565b005b61069e6117af565b6040516106ab9190612698565b60405180910390f35b60007f65787371000000000000000000000000000000000000000000000000000000007bffffffffffffffffffffffffffffffffffffffffffffffffffffffff1916827bffffffffffffffffffffffffffffffffffffffffffffffffffffffff1916148061077f57507fa219a025000000000000000000000000000000000000000000000000000000007bffffffffffffffffffffffffffffffffffffffffffffffffffffffff1916827bffffffffffffffffffffffffffffffffffffffffffffffffffffffff1916145b8061078f575061078e826117d5565b5b9050919050565b60006107a061088c565b905090565b6060600380546107b490612949565b80601f01602080910402602001604051908101604052809291908181526020018280546107e090612949565b801561082d5780601f106108025761010080835404028352916020019161082d565b820191906000526020600020905b81548152906001019060200180831161081057829003601f168201915b5050505050905090565b60008061084261183f565b905061084f818585611847565b600191505092915050565b6000610887600860009054906101000a900473ffffffffffffffffffffffffffffffffffffffff16610d61565b905090565b6000600254905090565b6000806064600954846108a991906129a9565b6108b39190612a1a565b90506108e285600860009054906101000a900473ffffffffffffffffffffffffffffffffffffffff1683611a10565b6108f8858583866108f39190612a4b565b611a10565b60019150509392505050565b60006012905090565b60008061091861183f565b905061093981858561092a85896115ed565b6109349190612a7f565b611847565b600191505092915050565b61094c61183f565b73ffffffffffffffffffffffffffffffffffffffff1661096a6110b5565b73ffffffffffffffffffffffffffffffffffffffff16146109c0576040517f08c379a00000000000000000000000000000000000000000000000000000000081526004016109b790612aff565b60405180910390fd5b60008111610a03576040517f08c379a00000000000000000000000000000000000000000000000000000000081526004016109fa90612b6b565b60405180910390fd5b610a0d8282611c8f565b5050565b6000610a1b61183f565b9050610a3881848460405180602001604052806000815250611dee565b505050565b6000610a4761183f565b9050610a54848284611e4a565b610a6f84848460405180602001604052806000815250611dee565b50505050565b6000610a8082610d61565b9050919050565b600760009054906101000a900473ffffffffffffffffffffffffffffffffffffffff1673ffffffffffffffffffffffffffffffffffffffff163373ffffffffffffffffffffffffffffffffffffffff161480610b155750610ae66110b5565b73ffffffffffffffffffffffffffffffffffffffff163373ffffffffffffffffffffffffffffffffffffffff16145b610b54576040517f08c379a0000000000000000000000000000000000000000000000000000000008152600401610b4b90612bd7565b60405180910390fd5b80610b5e83610d61565b1015610b9f576040517f08c379a0000000000000000000000000000000000000000000000000000000008152600401610b9690612c43565b60405180910390fd5b80600660008473ffffffffffffffffffffffffffffffffffffffff1673ffffffffffffffffffffffffffffffffffffffff1681526020019081526020016000206000828254610bee9190612a7f565b925050819055507f09a0d64fedaf85ca5d97ba8064e1f1d74cef4ed463066eaa4cae56611c42626e8282604051610c26929190612c63565b60405180910390a15050565b610c3a61183f565b73ffffffffffffffffffffffffffffffffffffffff16610c586110b5565b73ffffffffffffffffffffffffffffffffffffffff1614610cae576040517f08c379a0000000000000000000000000000000000000000000000000000000008152600401610ca590612aff565b60405180910390fd5b600073ffffffffffffffffffffffffffffffffffffffff168173ffffffffffffffffffffffffffffffffffffffff1603610d1d576040517f08c379a0000000000000000000000000000000000000000000000000000000008152600401610d1490612cd8565b60405180910390fd5b80600760006101000a81548173ffffffffffffffffffffffffffffffffffffffff021916908373ffffffffffffffffffffffffffffffffffffffff16021790555050565b60008060008373ffffffffffffffffffffffffffffffffffffffff1673ffffffffffffffffffffffffffffffffffffffff168152602001908152602001600020549050919050565b610db161183f565b73ffffffffffffffffffffffffffffffffffffffff16610dcf6110b5565b73ffffffffffffffffffffffffffffffffffffffff1614610e25576040517f08c379a0000000000000000000000000000000000000000000000000000000008152600401610e1c90612aff565b60405180910390fd5b610e2f6000611ed6565b565b60066020528060005260406000206000915090505481565b610e5161183f565b73ffffffffffffffffffffffffffffffffffffffff16610e6f6110b5565b73ffffffffffffffffffffffffffffffffffffffff1614610ec5576040517f08c379a0000000000000000000000000000000000000000000000000000000008152600401610ebc90612aff565b60405180910390fd5b80600860006101000a81548173ffffffffffffffffffffffffffffffffffffffff021916908373ffffffffffffffffffffffffffffffffffffffff16021790555050565b610f1161183f565b73ffffffffffffffffffffffffffffffffffffffff16610f2f6110b5565b73ffffffffffffffffffffffffffffffffffffffff1614610f85576040517f08c379a0000000000000000000000000000000000000000000000000000000008152600401610f7c90612aff565b60405180910390fd5b6064811115610fc9576040517f08c379a0000000000000000000000000000000000000000000000000000000008152600401610fc090612d6a565b60405180910390fd5b8060098190555050565b600760009054906101000a900473ffffffffffffffffffffffffffffffffffffffff1673ffffffffffffffffffffffffffffffffffffffff163373ffffffffffffffffffffffffffffffffffffffff1614611063576040517f08c379a000000000000000000000000000000000000000000000000000000000815260040161105a90612dfc565b60405180910390fd5b6110b2600860009054906101000a900473ffffffffffffffffffffffffffffffffffffffff16600760009054906101000a900473ffffffffffffffffffffffffffffffffffffffff1683611a10565b50565b6000600560009054906101000a900473ffffffffffffffffffffffffffffffffffffffff16905090565b6060600480546110ee90612949565b80601f016020809104026020016040519081016040528092919081815260200182805461111a90612949565b80156111675780601f1061113c57610100808354040283529160200191611167565b820191906000526020600020905b81548152906001019060200180831161114a57829003601f168201915b5050505050905090565b61117961183f565b73ffffffffffffffffffffffffffffffffffffffff166111976110b5565b73ffffffffffffffffffffffffffffffffffffffff16146111ed576040517f08c379a00000000000000000000000000000000000000000000000000000000081526004016111e490612aff565b60405180910390fd5b60008111611230576040517f08c379a000000000000000000000000000000000000000000000000000000000815260040161122790612e68565b60405180910390fd5b8061123a83610d61565b101561127b576040517f08c379a000000000000000000000000000000000000000000000000000000000815260040161127290612ed4565b60405180910390fd5b6112858282611f9c565b5050565b60008061129461183f565b905060006112a282866115ed565b9050838110156112e7576040517f08c379a00000000000000000000000000000000000000000000000000000000081526004016112de90612f66565b60405180910390fd5b6112f48286868403611847565b60019250505092915050565b60008061130b61183f565b9050611318818585611a10565b600191505092915050565b600061132d61183f565b905061133a858285611e4a565b61134685858585611dee565b5050505050565b60095481565b61135b61183f565b73ffffffffffffffffffffffffffffffffffffffff166113796110b5565b73ffffffffffffffffffffffffffffffffffffffff16146113cf576040517f08c379a00000000000000000000000000000000000000000000000000000000081526004016113c690612aff565b60405180910390fd5b6113fc600860009054906101000a900473ffffffffffffffffffffffffffffffffffffffff168383611a10565b5050565b600760009054906101000a900473ffffffffffffffffffffffffffffffffffffffff1673ffffffffffffffffffffffffffffffffffffffff163373ffffffffffffffffffffffffffffffffffffffff16148061148e575061145f6110b5565b73ffffffffffffffffffffffffffffffffffffffff163373ffffffffffffffffffffffffffffffffffffffff16145b6114cd576040517f08c379a00000000000000000000000000000000000000000000000000000000081526004016114c490612bd7565b60405180910390fd5b80600660008473ffffffffffffffffffffffffffffffffffffffff1673ffffffffffffffffffffffffffffffffffffffff16815260200190815260200160002054101561154f576040517f08c379a000000000000000000000000000000000000000000000000000000000815260040161154690612fd2565b60405180910390fd5b80600660008473ffffffffffffffffffffffffffffffffffffffff1673ffffffffffffffffffffffffffffffffffffffff168152602001908152602001600020600082825461159e9190612a4b565b925050819055506115b0308383611a10565b7f221c08a06b07a64803b3787861a3f276212fcccb51c2e6234077a9b8cb13047a82826040516115e1929190612c63565b60405180910390a15050565b6000600160008473ffffffffffffffffffffffffffffffffffffffff1673ffffffffffffffffffffffffffffffffffffffff16815260200190815260200160002060008373ffffffffffffffffffffffffffffffffffffffff1673ffffffffffffffffffffffffffffffffffffffff16815260200190815260200160002054905092915050565b600860009054906101000a900473ffffffffffffffffffffffffffffffffffffffff1681565b60006116a461183f565b90506116b281858585611dee565b50505050565b6116c061183f565b73ffffffffffffffffffffffffffffffffffffffff166116de6110b5565b73ffffffffffffffffffffffffffffffffffffffff1614611734576040517f08c379a000000000000000000000000000000000000000000000000000000000815260040161172b90612aff565b60405180910390fd5b600073ffffffffffffffffffffffffffffffffffffffff168173ffffffffffffffffffffffffffffffffffffffff16036117a3576040517f08c379a000000000000000000000000000000000000000000000000000000000815260040161179a90613064565b60405180910390fd5b6117ac81611ed6565b50565b600760009054906101000a900473ffffffffffffffffffffffffffffffffffffffff1681565b60007f01ffc9a7000000000000000000000000000000000000000000000000000000007bffffffffffffffffffffffffffffffffffffffffffffffffffffffff1916827bffffffffffffffffffffffffffffffffffffffffffffffffffffffff1916149050919050565b600033905090565b600073ffffffffffffffffffffffffffffffffffffffff168373ffffffffffffffffffffffffffffffffffffffff16036118b6576040517f08c379a00000000000000000000000000000000000000000000000000000000081526004016118ad906130f6565b60405180910390fd5b600073ffffffffffffffffffffffffffffffffffffffff168273ffffffffffffffffffffffffffffffffffffffff1603611925576040517f08c379a000000000000000000000000000000000000000000000000000000000815260040161191c90613188565b60405180910390fd5b80600160008573ffffffffffffffffffffffffffffffffffffffff1673ffffffffffffffffffffffffffffffffffffffff16815260200190815260200160002060008473ffffffffffffffffffffffffffffffffffffffff1673ffffffffffffffffffffffffffffffffffffffff168152602001908152602001600020819055508173ffffffffffffffffffffffffffffffffffffffff168373ffffffffffffffffffffffffffffffffffffffff167f8c5be1e5ebec7d5bd14f71427d1e84f3dd0314c0f7b2291e5b200ac8c7c3b92583604051611a03919061240e565b60405180910390a3505050565b600073ffffffffffffffffffffffffffffffffffffffff168373ffffffffffffffffffffffffffffffffffffffff1603611a7f576040517f08c379a0000000000000000000000000000000000000000000000000000000008152600401611a769061321a565b60405180910390fd5b600073ffffffffffffffffffffffffffffffffffffffff168273ffffffffffffffffffffffffffffffffffffffff1603611aee576040517f08c379a0000000000000000000000000000000000000000000000000000000008152600401611ae5906132ac565b60405180910390fd5b611af9838383612172565b60008060008573ffffffffffffffffffffffffffffffffffffffff1673ffffffffffffffffffffffffffffffffffffffff16815260200190815260200160002054905081811015611b7f576040517f08c379a0000000000000000000000000000000000000000000000000000000008152600401611b769061333e565b60405180910390fd5b8181036000808673ffffffffffffffffffffffffffffffffffffffff1673ffffffffffffffffffffffffffffffffffffffff16815260200190815260200160002081905550816000808573ffffffffffffffffffffffffffffffffffffffff1673ffffffffffffffffffffffffffffffffffffffff1681526020019081526020016000206000828254611c129190612a7f565b925050819055508273ffffffffffffffffffffffffffffffffffffffff168473ffffffffffffffffffffffffffffffffffffffff167fddf252ad1be2c89b69c2b068fc378daa952ba7f163c4a11628f55a4df523b3ef84604051611c76919061240e565b60405180910390a3611c89848484612177565b50505050565b600073ffffffffffffffffffffffffffffffffffffffff168273ffffffffffffffffffffffffffffffffffffffff1603611cfe576040517f08c379a0000000000000000000000000000000000000000000000000000000008152600401611cf5906133aa565b60405180910390fd5b611d0a60008383612172565b8060026000828254611d1c9190612a7f565b92505081905550806000808473ffffffffffffffffffffffffffffffffffffffff1673ffffffffffffffffffffffffffffffffffffffff1681526020019081526020016000206000828254611d719190612a7f565b925050819055508173ffffffffffffffffffffffffffffffffffffffff16600073ffffffffffffffffffffffffffffffffffffffff167fddf252ad1be2c89b69c2b068fc378daa952ba7f163c4a11628f55a4df523b3ef83604051611dd6919061240e565b60405180910390a3611dea60008383612177565b5050565b611df9848484611a10565b611e058484848461217c565b611e44576040517f08c379a0000000000000000000000000000000000000000000000000000000008152600401611e3b9061343c565b60405180910390fd5b50505050565b6000611e5684846115ed565b90507fffffffffffffffffffffffffffffffffffffffffffffffffffffffffffffffff8114611ed05781811015611ec2576040517f08c379a0000000000000000000000000000000000000000000000000000000008152600401611eb9906134a8565b60405180910390fd5b611ecf8484848403611847565b5b50505050565b6000600560009054906101000a900473ffffffffffffffffffffffffffffffffffffffff16905081600560006101000a81548173ffffffffffffffffffffffffffffffffffffffff021916908373ffffffffffffffffffffffffffffffffffffffff1602179055508173ffffffffffffffffffffffffffffffffffffffff168173ffffffffffffffffffffffffffffffffffffffff167f8be0079c531659141344cd1fd0a4f28419497f9722a3daafe3b4186f6b6457e060405160405180910390a35050565b600073ffffffffffffffffffffffffffffffffffffffff168273ffffffffffffffffffffffffffffffffffffffff160361200b576040517f08c379a000000000000000000000000000000000000000000000000000000000815260040161200290613514565b60405180910390fd5b61201782600083612172565b60008060008473ffffffffffffffffffffffffffffffffffffffff1673ffffffffffffffffffffffffffffffffffffffff1681526020019081526020016000205490508181101561209d576040517f08c379a0000000000000000000000000000000000000000000000000000000008152600401612094906135a6565b60405180910390fd5b8181036000808573ffffffffffffffffffffffffffffffffffffffff1673ffffffffffffffffffffffffffffffffffffffff1681526020019081526020016000208190555081600260008282546120f49190612a4b565b92505081905550600073ffffffffffffffffffffffffffffffffffffffff168373ffffffffffffffffffffffffffffffffffffffff167fddf252ad1be2c89b69c2b068fc378daa952ba7f163c4a11628f55a4df523b3ef84604051612159919061240e565b60405180910390a361216d83600084612177565b505050565b505050565b505050565b600061219d8473ffffffffffffffffffffffffffffffffffffffff16612303565b156122f6578373ffffffffffffffffffffffffffffffffffffffff16639d188c226121c661183f565b8786866040518563ffffffff1660e01b81526004016121e8949392919061361b565b6020604051808303816000875af192505050801561222457506040513d601f19601f82011682018060405250810190612221919061367c565b60015b6122a6573d8060008114612254576040519150601f19603f3d011682016040523d82523d6000602084013e612259565b606091505b50600081510361229e576040517f08c379a00000000000000000000000000000000000000000000000000000000081526004016122959061371b565b60405180910390fd5b805181602001fd5b639d188c2260e01b7bffffffffffffffffffffffffffffffffffffffffffffffffffffffff1916817bffffffffffffffffffffffffffffffffffffffffffffffffffffffff1916149150506122fb565b600190505b949350505050565b6000808273ffffffffffffffffffffffffffffffffffffffff163b119050919050565b6000604051905090565b600080fd5b600080fd5b60007fffffffff0000000000000000000000000000000000000000000000000000000082169050919050565b61236f8161233a565b811461237a57600080fd5b50565b60008135905061238c81612366565b92915050565b6000602082840312156123a8576123a7612330565b5b60006123b68482850161237d565b91505092915050565b60008115159050919050565b6123d4816123bf565b82525050565b60006020820190506123ef60008301846123cb565b92915050565b6000819050919050565b612408816123f5565b82525050565b600060208201905061242360008301846123ff565b92915050565b600081519050919050565b600082825260208201905092915050565b60005b83811015612463578082015181840152602081019050612448565b60008484015250505050565b6000601f19601f8301169050919050565b600061248b82612429565b6124958185612434565b93506124a5818560208601612445565b6124ae8161246f565b840191505092915050565b600060208201905081810360008301526124d38184612480565b905092915050565b600073ffffffffffffffffffffffffffffffffffffffff82169050919050565b6000612506826124db565b9050919050565b612516816124fb565b811461252157600080fd5b50565b6000813590506125338161250d565b92915050565b612542816123f5565b811461254d57600080fd5b50565b60008135905061255f81612539565b92915050565b6000806040838503121561257c5761257b612330565b5b600061258a85828601612524565b925050602061259b85828601612550565b9150509250929050565b6000806000606084860312156125be576125bd612330565b5b60006125cc86828701612524565b93505060206125dd86828701612524565b92505060406125ee86828701612550565b9150509250925092565b600060ff82169050919050565b61260e816125f8565b82525050565b60006020820190506126296000830184612605565b92915050565b60006020828403121561264557612644612330565b5b600061265384828501612524565b91505092915050565b60006020828403121561267257612671612330565b5b600061268084828501612550565b91505092915050565b612692816124fb565b82525050565b60006020820190506126ad6000830184612689565b92915050565b600080fd5b600080fd5b7f4e487b7100000000000000000000000000000000000000000000000000000000600052604160045260246000fd5b6126f58261246f565b810181811067ffffffffffffffff82111715612714576127136126bd565b5b80604052505050565b6000612727612326565b905061273382826126ec565b919050565b600067ffffffffffffffff821115612753576127526126bd565b5b61275c8261246f565b9050602081019050919050565b82818337600083830152505050565b600061278b61278684612738565b61271d565b9050828152602081018484840111156127a7576127a66126b8565b5b6127b2848285612769565b509392505050565b600082601f8301126127cf576127ce6126b3565b5b81356127df848260208601612778565b91505092915050565b6000806000806080858703121561280257612801612330565b5b600061281087828801612524565b945050602061282187828801612524565b935050604061283287828801612550565b925050606085013567ffffffffffffffff81111561285357612852612335565b5b61285f878288016127ba565b91505092959194509250565b6000806040838503121561288257612881612330565b5b600061289085828601612524565b92505060206128a185828601612524565b9150509250929050565b6000806000606084860312156128c4576128c3612330565b5b60006128d286828701612524565b93505060206128e386828701612550565b925050604084013567ffffffffffffffff81111561290457612903612335565b5b612910868287016127ba565b9150509250925092565b7f4e487b7100000000000000000000000000000000000000000000000000000000600052602260045260246000fd5b6000600282049050600182168061296157607f821691505b6020821081036129745761297361291a565b5b50919050565b7f4e487b7100000000000000000000000000000000000000000000000000000000600052601160045260246000fd5b60006129b4826123f5565b91506129bf836123f5565b92508282026129cd816123f5565b915082820484148315176129e4576129e361297a565b5b5092915050565b7f4e487b7100000000000000000000000000000000000000000000000000000000600052601260045260246000fd5b6000612a25826123f5565b9150612a30836123f5565b925082612a4057612a3f6129eb565b5b828204905092915050565b6000612a56826123f5565b9150612a61836123f5565b9250828203905081811115612a7957612a7861297a565b5b92915050565b6000612a8a826123f5565b9150612a95836123f5565b9250828201905080821115612aad57612aac61297a565b5b92915050565b7f4f776e61626c653a2063616c6c6572206973206e6f7420746865206f776e6572600082015250565b6000612ae9602083612434565b9150612af482612ab3565b602082019050919050565b60006020820190508181036000830152612b1881612adc565b9050919050565b7f416d6f756e7420746f206d696e74206d75737420626520706f73697469766500600082015250565b6000612b55601f83612434565b9150612b6082612b1f565b602082019050919050565b60006020820190508181036000830152612b8481612b48565b9050919050565b7f4e6f7420617574686f72697a6564000000000000000000000000000000000000600082015250565b6000612bc1600e83612434565b9150612bcc82612b8b565b602082019050919050565b60006020820190508181036000830152612bf081612bb4565b9050919050565b7f496e73756666696369656e742062616c616e636520746f2077697468686f6c64600082015250565b6000612c2d602083612434565b9150612c3882612bf7565b602082019050919050565b60006020820190508181036000830152612c5c81612c20565b9050919050565b6000604082019050612c786000830185612689565b612c8560208301846123ff565b9392505050565b7f4e65772061646d696e20616464726573732063616e6e6f74206265207a65726f600082015250565b6000612cc2602083612434565b9150612ccd82612c8c565b602082019050919050565b60006020820190508181036000830152612cf181612cb5565b9050919050565b7f506c6174666f726d206665652070657263656e746167652063616e6e6f74206560008201527f7863656564203130302500000000000000000000000000000000000000000000602082015250565b6000612d54602a83612434565b9150612d5f82612cf8565b604082019050919050565b60006020820190508181036000830152612d8381612d47565b9050919050565b7f4f6e6c792061646d696e2063616e20706572666f726d2074686973206f70657260008201527f6174696f6e000000000000000000000000000000000000000000000000000000602082015250565b6000612de6602583612434565b9150612df182612d8a565b604082019050919050565b60006020820190508181036000830152612e1581612dd9565b9050919050565b7f416d6f756e7420746f206275726e206d75737420626520706f73697469766500600082015250565b6000612e52601f83612434565b9150612e5d82612e1c565b602082019050919050565b60006020820190508181036000830152612e8181612e45565b9050919050565b7f496e73756666696369656e742062616c616e636520746f206275726e00000000600082015250565b6000612ebe601c83612434565b9150612ec982612e88565b602082019050919050565b60006020820190508181036000830152612eed81612eb1565b9050919050565b7f4b4950373a2064656372656173656420616c6c6f77616e63652062656c6f772060008201527f7a65726f00000000000000000000000000000000000000000000000000000000602082015250565b6000612f50602483612434565b9150612f5b82612ef4565b604082019050919050565b60006020820190508181036000830152612f7f81612f43565b9050919050565b7f4e6f7420656e6f7567682064697370757465642066756e647300000000000000600082015250565b6000612fbc601983612434565b9150612fc782612f86565b602082019050919050565b60006020820190508181036000830152612feb81612faf565b9050919050565b7f4f776e61626c653a206e6577206f776e657220697320746865207a65726f206160008201527f6464726573730000000000000000000000000000000000000000000000000000602082015250565b600061304e602683612434565b915061305982612ff2565b604082019050919050565b6000602082019050818103600083015261307d81613041565b9050919050565b7f4b4950373a20617070726f76652066726f6d20746865207a65726f206164647260008201527f6573730000000000000000000000000000000000000000000000000000000000602082015250565b60006130e0602383612434565b91506130eb82613084565b604082019050919050565b6000602082019050818103600083015261310f816130d3565b9050919050565b7f4b4950373a20617070726f766520746f20746865207a65726f2061646472657360008201527f7300000000000000000000000000000000000000000000000000000000000000602082015250565b6000613172602183612434565b915061317d82613116565b604082019050919050565b600060208201905081810360008301526131a181613165565b9050919050565b7f4b4950373a207472616e736665722066726f6d20746865207a65726f2061646460008201527f7265737300000000000000000000000000000000000000000000000000000000602082015250565b6000613204602483612434565b915061320f826131a8565b604082019050919050565b60006020820190508181036000830152613233816131f7565b9050919050565b7f4b4950373a207472616e7366657220746f20746865207a65726f20616464726560008201527f7373000000000000000000000000000000000000000000000000000000000000602082015250565b6000613296602283612434565b91506132a18261323a565b604082019050919050565b600060208201905081810360008301526132c581613289565b9050919050565b7f4b4950373a207472616e7366657220616d6f756e74206578636565647320626160008201527f6c616e6365000000000000000000000000000000000000000000000000000000602082015250565b6000613328602583612434565b9150613333826132cc565b604082019050919050565b600060208201905081810360008301526133578161331b565b9050919050565b7f4b4950373a206d696e7420746f20746865207a65726f20616464726573730000600082015250565b6000613394601e83612434565b915061339f8261335e565b602082019050919050565b600060208201905081810360008301526133c381613387565b9050919050565b7f4b4950373a207472616e7366657220746f206e6f6e20494b495037526563656960008201527f76657220696d706c656d656e7465720000000000000000000000000000000000602082015250565b6000613426602f83612434565b9150613431826133ca565b604082019050919050565b6000602082019050818103600083015261345581613419565b9050919050565b7f4b4950373a20696e73756666696369656e7420616c6c6f77616e636500000000600082015250565b6000613492601c83612434565b915061349d8261345c565b602082019050919050565b600060208201905081810360008301526134c181613485565b9050919050565b7f4b4950373a206275726e2066726f6d20746865207a65726f2061646472657373600082015250565b60006134fe602083612434565b9150613509826134c8565b602082019050919050565b6000602082019050818103600083015261352d816134f1565b9050919050565b7f4b4950373a206275726e20616d6f756e7420657863656564732062616c616e6360008201527f6500000000000000000000000000000000000000000000000000000000000000602082015250565b6000613590602183612434565b915061359b82613534565b604082019050919050565b600060208201905081810360008301526135bf81613583565b9050919050565b600081519050919050565b600082825260208201905092915050565b60006135ed826135c6565b6135f781856135d1565b9350613607818560208601612445565b6136108161246f565b840191505092915050565b60006080820190506136306000830187612689565b61363d6020830186612689565b61364a60408301856123ff565b818103606083015261365c81846135e2565b905095945050505050565b60008151905061367681612366565b92915050565b60006020828403121561369257613691612330565b5b60006136a084828501613667565b91505092915050565b7f4b4950373a207472616e7366657220746f206e6f6e204b49503752656365697660008201527f657220696d706c656d656e746572000000000000000000000000000000000000602082015250565b6000613705602e83612434565b9150613710826136a9565b604082019050919050565b60006020820190508181036000830152613734816136f8565b905091905056fea264697066735822122033b49fec005274486f2c7534f5388b6a6c7252e970bf50ecfe4b229b7f613d3964736f6c63430008110033",
  "linkReferences": {},
  "deployedLinkReferences": {}
}