{
  "_format": "hh-sol-artifact-1",
  "contractName": "Token",
  "sourceName": "contracts/Token.sol",
  "abi": [
    {
      "inputs": [
        {
          "internalType": "address",
          "name": "",
          "type": "address"
        }
      ],
      "name": "addressToToken",
      "outputs": [
        {
          "internalType": "address",
          "name": "tokenAddress",
          "type": "address"
        },
        {
          "internalType": "address",
          "name": "owner",
          "type": "address"
        },
        {
          "internalType": "uint256",
          "name": "userBalance",
          "type": "uint256"
        }
      ],
      "stateMutability": "view",
      "type": "function"
    },
    {
      "inputs": [],
      "name": "createToken",
      "outputs": [
        {
          "internalType": "address",
          "name": "",
          "type": "address"
        }
      ],
      "stateMutability": "nonpayable",
      "type": "function"
    },
    {
      "inputs": [
        {
          "internalType": "address",
          "name": "_tokenAddress",
          "type": "address"
        },
        {
          "internalType": "address",
          "name": "_profileAddress",
          "type": "address"
        }
      ],
      "name": "purchaseAToken",
      "outputs": [],
      "stateMutability": "payable",
      "type": "function"
    },
    {
      "inputs": [],
      "name": "retrieveAllToken",
      "outputs": [
        {
          "components": [
            {
              "internalType": "address",
              "name": "tokenAddress",
              "type": "address"
            },
            {
              "internalType": "address",
              "name": "owner",
              "type": "address"
            },
            {
              "internalType": "uint256",
              "name": "userBalance",
              "type": "uint256"
            }
          ],
          "internalType": "struct Token.UserToken[]",
          "name": "",
          "type": "tuple[]"
        }
      ],
      "stateMutability": "view",
      "type": "function"
    }
  ],
  "bytecode": "0x608060405234801561001057600080fd5b50614431806100206000396000f3fe608060405260043610620000445760003560e01c80636374de6d146200004957806369abaac914620000695780639cbf9e3614620000af578063dc56171814620000df575b600080fd5b62000067600480360381019062000061919062000742565b6200010f565b005b3480156200007657600080fd5b506200009560048036038101906200008f919062000789565b62000223565b604051620000a693929190620007e7565b60405180910390f35b348015620000bc57600080fd5b50620000c76200028d565b604051620000d6919062000824565b60405180910390f35b348015620000ec57600080fd5b50620000f7620005b3565b60405162000106919062000968565b60405180910390f35b60008290508073ffffffffffffffffffffffffffffffffffffffff1663095ea7b333346040518363ffffffff1660e01b8152600401620001519291906200098c565b6020604051808303816000875af115801562000171573d6000803e3d6000fd5b505050506040513d601f19601f82011682018060405250810190620001979190620009f6565b508073ffffffffffffffffffffffffffffffffffffffff166323b872dd3384346040518463ffffffff1660e01b8152600401620001d793929190620007e7565b6020604051808303816000875af1158015620001f7573d6000803e3d6000fd5b505050506040513d601f19601f820116820180604052508101906200021d9190620009f6565b50505050565b60016020528060005260406000206000915090508060000160009054906101000a900473ffffffffffffffffffffffffffffffffffffffff16908060010160009054906101000a900473ffffffffffffffffffffffffffffffffffffffff16908060020154905083565b6000806040516200029e90620006ca565b620002a99062000ad9565b604051809103906000f080158015620002c6573d6000803e3d6000fd5b50905060008173ffffffffffffffffffffffffffffffffffffffff16632f329e42336040518263ffffffff1660e01b815260040162000306919062000824565b602060405180830381865afa15801562000324573d6000803e3d6000fd5b505050506040513d601f19601f820116820180604052508101906200034a919062000b41565b90508173ffffffffffffffffffffffffffffffffffffffff166323b872dd3330846040518463ffffffff1660e01b81526004016200038b93929190620007e7565b6020604051808303816000875af1158015620003ab573d6000803e3d6000fd5b505050506040513d601f19601f82011682018060405250810190620003d19190620009f6565b506000600160003373ffffffffffffffffffffffffffffffffffffffff1673ffffffffffffffffffffffffffffffffffffffff1681526020019081526020016000209050338160010160006101000a81548173ffffffffffffffffffffffffffffffffffffffff021916908373ffffffffffffffffffffffffffffffffffffffff160217905550828160000160006101000a81548173ffffffffffffffffffffffffffffffffffffffff021916908373ffffffffffffffffffffffffffffffffffffffff16021790555081816002018190555060008190806001815401808255809150506001900390600052602060002090600302016000909190919091506000820160009054906101000a900473ffffffffffffffffffffffffffffffffffffffff168160000160006101000a81548173ffffffffffffffffffffffffffffffffffffffff021916908373ffffffffffffffffffffffffffffffffffffffff1602179055506001820160009054906101000a900473ffffffffffffffffffffffffffffffffffffffff168160010160006101000a81548173ffffffffffffffffffffffffffffffffffffffff021916908373ffffffffffffffffffffffffffffffffffffffff16021790555060028201548160020155505082935050505090565b60606000805480602002602001604051908101604052809291908181526020016000905b82821015620006c157838290600052602060002090600302016040518060600160405290816000820160009054906101000a900473ffffffffffffffffffffffffffffffffffffffff1673ffffffffffffffffffffffffffffffffffffffff1673ffffffffffffffffffffffffffffffffffffffff1681526020016001820160009054906101000a900473ffffffffffffffffffffffffffffffffffffffff1673ffffffffffffffffffffffffffffffffffffffff1673ffffffffffffffffffffffffffffffffffffffff16815260200160028201548152505081526020019060010190620005d7565b50505050905090565b6138888062000b7483390190565b600080fd5b600073ffffffffffffffffffffffffffffffffffffffff82169050919050565b60006200070a82620006dd565b9050919050565b6200071c81620006fd565b81146200072857600080fd5b50565b6000813590506200073c8162000711565b92915050565b600080604083850312156200075c576200075b620006d8565b5b60006200076c858286016200072b565b92505060206200077f858286016200072b565b9150509250929050565b600060208284031215620007a257620007a1620006d8565b5b6000620007b2848285016200072b565b91505092915050565b620007c681620006fd565b82525050565b6000819050919050565b620007e181620007cc565b82525050565b6000606082019050620007fe6000830186620007bb565b6200080d6020830185620007bb565b6200081c6040830184620007d6565b949350505050565b60006020820190506200083b6000830184620007bb565b92915050565b600081519050919050565b600082825260208201905092915050565b6000819050602082019050919050565b6200087881620006fd565b82525050565b6200088981620007cc565b82525050565b606082016000820151620008a760008501826200086d565b506020820151620008bc60208501826200086d565b506040820151620008d160408501826200087e565b50505050565b6000620008e583836200088f565b60608301905092915050565b6000602082019050919050565b60006200090b8262000841565b6200091781856200084c565b935062000924836200085d565b8060005b838110156200095b5781516200093f8882620008d7565b97506200094c83620008f1565b92505060018101905062000928565b5085935050505092915050565b60006020820190508181036000830152620009848184620008fe565b905092915050565b6000604082019050620009a36000830185620007bb565b620009b26020830184620007d6565b9392505050565b60008115159050919050565b620009d081620009b9565b8114620009dc57600080fd5b50565b600081519050620009f081620009c5565b92915050565b60006020828403121562000a0f5762000a0e620006d8565b5b600062000a1f84828501620009df565b91505092915050565b600082825260208201905092915050565b7f54616c656e7420546f6b656e0000000000000000000000000000000000000000600082015250565b600062000a71600c8362000a28565b915062000a7e8262000a39565b602082019050919050565b7f544c540000000000000000000000000000000000000000000000000000000000600082015250565b600062000ac160038362000a28565b915062000ace8262000a89565b602082019050919050565b6000604082019050818103600083015262000af48162000a62565b9050818103602083015262000b098162000ab2565b9050919050565b62000b1b81620007cc565b811462000b2757600080fd5b50565b60008151905062000b3b8162000b10565b92915050565b60006020828403121562000b5a5762000b59620006d8565b5b600062000b6a8482850162000b2a565b9150509291505056fe60806040523480156200001157600080fd5b506040516200388838038062003888833981810160405281019062000037919062000553565b818181600390816200004a919062000823565b5080600490816200005c919062000823565b5050506000600560006101000a81548160ff0219169083151502179055506200009a6200008e620000e060201b60201c565b620000e860201b60201c565b620000d833620000af620001ae60201b60201c565b600a620000bd919062000a9a565b612710620000cc919062000aeb565b620001b760201b60201c565b505062000c94565b600033905090565b6000600560019054906101000a900473ffffffffffffffffffffffffffffffffffffffff16905081600560016101000a81548173ffffffffffffffffffffffffffffffffffffffff021916908373ffffffffffffffffffffffffffffffffffffffff1602179055508173ffffffffffffffffffffffffffffffffffffffff168173ffffffffffffffffffffffffffffffffffffffff167f8be0079c531659141344cd1fd0a4f28419497f9722a3daafe3b4186f6b6457e060405160405180910390a35050565b60006012905090565b600073ffffffffffffffffffffffffffffffffffffffff168273ffffffffffffffffffffffffffffffffffffffff160362000229576040517f08c379a0000000000000000000000000000000000000000000000000000000008152600401620002209062000b97565b60405180910390fd5b6200023d600083836200032f60201b60201c565b806002600082825462000251919062000bb9565b92505081905550806000808473ffffffffffffffffffffffffffffffffffffffff1673ffffffffffffffffffffffffffffffffffffffff1681526020019081526020016000206000828254620002a8919062000bb9565b925050819055508173ffffffffffffffffffffffffffffffffffffffff16600073ffffffffffffffffffffffffffffffffffffffff167fddf252ad1be2c89b69c2b068fc378daa952ba7f163c4a11628f55a4df523b3ef836040516200030f919062000c05565b60405180910390a36200032b600083836200039f60201b60201c565b5050565b6200033f620003a460201b60201c565b1562000382576040517f08c379a0000000000000000000000000000000000000000000000000000000008152600401620003799062000c72565b60405180910390fd5b6200039a838383620003bb60201b62000d1a1760201c565b505050565b505050565b6000600560009054906101000a900460ff16905090565b505050565b6000604051905090565b600080fd5b600080fd5b600080fd5b600080fd5b6000601f19601f8301169050919050565b7f4e487b7100000000000000000000000000000000000000000000000000000000600052604160045260246000fd5b6200042982620003de565b810181811067ffffffffffffffff821117156200044b576200044a620003ef565b5b80604052505050565b600062000460620003c0565b90506200046e82826200041e565b919050565b600067ffffffffffffffff821115620004915762000490620003ef565b5b6200049c82620003de565b9050602081019050919050565b60005b83811015620004c9578082015181840152602081019050620004ac565b60008484015250505050565b6000620004ec620004e68462000473565b62000454565b9050828152602081018484840111156200050b576200050a620003d9565b5b62000518848285620004a9565b509392505050565b600082601f830112620005385762000537620003d4565b5b81516200054a848260208601620004d5565b91505092915050565b600080604083850312156200056d576200056c620003ca565b5b600083015167ffffffffffffffff8111156200058e576200058d620003cf565b5b6200059c8582860162000520565b925050602083015167ffffffffffffffff811115620005c057620005bf620003cf565b5b620005ce8582860162000520565b9150509250929050565b600081519050919050565b7f4e487b7100000000000000000000000000000000000000000000000000000000600052602260045260246000fd5b600060028204905060018216806200062b57607f821691505b602082108103620006415762000640620005e3565b5b50919050565b60008190508160005260206000209050919050565b60006020601f8301049050919050565b600082821b905092915050565b600060088302620006ab7fffffffffffffffffffffffffffffffffffffffffffffffffffffffffffffffff826200066c565b620006b786836200066c565b95508019841693508086168417925050509392505050565b6000819050919050565b6000819050919050565b600062000704620006fe620006f884620006cf565b620006d9565b620006cf565b9050919050565b6000819050919050565b6200072083620006e3565b620007386200072f826200070b565b84845462000679565b825550505050565b600090565b6200074f62000740565b6200075c81848462000715565b505050565b5b8181101562000784576200077860008262000745565b60018101905062000762565b5050565b601f821115620007d3576200079d8162000647565b620007a8846200065c565b81016020851015620007b8578190505b620007d0620007c7856200065c565b83018262000761565b50505b505050565b600082821c905092915050565b6000620007f860001984600802620007d8565b1980831691505092915050565b6000620008138383620007e5565b9150826002028217905092915050565b6200082e82620005d8565b67ffffffffffffffff8111156200084a5762000849620003ef565b5b62000856825462000612565b6200086382828562000788565b600060209050601f8311600181146200089b576000841562000886578287015190505b62000892858262000805565b86555062000902565b601f198416620008ab8662000647565b60005b82811015620008d557848901518255600182019150602085019450602081019050620008ae565b86831015620008f55784890151620008f1601f891682620007e5565b8355505b6001600288020188555050505b505050505050565b7f4e487b7100000000000000000000000000000000000000000000000000000000600052601160045260246000fd5b60008160011c9050919050565b6000808291508390505b6001851115620009985780860481111562000970576200096f6200090a565b5b6001851615620009805780820291505b8081029050620009908562000939565b945062000950565b94509492505050565b600082620009b3576001905062000a86565b81620009c3576000905062000a86565b8160018114620009dc5760028114620009e75762000a1d565b600191505062000a86565b60ff841115620009fc57620009fb6200090a565b5b8360020a91508482111562000a165762000a156200090a565b5b5062000a86565b5060208310610133831016604e8410600b841016171562000a575782820a90508381111562000a515762000a506200090a565b5b62000a86565b62000a66848484600162000946565b9250905081840481111562000a805762000a7f6200090a565b5b81810290505b9392505050565b600060ff82169050919050565b600062000aa782620006cf565b915062000ab48362000a8d565b925062000ae37fffffffffffffffffffffffffffffffffffffffffffffffffffffffffffffffff8484620009a1565b905092915050565b600062000af882620006cf565b915062000b0583620006cf565b925082820262000b1581620006cf565b9150828204841483151762000b2f5762000b2e6200090a565b5b5092915050565b600082825260208201905092915050565b7f4b4950373a206d696e7420746f20746865207a65726f20616464726573730000600082015250565b600062000b7f601e8362000b36565b915062000b8c8262000b47565b602082019050919050565b6000602082019050818103600083015262000bb28162000b70565b9050919050565b600062000bc682620006cf565b915062000bd383620006cf565b925082820190508082111562000bee5762000bed6200090a565b5b92915050565b62000bff81620006cf565b82525050565b600060208201905062000c1c600083018462000bf4565b92915050565b7f5061757361626c653a2070617573656400000000000000000000000000000000600082015250565b600062000c5a60108362000b36565b915062000c678262000c22565b602082019050919050565b6000602082019050818103600083015262000c8d8162000c4b565b9050919050565b612be48062000ca46000396000f3fe608060405234801561001057600080fd5b50600436106101c45760003560e01c80636b823acd116100f9578063a457c2d711610097578063dc593ca511610071578063dc593ca5146104f3578063dd62ed3e1461050f578063eb7955491461053f578063f2fde38b1461055b576101c4565b8063a457c2d714610477578063a9059cbb146104a7578063b88d4fde146104d7576101c4565b806379cc6790116100d357806379cc6790146104155780638456cb59146104315780638da5cb5b1461043b57806395d89b4114610459576101c4565b80636b823acd146103ab57806370a08231146103db578063715018a61461040b576101c4565b80633950935111610166578063423f6cef11610140578063423f6cef1461033957806342842e0e1461035557806342966c68146103715780635c975abb1461038d576101c4565b806339509351146102e35780633f4ba83a1461031357806340c10f191461031d576101c4565b806318160ddd116101a257806318160ddd1461024757806323b872dd146102655780632f329e4214610295578063313ce567146102c5576101c4565b806301ffc9a7146101c957806306fdde03146101f9578063095ea7b314610217575b600080fd5b6101e360048036038101906101de9190611bd0565b610577565b6040516101f09190611c18565b60405180910390f35b610201610589565b60405161020e9190611cc3565b60405180910390f35b610231600480360381019061022c9190611d79565b61061b565b60405161023e9190611c18565b60405180910390f35b61024f61063e565b60405161025c9190611dc8565b60405180910390f35b61027f600480360381019061027a9190611de3565b610648565b60405161028c9190611c18565b60405180910390f35b6102af60048036038101906102aa9190611e36565b610677565b6040516102bc9190611dc8565b60405180910390f35b6102cd610689565b6040516102da9190611e7f565b60405180910390f35b6102fd60048036038101906102f89190611d79565b610692565b60405161030a9190611c18565b60405180910390f35b61031b6106c9565b005b61033760048036038101906103329190611d79565b61074f565b005b610353600480360381019061034e9190611d79565b6107d9565b005b61036f600480360381019061036a9190611de3565b610805565b005b61038b60048036038101906103869190611e9a565b61083d565b005b610395610851565b6040516103a29190611c18565b60405180910390f35b6103c560048036038101906103c09190611e36565b610868565b6040516103d29190611dc8565b60405180910390f35b6103f560048036038101906103f09190611e36565b61087a565b6040516104029190611dc8565b60405180910390f35b6104136108c2565b005b61042f600480360381019061042a9190611d79565b61094a565b005b61043961096a565b005b6104436109f0565b6040516104509190611ed6565b60405180910390f35b610461610a1a565b60405161046e9190611cc3565b60405180910390f35b610491600480360381019061048c9190611d79565b610aac565b60405161049e9190611c18565b60405180910390f35b6104c160048036038101906104bc9190611d79565b610b23565b6040516104ce9190611c18565b60405180910390f35b6104f160048036038101906104ec9190612026565b610b46565b005b61050d600480360381019061050891906120a9565b610b70565b005b610529600480360381019061052491906120e9565b610b7e565b6040516105369190611dc8565b60405180910390f35b61055960048036038101906105549190612129565b610c05565b005b61057560048036038101906105709190611e36565b610c23565b005b600061058282610d1f565b9050919050565b606060038054610598906121c7565b80601f01602080910402602001604051908101604052809291908181526020018280546105c4906121c7565b80156106115780601f106105e657610100808354040283529160200191610611565b820191906000526020600020905b8154815290600101906020018083116105f457829003601f168201915b5050505050905090565b600080610626610d99565b9050610633818585610da1565b600191505092915050565b6000600254905090565b600080610653610d99565b9050610660858285610f6a565b61066b858585610ff6565b60019150509392505050565b60006106828261087a565b9050919050565b60006012905090565b60008061069d610d99565b90506106be8185856106af8589610b7e565b6106b99190612227565b610da1565b600191505092915050565b6106d1610d99565b73ffffffffffffffffffffffffffffffffffffffff166106ef6109f0565b73ffffffffffffffffffffffffffffffffffffffff1614610745576040517f08c379a000000000000000000000000000000000000000000000000000000000815260040161073c906122a7565b60405180910390fd5b61074d611275565b565b610757610d99565b73ffffffffffffffffffffffffffffffffffffffff166107756109f0565b73ffffffffffffffffffffffffffffffffffffffff16146107cb576040517f08c379a00000000000000000000000000000000000000000000000000000000081526004016107c2906122a7565b60405180910390fd5b6107d58282611317565b5050565b60006107e3610d99565b905061080081848460405180602001604052806000815250611476565b505050565b600061080f610d99565b905061081c848284610f6a565b61083784848460405180602001604052806000815250611476565b50505050565b61084e610848610d99565b826114d2565b50565b6000600560009054906101000a900460ff16905090565b60006108738261087a565b9050919050565b60008060008373ffffffffffffffffffffffffffffffffffffffff1673ffffffffffffffffffffffffffffffffffffffff168152602001908152602001600020549050919050565b6108ca610d99565b73ffffffffffffffffffffffffffffffffffffffff166108e86109f0565b73ffffffffffffffffffffffffffffffffffffffff161461093e576040517f08c379a0000000000000000000000000000000000000000000000000000000008152600401610935906122a7565b60405180910390fd5b61094860006116a8565b565b61095c82610956610d99565b83610f6a565b61096682826114d2565b5050565b610972610d99565b73ffffffffffffffffffffffffffffffffffffffff166109906109f0565b73ffffffffffffffffffffffffffffffffffffffff16146109e6576040517f08c379a00000000000000000000000000000000000000000000000000000000081526004016109dd906122a7565b60405180910390fd5b6109ee61176e565b565b6000600560019054906101000a900473ffffffffffffffffffffffffffffffffffffffff16905090565b606060048054610a29906121c7565b80601f0160208091040260200160405190810160405280929190818152602001828054610a55906121c7565b8015610aa25780601f10610a7757610100808354040283529160200191610aa2565b820191906000526020600020905b815481529060010190602001808311610a8557829003601f168201915b5050505050905090565b600080610ab7610d99565b90506000610ac58286610b7e565b905083811015610b0a576040517f08c379a0000000000000000000000000000000000000000000000000000000008152600401610b0190612339565b60405180910390fd5b610b178286868403610da1565b60019250505092915050565b600080610b2e610d99565b9050610b3b818585610ff6565b600191505092915050565b6000610b50610d99565b9050610b5d858285610f6a565b610b6985858585611476565b5050505050565b610b7a818361094a565b5050565b6000600160008473ffffffffffffffffffffffffffffffffffffffff1673ffffffffffffffffffffffffffffffffffffffff16815260200190815260200160002060008373ffffffffffffffffffffffffffffffffffffffff1673ffffffffffffffffffffffffffffffffffffffff16815260200190815260200160002054905092915050565b6000610c0f610d99565b9050610c1d81858585611476565b50505050565b610c2b610d99565b73ffffffffffffffffffffffffffffffffffffffff16610c496109f0565b73ffffffffffffffffffffffffffffffffffffffff1614610c9f576040517f08c379a0000000000000000000000000000000000000000000000000000000008152600401610c96906122a7565b60405180910390fd5b600073ffffffffffffffffffffffffffffffffffffffff168173ffffffffffffffffffffffffffffffffffffffff1603610d0e576040517f08c379a0000000000000000000000000000000000000000000000000000000008152600401610d05906123cb565b60405180910390fd5b610d17816116a8565b50565b505050565b60007f3b5a0bf8000000000000000000000000000000000000000000000000000000007bffffffffffffffffffffffffffffffffffffffffffffffffffffffff1916827bffffffffffffffffffffffffffffffffffffffffffffffffffffffff19161480610d925750610d9182611811565b5b9050919050565b600033905090565b600073ffffffffffffffffffffffffffffffffffffffff168373ffffffffffffffffffffffffffffffffffffffff1603610e10576040517f08c379a0000000000000000000000000000000000000000000000000000000008152600401610e079061245d565b60405180910390fd5b600073ffffffffffffffffffffffffffffffffffffffff168273ffffffffffffffffffffffffffffffffffffffff1603610e7f576040517f08c379a0000000000000000000000000000000000000000000000000000000008152600401610e76906124ef565b60405180910390fd5b80600160008573ffffffffffffffffffffffffffffffffffffffff1673ffffffffffffffffffffffffffffffffffffffff16815260200190815260200160002060008473ffffffffffffffffffffffffffffffffffffffff1673ffffffffffffffffffffffffffffffffffffffff168152602001908152602001600020819055508173ffffffffffffffffffffffffffffffffffffffff168373ffffffffffffffffffffffffffffffffffffffff167f8c5be1e5ebec7d5bd14f71427d1e84f3dd0314c0f7b2291e5b200ac8c7c3b92583604051610f5d9190611dc8565b60405180910390a3505050565b6000610f768484610b7e565b90507fffffffffffffffffffffffffffffffffffffffffffffffffffffffffffffffff8114610ff05781811015610fe2576040517f08c379a0000000000000000000000000000000000000000000000000000000008152600401610fd99061255b565b60405180910390fd5b610fef8484848403610da1565b5b50505050565b600073ffffffffffffffffffffffffffffffffffffffff168373ffffffffffffffffffffffffffffffffffffffff1603611065576040517f08c379a000000000000000000000000000000000000000000000000000000000815260040161105c906125ed565b60405180910390fd5b600073ffffffffffffffffffffffffffffffffffffffff168273ffffffffffffffffffffffffffffffffffffffff16036110d4576040517f08c379a00000000000000000000000000000000000000000000000000000000081526004016110cb9061267f565b60405180910390fd5b6110df8383836118f3565b60008060008573ffffffffffffffffffffffffffffffffffffffff1673ffffffffffffffffffffffffffffffffffffffff16815260200190815260200160002054905081811015611165576040517f08c379a000000000000000000000000000000000000000000000000000000000815260040161115c90612711565b60405180910390fd5b8181036000808673ffffffffffffffffffffffffffffffffffffffff1673ffffffffffffffffffffffffffffffffffffffff16815260200190815260200160002081905550816000808573ffffffffffffffffffffffffffffffffffffffff1673ffffffffffffffffffffffffffffffffffffffff16815260200190815260200160002060008282546111f89190612227565b925050819055508273ffffffffffffffffffffffffffffffffffffffff168473ffffffffffffffffffffffffffffffffffffffff167fddf252ad1be2c89b69c2b068fc378daa952ba7f163c4a11628f55a4df523b3ef8460405161125c9190611dc8565b60405180910390a361126f84848461194b565b50505050565b61127d610851565b6112bc576040517f08c379a00000000000000000000000000000000000000000000000000000000081526004016112b39061277d565b60405180910390fd5b6000600560006101000a81548160ff0219169083151502179055507f5db9ee0a495bf2e6ff9c91a7834c1ba4fdd244a5e8aa4e537bd38aeae4b073aa611300610d99565b60405161130d9190611ed6565b60405180910390a1565b600073ffffffffffffffffffffffffffffffffffffffff168273ffffffffffffffffffffffffffffffffffffffff1603611386576040517f08c379a000000000000000000000000000000000000000000000000000000000815260040161137d906127e9565b60405180910390fd5b611392600083836118f3565b80600260008282546113a49190612227565b92505081905550806000808473ffffffffffffffffffffffffffffffffffffffff1673ffffffffffffffffffffffffffffffffffffffff16815260200190815260200160002060008282546113f99190612227565b925050819055508173ffffffffffffffffffffffffffffffffffffffff16600073ffffffffffffffffffffffffffffffffffffffff167fddf252ad1be2c89b69c2b068fc378daa952ba7f163c4a11628f55a4df523b3ef8360405161145e9190611dc8565b60405180910390a36114726000838361194b565b5050565b611481848484610ff6565b61148d84848484611950565b6114cc576040517f08c379a00000000000000000000000000000000000000000000000000000000081526004016114c39061287b565b60405180910390fd5b50505050565b600073ffffffffffffffffffffffffffffffffffffffff168273ffffffffffffffffffffffffffffffffffffffff1603611541576040517f08c379a0000000000000000000000000000000000000000000000000000000008152600401611538906128e7565b60405180910390fd5b61154d826000836118f3565b60008060008473ffffffffffffffffffffffffffffffffffffffff1673ffffffffffffffffffffffffffffffffffffffff168152602001908152602001600020549050818110156115d3576040517f08c379a00000000000000000000000000000000000000000000000000000000081526004016115ca90612979565b60405180910390fd5b8181036000808573ffffffffffffffffffffffffffffffffffffffff1673ffffffffffffffffffffffffffffffffffffffff16815260200190815260200160002081905550816002600082825461162a9190612999565b92505081905550600073ffffffffffffffffffffffffffffffffffffffff168373ffffffffffffffffffffffffffffffffffffffff167fddf252ad1be2c89b69c2b068fc378daa952ba7f163c4a11628f55a4df523b3ef8460405161168f9190611dc8565b60405180910390a36116a38360008461194b565b505050565b6000600560019054906101000a900473ffffffffffffffffffffffffffffffffffffffff16905081600560016101000a81548173ffffffffffffffffffffffffffffffffffffffff021916908373ffffffffffffffffffffffffffffffffffffffff1602179055508173ffffffffffffffffffffffffffffffffffffffff168173ffffffffffffffffffffffffffffffffffffffff167f8be0079c531659141344cd1fd0a4f28419497f9722a3daafe3b4186f6b6457e060405160405180910390a35050565b611776610851565b156117b6576040517f08c379a00000000000000000000000000000000000000000000000000000000081526004016117ad90612a19565b60405180910390fd5b6001600560006101000a81548160ff0219169083151502179055507f62e78cea01bee320cd4e420270b5ea74000d11b0c9f74754ebdbfc544b05a2586117fa610d99565b6040516118079190611ed6565b60405180910390a1565b60007f65787371000000000000000000000000000000000000000000000000000000007bffffffffffffffffffffffffffffffffffffffffffffffffffffffff1916827bffffffffffffffffffffffffffffffffffffffffffffffffffffffff191614806118dc57507fa219a025000000000000000000000000000000000000000000000000000000007bffffffffffffffffffffffffffffffffffffffffffffffffffffffff1916827bffffffffffffffffffffffffffffffffffffffffffffffffffffffff1916145b806118ec57506118eb82611ad7565b5b9050919050565b6118fb610851565b1561193b576040517f08c379a000000000000000000000000000000000000000000000000000000000815260040161193290612a19565b60405180910390fd5b611946838383610d1a565b505050565b505050565b60006119718473ffffffffffffffffffffffffffffffffffffffff16611b41565b15611aca578373ffffffffffffffffffffffffffffffffffffffff16639d188c2261199a610d99565b8786866040518563ffffffff1660e01b81526004016119bc9493929190612a8e565b6020604051808303816000875af19250505080156119f857506040513d601f19601f820116820180604052508101906119f59190612aef565b60015b611a7a573d8060008114611a28576040519150601f19603f3d011682016040523d82523d6000602084013e611a2d565b606091505b506000815103611a72576040517f08c379a0000000000000000000000000000000000000000000000000000000008152600401611a6990612b8e565b60405180910390fd5b805181602001fd5b639d188c2260e01b7bffffffffffffffffffffffffffffffffffffffffffffffffffffffff1916817bffffffffffffffffffffffffffffffffffffffffffffffffffffffff191614915050611acf565b600190505b949350505050565b60007f01ffc9a7000000000000000000000000000000000000000000000000000000007bffffffffffffffffffffffffffffffffffffffffffffffffffffffff1916827bffffffffffffffffffffffffffffffffffffffffffffffffffffffff1916149050919050565b6000808273ffffffffffffffffffffffffffffffffffffffff163b119050919050565b6000604051905090565b600080fd5b600080fd5b60007fffffffff0000000000000000000000000000000000000000000000000000000082169050919050565b611bad81611b78565b8114611bb857600080fd5b50565b600081359050611bca81611ba4565b92915050565b600060208284031215611be657611be5611b6e565b5b6000611bf484828501611bbb565b91505092915050565b60008115159050919050565b611c1281611bfd565b82525050565b6000602082019050611c2d6000830184611c09565b92915050565b600081519050919050565b600082825260208201905092915050565b60005b83811015611c6d578082015181840152602081019050611c52565b60008484015250505050565b6000601f19601f8301169050919050565b6000611c9582611c33565b611c9f8185611c3e565b9350611caf818560208601611c4f565b611cb881611c79565b840191505092915050565b60006020820190508181036000830152611cdd8184611c8a565b905092915050565b600073ffffffffffffffffffffffffffffffffffffffff82169050919050565b6000611d1082611ce5565b9050919050565b611d2081611d05565b8114611d2b57600080fd5b50565b600081359050611d3d81611d17565b92915050565b6000819050919050565b611d5681611d43565b8114611d6157600080fd5b50565b600081359050611d7381611d4d565b92915050565b60008060408385031215611d9057611d8f611b6e565b5b6000611d9e85828601611d2e565b9250506020611daf85828601611d64565b9150509250929050565b611dc281611d43565b82525050565b6000602082019050611ddd6000830184611db9565b92915050565b600080600060608486031215611dfc57611dfb611b6e565b5b6000611e0a86828701611d2e565b9350506020611e1b86828701611d2e565b9250506040611e2c86828701611d64565b9150509250925092565b600060208284031215611e4c57611e4b611b6e565b5b6000611e5a84828501611d2e565b91505092915050565b600060ff82169050919050565b611e7981611e63565b82525050565b6000602082019050611e946000830184611e70565b92915050565b600060208284031215611eb057611eaf611b6e565b5b6000611ebe84828501611d64565b91505092915050565b611ed081611d05565b82525050565b6000602082019050611eeb6000830184611ec7565b92915050565b600080fd5b600080fd5b7f4e487b7100000000000000000000000000000000000000000000000000000000600052604160045260246000fd5b611f3382611c79565b810181811067ffffffffffffffff82111715611f5257611f51611efb565b5b80604052505050565b6000611f65611b64565b9050611f718282611f2a565b919050565b600067ffffffffffffffff821115611f9157611f90611efb565b5b611f9a82611c79565b9050602081019050919050565b82818337600083830152505050565b6000611fc9611fc484611f76565b611f5b565b905082815260208101848484011115611fe557611fe4611ef6565b5b611ff0848285611fa7565b509392505050565b600082601f83011261200d5761200c611ef1565b5b813561201d848260208601611fb6565b91505092915050565b600080600080608085870312156120405761203f611b6e565b5b600061204e87828801611d2e565b945050602061205f87828801611d2e565b935050604061207087828801611d64565b925050606085013567ffffffffffffffff81111561209157612090611b73565b5b61209d87828801611ff8565b91505092959194509250565b600080604083850312156120c0576120bf611b6e565b5b60006120ce85828601611d64565b92505060206120df85828601611d2e565b9150509250929050565b60008060408385031215612100576120ff611b6e565b5b600061210e85828601611d2e565b925050602061211f85828601611d2e565b9150509250929050565b60008060006060848603121561214257612141611b6e565b5b600061215086828701611d2e565b935050602061216186828701611d64565b925050604084013567ffffffffffffffff81111561218257612181611b73565b5b61218e86828701611ff8565b9150509250925092565b7f4e487b7100000000000000000000000000000000000000000000000000000000600052602260045260246000fd5b600060028204905060018216806121df57607f821691505b6020821081036121f2576121f1612198565b5b50919050565b7f4e487b7100000000000000000000000000000000000000000000000000000000600052601160045260246000fd5b600061223282611d43565b915061223d83611d43565b9250828201905080821115612255576122546121f8565b5b92915050565b7f4f776e61626c653a2063616c6c6572206973206e6f7420746865206f776e6572600082015250565b6000612291602083611c3e565b915061229c8261225b565b602082019050919050565b600060208201905081810360008301526122c081612284565b9050919050565b7f4b4950373a2064656372656173656420616c6c6f77616e63652062656c6f772060008201527f7a65726f00000000000000000000000000000000000000000000000000000000602082015250565b6000612323602483611c3e565b915061232e826122c7565b604082019050919050565b6000602082019050818103600083015261235281612316565b9050919050565b7f4f776e61626c653a206e6577206f776e657220697320746865207a65726f206160008201527f6464726573730000000000000000000000000000000000000000000000000000602082015250565b60006123b5602683611c3e565b91506123c082612359565b604082019050919050565b600060208201905081810360008301526123e4816123a8565b9050919050565b7f4b4950373a20617070726f76652066726f6d20746865207a65726f206164647260008201527f6573730000000000000000000000000000000000000000000000000000000000602082015250565b6000612447602383611c3e565b9150612452826123eb565b604082019050919050565b600060208201905081810360008301526124768161243a565b9050919050565b7f4b4950373a20617070726f766520746f20746865207a65726f2061646472657360008201527f7300000000000000000000000000000000000000000000000000000000000000602082015250565b60006124d9602183611c3e565b91506124e48261247d565b604082019050919050565b60006020820190508181036000830152612508816124cc565b9050919050565b7f4b4950373a20696e73756666696369656e7420616c6c6f77616e636500000000600082015250565b6000612545601c83611c3e565b91506125508261250f565b602082019050919050565b6000602082019050818103600083015261257481612538565b9050919050565b7f4b4950373a207472616e736665722066726f6d20746865207a65726f2061646460008201527f7265737300000000000000000000000000000000000000000000000000000000602082015250565b60006125d7602483611c3e565b91506125e28261257b565b604082019050919050565b60006020820190508181036000830152612606816125ca565b9050919050565b7f4b4950373a207472616e7366657220746f20746865207a65726f20616464726560008201527f7373000000000000000000000000000000000000000000000000000000000000602082015250565b6000612669602283611c3e565b91506126748261260d565b604082019050919050565b600060208201905081810360008301526126988161265c565b9050919050565b7f4b4950373a207472616e7366657220616d6f756e74206578636565647320626160008201527f6c616e6365000000000000000000000000000000000000000000000000000000602082015250565b60006126fb602583611c3e565b91506127068261269f565b604082019050919050565b6000602082019050818103600083015261272a816126ee565b9050919050565b7f5061757361626c653a206e6f7420706175736564000000000000000000000000600082015250565b6000612767601483611c3e565b915061277282612731565b602082019050919050565b600060208201905081810360008301526127968161275a565b9050919050565b7f4b4950373a206d696e7420746f20746865207a65726f20616464726573730000600082015250565b60006127d3601e83611c3e565b91506127de8261279d565b602082019050919050565b60006020820190508181036000830152612802816127c6565b9050919050565b7f4b4950373a207472616e7366657220746f206e6f6e20494b495037526563656960008201527f76657220696d706c656d656e7465720000000000000000000000000000000000602082015250565b6000612865602f83611c3e565b915061287082612809565b604082019050919050565b6000602082019050818103600083015261289481612858565b9050919050565b7f4b4950373a206275726e2066726f6d20746865207a65726f2061646472657373600082015250565b60006128d1602083611c3e565b91506128dc8261289b565b602082019050919050565b60006020820190508181036000830152612900816128c4565b9050919050565b7f4b4950373a206275726e20616d6f756e7420657863656564732062616c616e6360008201527f6500000000000000000000000000000000000000000000000000000000000000602082015250565b6000612963602183611c3e565b915061296e82612907565b604082019050919050565b6000602082019050818103600083015261299281612956565b9050919050565b60006129a482611d43565b91506129af83611d43565b92508282039050818111156129c7576129c66121f8565b5b92915050565b7f5061757361626c653a2070617573656400000000000000000000000000000000600082015250565b6000612a03601083611c3e565b9150612a0e826129cd565b602082019050919050565b60006020820190508181036000830152612a32816129f6565b9050919050565b600081519050919050565b600082825260208201905092915050565b6000612a6082612a39565b612a6a8185612a44565b9350612a7a818560208601611c4f565b612a8381611c79565b840191505092915050565b6000608082019050612aa36000830187611ec7565b612ab06020830186611ec7565b612abd6040830185611db9565b8181036060830152612acf8184612a55565b905095945050505050565b600081519050612ae981611ba4565b92915050565b600060208284031215612b0557612b04611b6e565b5b6000612b1384828501612ada565b91505092915050565b7f4b4950373a207472616e7366657220746f206e6f6e204b49503752656365697660008201527f657220696d706c656d656e746572000000000000000000000000000000000000602082015250565b6000612b78602e83611c3e565b9150612b8382612b1c565b604082019050919050565b60006020820190508181036000830152612ba781612b6b565b905091905056fea264697066735822122034c6f42761afa686cfb6733de3da0a30f577b5c3f2c85932d52055c253562f6264736f6c63430008110033a26469706673582212200bf5fa6b4ec197a0bbac6e8112523d6f3257655bab0875812bc5805b78c398b264736f6c63430008110033",
  "linkReferences": {},
  "deployedLinkReferences": {}
}